:100000000C942A000C943F000C943F000C943F0089
:100010000C943F000C943F000C943F000C943F0064
:100020000C943F000C943F000C943F000C943F0054
:100030000C943F000C943F000C943F000C943F0044
:100040000C943F000C943F000C943F000C943F0034
:100050000C943F0011241FBECFE5D8E0DEBFCDBF1A
:1000600011E0A0E6B0E0ECECF4E302C005900D92E4
:10007000A23DB107D9F70E94E0190C94641A0C94C0
:100080000000EF92FF920F931F937B018C0120E001
:1000900030E040E05FE40E94ED0388238CF0C8016B
:1000A000B70120E030E040E05FE40E94B9010E9427
:1000B0004D049B01AC01205030404040504806C0E8
:1000C000C801B7010E944D049B01AC01B901CA01EE
:1000D0001F910F91FF90EF900895A0E0B0E0E3E74B
:1000E000F0E00C942D1ADC012B01FA019C91923066
:1000F00008F439C1EB018881823008F433C19430AF
:1001000069F4843009F02FC111969C91119789816F
:10011000981709F428C1A0E6B0E025C1843009F49D
:1001200021C18230A9F4923009F01DC19A01AD01BC
:1001300088E0EA010990AE01E90109929E0181502F
:10014000C1F7E201898111969C918923818308C1BD
:10015000923009F407C112962D903C901397EB0151
:100160008A819B811496AD90BD90CD90DC901797BD
:10017000EC80FD800E811F819101281B390BB90194
:1001800037FF04C066277727621B730B6032710547
:100190000CF061C0121613066CF537014801062EEB
:1001A00004C096948794779467940A94D2F721E0D8
:1001B00030E040E050E004C0220F331F441F551FC1
:1001C0006A95D2F721503040404050402E213F21C7
:1001D00040235123211531054105510521F021E02E
:1001E00030E040E050E079018A01E628F72808294C
:1001F00019293CC0232BD1F1260E371E35014601AB
:10020000062E04C096948794779467940A94D2F744
:1002100021E030E040E050E004C0220F331F441FD3
:10022000551F6A95D2F721503040404050402A2156
:100230003B214C215D21211531054105510521F05E
:1002400021E030E040E050E059016A01A628B728DB
:10025000C828D9280BC0821593052CF01C01AA24AC
:10026000BB24650103C0EE24FF24870111969C91F5
:10027000D20111968C91981709F445C0992339F051
:10028000A80197012A193B094C095D0906C0A6017E
:1002900095012E193F09400B510B57FD08C01182E3
:1002A0003382228224833583468357831DC081E0B5
:1002B00081833382228288279927DC01821B930B5A
:1002C000A40BB50B84839583A683B7830DC0220F3F
:1002D000331F441F551F24833583468357838281F0
:1002E000938101979383828324813581468157814D
:1002F000DA01C9010197A109B1098F5F9F4FAF4F83
:10030000BF4328F30BC0918333822282EA0CFB1C8B
:100310000C1D1D1DE482F5820683178383E0808314
:10032000248135814681578157FF1AC0C901AA2708
:1003300097FDA095BA2F81709070A070B0705695FF
:10034000479537952795822B932BA42BB52B848328
:100350009583A683B7838281938101969383828359
:10036000DF0101C0D201CD01CDB7DEB7E2E10C94CF
:10037000491AA0E2B0E0EFEBF1E00C94391A69837E
:100380007A838B839C832D833E834F835887E9E058
:10039000EE2EF12CEC0EFD1ECE010196B7010E944F
:1003A0003E068E010F5E1F4FCE010596B8010E94DA
:1003B0003E068A8991E089278A8BC701B801AE0180
:1003C000475E5F4F0E946D000E946905A096E6E0BF
:1003D0000C94551AA0E2B0E0E0EFF1E00C94391A69
:1003E00069837A838B839C832D833E834F835887D5
:1003F000F9E0EF2EF12CEC0EFD1ECE010196B701B7
:100400000E943E068E010F5E1F4FCE010596B80179
:100410000E943E06C701B801AE01475E5F4F0E94D1
:100420006D000E946905A096E6E00C94551AA0E2C2
:10043000B0E0EDE1F2E00C942D1A69837A838B83AE
:100440009C832D833E834F835887CE010196BE0146
:10045000675F7F4F0E943E06CE010596BE016F5E2C
:100460007F4F0E943E069985923088F089898230BC
:10047000C8F0943019F4823051F404C0843029F467
:10048000923081F480E690E0C6C0923049F420E0DA
:100490009A858A89981321E02A87CE010996BBC0E4
:1004A000823049F420E09A858A89981321E02A8BCA
:1004B000CE014196B0C02D843E844F8458886D880B
:1004C0007E888F88988CEE24FF248701AA24BB2481
:1004D000650140E050E060E070E0E0E0F0E0C10184
:1004E00081709070892BE9F0E60CF71C081D191D2E
:1004F0009A01AB012A0D3B1D4C1D5D1D80E090E073
:10050000A0E0B0E0E614F7040805190520F481E046
:1005100090E0A0E0B0E0BA01A901480F591F6A1F9E
:100520007B1FAA0CBB1CCC1CDD1C97FE08C081E005
:1005300090E0A0E0B0E0A82AB92ACA2ADB2A3196C6
:10054000E032F10549F0660C771C881C991C569422
:10055000479437942794C3CFFA85EA892B893C893D
:100560008B859C85280F391F2E5F3F4F17C0CA010E
:1005700081709070892B61F016950795F794E79438
:1005800080E090E0A0E0B0E8E82AF92A0A2B1B2BD3
:1005900076956795579547952F5F3F4F77FDE7CF46
:1005A0000CC0440F551F661F771F17FD4160EE0CEE
:1005B000FF1C001F111F21503040403090E05907B0
:1005C00090E0690790E4790760F32B8F3C8FDB01A3
:1005D000CA018F779070A070B07080349105A1052A
:1005E000B10561F447FD0AC0E114F10401051105EC
:1005F00029F0405C5F4F6F4F7F4F40781A8EFE1797
:1006000011F081E08A8F4D8F5E8F6F8F78A383E02A
:10061000898FCE0149960E946905A096E2E10C946B
:10062000491AA8E1B0E0E7E1F3E00C94351A6983D8
:100630007A838B839C832D833E834F835887B9E0D5
:10064000EB2EF12CEC0EFD1ECE010196B7010E949F
:100650003E068E010F5E1F4FCE010596B8010E9427
:100660003E062985223008F47EC03989323010F4E4
:10067000B8017CC08A859A8989278A87243011F03D
:10068000223031F4231709F06EC060E670E06EC0CE
:10069000343039F41D861E861F86188A1C861B86F8
:1006A00004C0323021F484E08987B7015FC02B8514
:1006B0003C858B899C89281B390B3C872B87ED84D3
:1006C000FE840F851889AD88BE88CF88D88CEA143F
:1006D000FB040C051D0540F4EE0CFF1C001F111F50
:1006E000215030403C872B8720E030E040E050E054
:1006F00080E090E0A0E0B0E460E070E0EA14FB0489
:100700000C051D0540F0282B392B4A2B5B2BEA18D2
:10071000FB080C091D09B695A79597958795EE0CD2
:10072000FF1C001F111F6F5F7F4F6F31710531F785
:10073000DA01C9018F779070A070B0708034910594
:10074000A105B10561F427FD0AC0E114F10401051A
:10075000110529F0205C3F4F4F4F5F4F20782D87C8
:100760003E874F87588BBE01675F7F4FCB010E944A
:1007700069056896EAE00C94511AA8E1B0E0E3EC50
:10078000F3E00C94391A69837A838B839C832D83DD
:100790003E834F83588789E0E82EF12CEC0EFD1E36
:1007A000CE010196B7010E943E068E010F5E1F4FDB
:1007B000CE010596B8010E943E068985823040F040
:1007C0008989823028F0C701B8010E94B60601C0AD
:1007D0008FEF6896E6E00C94551AA8E1B0E0E3EFDD
:1007E000F3E00C94391A69837A838B839C832D837D
:1007F0003E834F83588789E0E82EF12CEC0EFD1ED6
:10080000CE010196B7010E943E068E010F5E1F4F7A
:10081000CE010596B8010E943E068985823040F0DF
:100820008989823028F0C701B8010E94B60601C04C
:100830008FEF6896E6E00C94551AA8E1B0E0E3E289
:10084000F4E00C94391A69837A838B839C832D831B
:100850003E834F83588789E0E82EF12CEC0EFD1E75
:10086000CE010196B7010E943E068E010F5E1F4F1A
:10087000CE010596B8010E943E068985823040F07F
:100880008989823028F0C701B8010E94B60601C0EC
:1008900081E06896E6E00C94551AACE0B0E0E3E540
:1008A000F4E00C943D1A69837A838B839C83CE0198
:1008B0000196BE016B5F7F4F0E943E068D818230A4
:1008C00061F1823050F1843021F48E81882351F11E
:1008D0002EC02F81388537FD20C06E812F31310524
:1008E0001CF06623F9F023C08EE190E0821B930B8D
:1008F00029853A854B855C8504C056954795379583
:1009000027958A95D2F76623B1F05095409530959A
:1009100021953F4F4F4F5F4F0EC020E030E040E049
:1009200050E009C02FEF3FEF4FEF5FE704C020E03A
:1009300030E040E050E8B901CA012C96E2E00C94A6
:10094000591AA8E0B0E0E7EAF4E00C94351A7B010C
:100950008C01611571058105910519F482E0898387
:1009600060C083E089838EE1C82ED12CDC82CB82EB
:10097000ED82FE820F831887C801B7010E941A0515
:10098000FC013197F7FF3BC0222733272E1B3F0B7B
:1009900057016801022E04C0D694C794B794A79457
:1009A0000A94D2F740E050E060E070E081E090E02F
:1009B000A0E0B0E004C0880F991FAA1FBB1F2A95B2
:1009C000D2F70197A109B1098E219F21A023B1235C
:1009D0000097A105B10521F041E050E060E070E032
:1009E0004A295B296C297D294D835E836F83788733
:1009F0008EE190E08E1B9F0B9C838B8312C03097FF
:100A000081F00E2E04C0EE0CFF1C001F111F0A9473
:100A1000D2F7ED82FE820F831887CE1ADF0ADC82BE
:100A2000CB821A82CE0101960E9469052896EAE0DF
:100A30000C94511AEF92FF920F931F937B018C013C
:100A400080E0E81680E0F80681E0080780E01807FB
:100A500088F48FEFE816F1040105110531F028F054
:100A600088E090E0A0E0B0E017C080E090E0A0E077
:100A7000B0E012C080E0E81680E0F80680E00807E9
:100A800081E0180728F088E190E0A0E0B0E004C021
:100A900080E190E0A0E0B0E020E230E040E050E013
:100AA000281B390B4A0B5B0B04C016950795F7946E
:100AB000E7948A95D2F7F701E859FF4F8081281B08
:100AC000310941095109C9011F910F91FF90EF9020
:100AD0000895DF92EF92FF920F931F93FC01E48041
:100AE000F58006811781D1808081823048F480E0D2
:100AF00090E0A0E1B0E0E82AF92A0A2B1B2BA5C060
:100B0000843009F49FC0823021F4EE24FF24870151
:100B100005C0E114F1040105110519F4E0E0F0E06D
:100B200096C0628173819FEF623879070CF05BC0D9
:100B300022E83FEF261B370B2A3131052CF020E04D
:100B400030E040E050E02AC0B801A701022E04C006
:100B500076956795579547950A94D2F781E090E08E
:100B6000A0E0B0E004C0880F991FAA1FBB1F2A9500
:100B7000D2F70197A109B1098E219F21A023B123AA
:100B80000097A105B10521F081E090E0A0E0B0E080
:100B90009A01AB01282B392B4A2B5B2BDA01C901B7
:100BA0008F779070A070B07080349105A105B10569
:100BB00039F427FF09C0205C3F4F4F4F5F4F04C0FF
:100BC000215C3F4F4F4F5F4FE0E0F0E02030A0E06E
:100BD0003A07A0E04A07A0E45A0710F0E1E0F0E08D
:100BE00079018A0127C06038710564F5FB01E1587D
:100BF000FF4FD801C7018F779070A070B07080341C
:100C00009105A105B10539F4E7FE0DC080E490E03F
:100C1000A0E0B0E004C08FE390E0A0E0B0E0E80E18
:100C2000F91E0A1F1B1F17FF05C016950795F7949D
:100C3000E794319687E016950795F794E7948A959F
:100C4000D1F705C0EE24FF248701EFEFF0E06E2F0F
:100C5000679566276795902F9F77D794DD24D79463
:100C60008E2F8695492F462B582F5D29B701CA0133
:100C70001F910F91FF90EF90DF900895FC01DB0131
:100C8000408151812281622F6F7770E0221F2227DD
:100C9000221F9381892F880F822B282F30E0991FE4
:100CA0009927991F11969C93119721153105A9F544
:100CB000411551056105710511F482E037C082E8E4
:100CC0009FEF13969C938E9312979A01AB0167E066
:100CD000220F331F441F551F6A95D1F783E08C9371
:100CE0000DC0220F331F441F551F12968D919C91EA
:100CF0001397019713969C938E931297203080E060
:100D0000380780E0480780E4580758F314962D937D
:100D10003D934D935C93179708952F3F310579F4D8
:100D2000411551056105710519F484E08C9308950E
:100D300064FF03C081E08C9312C01C9210C02F5737
:100D4000304013963C932E93129783E08C9387E068
:100D5000440F551F661F771F8A95D1F7706414964C
:100D60004D935D936D937C93179708951F93DC01CA
:100D7000FB019C91923008F447C08081823008F4D6
:100D800043C0943051F411961C91843099F58181BF
:100D9000682F70E0611B71093FC0843021F09230F0
:100DA00031F48230B9F18181882389F12DC0119607
:100DB0001C9111978230F1F081811817D9F41296A5
:100DC0002D913C911397828193818217930794F020
:100DD00028173907BCF014968D919D910D90BC9108
:100DE000A02D2481358146815781281739074A076C
:100DF0005B0718F4112341F00AC082179307A40778
:100E0000B50740F4112319F061E070E005C06FEF01
:100E10007FEF02C060E070E0CB011F910895DF9387
:100E2000CF93CDB7DEB7EAE3F0E087E08083E7E376
:100E3000F0E01082E4E3F0E080EF8083E1E3F0E0B3
:100E40008FEF8083EBE3F0E01082E8E3F0E01082C4
:100E5000E5E3F0E08FEF8083E2E3F0E01082CF91F2
:100E6000DF910895DF93CF93CDB7DEB72F970FB6FD
:100E7000F894DEBF0FBECDBF8A836B834C8319828B
:100E80008A81843008F00EC18B81883008F00AC155
:100E90008C81813021F08C81882309F003C18A8103
:100EA000282F30E03F872E878E859F8581309105E2
:100EB00009F44FC02E853F85223031052CF48E85F4
:100EC0009F85009771F0EBC02E853F85223031055C
:100ED00009F477C08E859F858330910509F4A9C0F8
:100EE000DEC08C81282F30E03D872C878C859D8546
:100EF0000097D1F02C853D852130310509F0CFC018
:100F0000AAE3B0E0EAE3F0E08081482F8B81282F4C
:100F100030E081E090E0022E02C0880F991F0A9411
:100F2000E2F7842B8C93BBC0AAE3B0E0EAE3F0E0E5
:100F30008081482F8B81282F30E081E090E0022EC5
:100F400002C0880F991F0A94E2F7809584238C933E
:100F5000A6C08C81282F30E03B872A878A859B8515
:100F60000097D1F02A853B852130310509F097C0E3
:100F7000A7E3B0E0E7E3F0E08081482F8B81282FE2
:100F800030E081E090E0022E02C0880F991F0A94A1
:100F9000E2F7842B8C9383C0A7E3B0E0E7E3F0E0B3
:100FA0008081482F8B81282F30E081E090E0022E55
:100FB00002C0880F991F0A94E2F7809584238C93CE
:100FC0006EC08C81282F30E03987288788859985E5
:100FD0000097D1F0288539852130310509F05FC0AF
:100FE000A4E3B0E0E4E3F0E08081482F8B81282F78
:100FF00030E081E090E0022E02C0880F991F0A9431
:10100000E2F7842B8C934BC0A4E3B0E0E4E3F0E080
:101010008081482F8B81282F30E081E090E0022EE4
:1010200002C0880F991F0A94E2F7809584238C935D
:1010300036C08C81282F30E03F832E838E819F81A4
:101040000097C9F02E813F812130310541F5A1E3A0
:10105000B0E0E1E3F0E08081482F8B81282F30E081
:1010600081E090E0022E02C0880F991F0A94E2F7F7
:10107000842B8C9314C0A1E3B0E0E1E3F0E0808125
:10108000482F8B81282F30E081E090E0022E02C0B3
:10109000880F991F0A94E2F7809584238C933981F5
:1010A0003D8304C081E0898389818D838D812F9662
:1010B0000FB6F894DEBF0FBECDBFCF91DF9108957C
:1010C000DF93CF93CDB7DEB72F970FB6F894DEBF7F
:1010D0000FBECDBF8A836B834C8319828A81843093
:1010E00008F00EC18B81883008F00AC18C818130F4
:1010F00021F08C81882309F003C18A81282F30E0F8
:101100003F872E878E859F858130910509F44FC0DA
:101110002E853F85223031052CF48E859F850097E2
:1011200071F0EBC02E853F852230310509F477C080
:101130008E859F858330910509F4A9C0DEC08C811E
:10114000282F30E03D872C878C859D850097D1F036
:101150002C853D852130310509F0CFC0ABE3B0E0EF
:10116000EBE3F0E08081482F8B81282F30E081E095
:1011700090E0022E02C0880F991F0A94E2F7842B98
:101180008C93BBC0ABE3B0E0EBE3F0E08081482F91
:101190008B81282F30E081E090E0022E02C0880F82
:1011A000991F0A94E2F7809584238C93A6C08C81C2
:1011B000282F30E03B872A878A859B850097D1F0CE
:1011C0002A853B852130310509F097C0A8E3B0E0BE
:1011D000E8E3F0E08081482F8B81282F30E081E028
:1011E00090E0022E02C0880F991F0A94E2F7842B28
:1011F0008C9383C0A8E3B0E0E8E3F0E08081482F5F
:101200008B81282F30E081E090E0022E02C0880F11
:10121000991F0A94E2F7809584238C936EC08C8189
:10122000282F30E039872887888599850097D1F065
:10123000288539852130310509F05FC0A5E3B0E08C
:10124000E5E3F0E08081482F8B81282F30E081E0BA
:1012500090E0022E02C0880F991F0A94E2F7842BB7
:101260008C934BC0A5E3B0E0E5E3F0E08081482F2C
:101270008B81282F30E081E090E0022E02C0880FA1
:10128000991F0A94E2F7809584238C9336C08C8151
:10129000282F30E03F832E838E819F810097C9F0F5
:1012A0002E813F812130310541F5A2E3B0E0E2E338
:1012B000F0E08081482F8B81282F30E081E090E0A2
:1012C000022E02C0880F991F0A94E2F7842B8C9398
:1012D00014C0A2E3B0E0E2E3F0E08081482F8B810C
:1012E000282F30E081E090E0022E02C0880F991F85
:1012F0000A94E2F7809584238C9339813D8304C05E
:1013000081E0898389818D838D812F960FB6F89432
:10131000DEBF0FBECDBFCF91DF910895DF93CF9396
:10132000CDB7DEB728970FB6F894DEBF0FBECDBF9E
:101330008A836B835D834C8319828A81843008F0B1
:10134000ECC08B81883008F0E8C08C819D810097CB
:1013500009F4E3C08A81282F30E038872F834F813A
:1013600058854130510509F448C08F8198858230F5
:10137000910534F42F8138852115310571F0CAC0EB
:101380004F8158854230510509F467C08F81988597
:101390008330910509F490C0BDC0E9E3F0E080819D
:1013A000282F30E08B81882F90E0A90102C055954D
:1013B00047958A95E2F7CA0181709070009721F4F1
:1013C000EC81FD811082A6C0E9E3F0E08081282F46
:1013D00030E08B81882F90E0A90102C05595479598
:1013E0008A95E2F7CA0181709070882309F492C04F
:1013F000EC81FD8181E080838DC0E6E3F0E08081B7
:10140000282F30E08B81882F90E0A90102C05595EC
:1014100047958A95E2F7CA0181709070009721F490
:10142000EC81FD81108276C0E6E3F0E08081282F18
:1014300030E08B81882F90E0A90102C05595479537
:101440008A95E2F7CA0181709070882309F462C01E
:10145000EC81FD8181E080835DC0E3E3F0E0808189
:10146000282F30E08B81882F90E0A90102C055958C
:1014700047958A95E2F7CA0181709070009721F430
:10148000EC81FD81108246C0E3E3F0E08081282FEB
:1014900030E08B81882F90E0A90102C055954795D7
:1014A0008A95E2F7CA0181709070882399F1EC81E6
:1014B000FD8181E080832EC0E0E3F0E08081282F71
:1014C00030E08B81882F90E0A90102C055954795A7
:1014D0008A95E2F7CA0181709070009721F4EC813F
:1014E000FD81108217C0E0E3F0E08081282F30E01A
:1014F0008B81882F90E0A90102C0559547958A9568
:10150000E2F7CA0181709070882321F0EC81FD819F
:1015100081E0808359815E8304C081E08983898171
:101520008E838E8128960FB6F894DEBF0FBECDBF96
:10153000CF91DF910895DF93CF93CDB7DEB72E978C
:101540000FB6F894DEBF0FBECDBF8A836B831982BE
:101550008A81843008F089C08B81813021F08B81B1
:10156000882309F082C08A81282F30E03E872D87AA
:101570008D859E858130910571F12D853E852230C6
:1015800031052CF48D859E85009769F06BC02D8503
:101590003E8522303105B9F18D859E8583309105D8
:1015A00009F449C05FC08B81282F30E03C872B872E
:1015B0008B859C85009731F02B853C85213031054A
:1015C00029F050C0EBE3F0E010824CC0EBE3F0E018
:1015D0008FEF808347C08B81282F30E03A8729879F
:1015E00089859A85009731F029853A852130310522
:1015F00029F038C0E8E3F0E0108234C0E8E3F0E01E
:101600008FEF80832FC08B81282F30E038872F8386
:101610008F819885009731F02F81388521303105F1
:1016200029F020C0E5E3F0E010821CC0E5E3F0E023
:101630008FEF808317C08B81282F30E03E832D836E
:101640008D819E81009731F02D813E8121303105C1
:1016500029F008C0E2E3F0E0108204C0E2E3F0E029
:101660008FEF808339813C8304C081E08983898145
:101670008C838C812E960FB6F894DEBF0FBECDBF43
:10168000CF91DF910895DF93CF9300D000D000D0A9
:10169000CDB7DEB78A836B8319828A818430A8F53F
:1016A0008A81282F30E03E832D838D819E81813079
:1016B0009105D1F02D813E81223031052CF48D81B0
:1016C0009E81009761F01EC02D813E812230310540
:1016D00081F08D819E818330910581F013C0EBE311
:1016E000F0E08B8180830EC0E8E3F0E08B818083A3
:1016F00009C0E5E3F0E08B81808304C0E2E3F0E021
:101700008B81808399819C8304C081E089832981B6
:101710002C838C8126960FB6F894DEBF0FBECDBF0A
:10172000CF91DF910895DF93CF93CDB7DEB72797A1
:101730000FB6F894DEBF0FBECDBF8A837C836B8368
:1017400019828B819C810097E9F18A81282F30E0F2
:101750003F832E838E819F8181309105E1F02E8120
:101760003F81223031052CF48E819F81009761F0FA
:1017700026C02E813F8122303105A1F08E819F81CC
:1017800083309105B1F01BC0E9E3F0E08081EB818B
:10179000FC81808314C0E6E3F0E08081EB81FC8172
:1017A00080830DC0E3E3F0E08081EB81FC818083E6
:1017B00006C0E0E3F0E08081EB81FC8180839981C9
:1017C0009D8304C081E0898329812D838D812796A3
:1017D0000FB6F894DEBF0FBECDBFCF91DF91089555
:1017E000DF93CF93CDB7DEB765970FB6F894DEBF22
:1017F0000FBECDBF9D8B8C8B1A8A1F868C899D89CD
:10180000009709F4E1C0EC89FD898FEF8083198A84
:10181000D6C08989882F90E0FC01E859FE4F90815D
:1018200080E0692F40E00E946008188AB2C0888971
:10183000882F90E0FC01E459FE4F90819E012D5EBF
:101840003F4F80E0692FA9010E948E098B89882370
:1018500009F09CC080E090E0A0EAB1E48B879C870F
:10186000AD87BE876B857C858D859E8520E030E0C9
:101870004AEF54E40E941702DC01CB018F83988762
:10188000A987BA876F81788589859A8520E030E0BD
:1018900040E85FE30E941D0488232CF481E090E07F
:1018A0009E838D833FC06F81788589859A8520E0EE
:1018B0003FEF4FE757E40E94BD0318164CF56B85C8
:1018C0007C858D859E8520E030E040E251E40E94D9
:1018D0001702DC01CB01BC01CD010E944100DC01FB
:1018E000CB019E838D830FC088EC90E09C838B831B
:1018F0008B819C810197F1F79C838B838D819E81E5
:1019000001979E838D838D819E81009769F724C006
:101910006F81788589859A850E944100DC01CB0121
:101920009E838D838D819E819A83898389819A810B
:101930000197F1F79A8389830FC08889882F90E0F7
:10194000FC01E459FE4F90819E012D5E3F4F80E0E7
:10195000692FA9010E948E098B89882371F38989D7
:10196000482F50E08889282F30E0CA01880F991F3E
:10197000880F991F820F931FFC01E059FE4F808151
:10198000EC89FD89808381E08F8707C088898F5F1C
:10199000888B8889843008F44ACF8989882F90E021
:1019A000FC01E859FE4F908180E0692F40E00E94E1
:1019B00060088F85813051F089898F5F898B898993
:1019C000843008F426CF02C081E08A8B8A8965962C
:1019D0000FB6F894DEBF0FBECDBFCF91DF91089553
:1019E000DF93CF93CDB7DEB7E8970FB6F894DEBF9D
:1019F0000FBECDBF80E090E0ACE0B2E48DAB9EAB1B
:101A0000AFABB8AF6DA97EA98FA998AD20E030E04B
:101A10004AEF54E40E941702DC01CB0189AB9AAB78
:101A2000ABABBCAB69A97AA98BA99CA920E030E03B
:101A300040E85FE30E941D0488232CF481E090E0DD
:101A400098AB8FA73FC069A97AA98BA99CA920E070
:101A50003FEF4FE757E40E94BD0318164CF56DA900
:101A60007EA98FA998AD20E030E040E251E40E94C9
:101A70001702DC01CB01BC01CD010E944100DC0159
:101A8000CB0198AB8FA70FC088EC90E09EA78DA7E5
:101A90008DA59EA50197F1F79EA78DA78FA598A963
:101AA000019798AB8FA78FA598A9009769F714C0E5
:101AB00069A97AA98BA99CA90E944100DC01CB01EC
:101AC00098AB8FA78FA598A99CA78BA78BA59CA542
:101AD0000197F1F79CA78BA780E20E94A91180E2F1
:101AE0000E94A91180EC0E94A91180E090E0A0E280
:101AF000B2E48FA398A7A9A7BAA76FA178A589A5D3
:101B00009AA520E030E04AEF54E40E941702DC017D
:101B1000CB018BA39CA3ADA3BEA36BA17CA18DA184
:101B20009EA120E030E040E85FE30E941D0488238E
:101B30002CF481E090E09AA389A33FC06BA17CA123
:101B40008DA19EA120E03FEF4FE757E40E94BD0327
:101B500018164CF56FA178A589A59AA520E030E06C
:101B600040E251E40E941702DC01CB01BC01CD012F
:101B70000E944100DC01CB019AA389A30FC088EC2D
:101B800090E098A38F8F8F8D98A10197F1F798A37C
:101B90008F8F89A19AA101979AA389A389A19AA15C
:101BA000009769F714C06BA17CA18DA19EA10E9432
:101BB0004100DC01CB019AA389A389A19AA19E8F40
:101BC0008D8F8D8D9E8D0197F1F79E8F8D8F80E08B
:101BD0000E94A91180EF0E94A91180E090E0A0E28C
:101BE000B2E4898F9A8FAB8FBC8F698D7A8D8B8D84
:101BF0009C8D20E030E04AEF54E40E941702DC01A3
:101C0000CB018D8B9E8BAF8BB88F6D897E898F8931
:101C1000988D20E030E040E85FE30E941D048823B7
:101C20002CF481E090E09C8B8B8B3FC06D897E898A
:101C30008F89988D20E03FEF4FE757E40E94BD0366
:101C400018164CF5698D7A8D8B8D9C8D20E030E0D7
:101C500040E251E40E941702DC01CB01BC01CD013E
:101C60000E944100DC01CB019C8B8B8B0FC088EC68
:101C700090E09A8B898B89899A890197F1F79A8BE1
:101C8000898B8B899C8901979C8B8B8B8B899C89F9
:101C9000009769F714C06D897E898F89988D0E949D
:101CA0004100DC01CB019C8B8B8B8B899C89988BB1
:101CB0008F878F8598890197F1F7988B8F8780E0C0
:101CC0000E94A91180E10E94A91180E090E0A0E0AB
:101CD000B0E48B879C87AD87BE876B857C858D85BF
:101CE0009E8520E030E04AEF54E40E941702DC01B8
:101CF000CB018F839887A987BA876F81788589857B
:101D00009A8520E030E040E85FE30E941D048823CC
:101D10002CF481E090E09E838D833FC06F817885B5
:101D200089859A8520E03FEF4FE757E40E94BD0385
:101D300018164CF56B857C858D859E8520E030E0FE
:101D400040E251E40E941702DC01CB01BC01CD014D
:101D50000E944100DC01CB019E838D830FC088EC83
:101D600090E09C838B838B819C810197F1F79C830E
:101D70008B838D819E8101979E838D838D819E8132
:101D8000009769F714C06F81788589859A850E94CC
:101D90004100DC01CB019E838D838D819E819A83DE
:101DA000898389819A810197F1F79A83898380E0F9
:101DB0000E94A91180E60E94A911E8960FB6F89436
:101DC000DEBF0FBECDBFCF91DF9108950F931F935C
:101DD000DF93CF93CDB7DEB7CC54D0400FB6F89495
:101DE000DEBF0FBECDBFFE01E75BFF4F80E090E09E
:101DF000ACE0B2E480839183A283B3838E010B5B5A
:101E00001F4FFE01E75BFF4F6081718182819381EB
:101E100020E030E04AEF54E40E941702DC01CB01DD
:101E2000F80180839183A283B383FE01EB5BFF4FB4
:101E3000608171818281938120E030E040E85FE33E
:101E40000E941D04882344F4FE01ED5BFF4F81E0F6
:101E500090E09183808364C0FE01EB5BFF4F608163
:101E600071818281938120E03FEF4FE757E40E9428
:101E7000BD0318160CF043C0FE01E75BFF4F608105
:101E800071818281938120E030E040E251E40E9440
:101E90001702DC01CB018E010D5B1F4FBC01CD0190
:101EA0000E944100DC01CB01F801918380831FC0B7
:101EB000FE01EF5BFF4F88EC90E091838083FE0191
:101EC000EF5BFF4F808191810197F1F7FE01EF5B9E
:101ED000FF4F91838083DE01AD5BBF4FFE01ED5B61
:101EE000FF4F80819181019711969C938E93FE0103
:101EF000ED5BFF4F808191810097D1F624C08E0168
:101F00000D5B1F4FFE01EB5BFF4F60817181828192
:101F100093810E944100DC01CB01F8019183808311
:101F2000FE01ED5BFF4F80819181FE01FF96918361
:101F30008083FE01FF96808191810197F1F7FE0178
:101F4000FF969183808388E30E94A91180E090E04E
:101F5000A0E2B2E48BAF9CAFADAFBEAF6BAD7CADDA
:101F60008DAD9EAD2BEA3AEA4AE250E40E94170298
:101F7000DC01CB018FAB98AFA9AFBAAF6FA978AD39
:101F800089AD9AAD20E030E040E85FE30E941D0497
:101F900088231CF481E08EAB91C06FA978AD89AD28
:101FA0009AAD20E030E04FE753E40E94BD031816DD
:101FB0000CF07BC06BAD7CAD8DAD9EAD20E030E014
:101FC0004AE754E40E941103DC01CB018AAB9BABCE
:101FD000ACABBDAB6AA97BA98CA99DA920E030E080
:101FE0004AEF54E40E941702DC01CB018EA79FA7A1
:101FF000A8ABB9AB6EA57FA588A999A920E030E070
:1020000040E85FE30E941D0488232CF481E090E007
:102010009DA78CA73FC06EA57FA588A999A920E0A0
:102020003FEF4FE757E40E94BD0318164CF56AA92D
:102030007BA98CA99DA920E030E040E251E40E94F8
:102040001702DC01CB01BC01CD010E944100DC0183
:10205000CB019DA78CA70FC088EC90E09BA78AA717
:102060008AA59BA50197F1F79BA78AA78CA59DA59B
:1020700001979DA78CA78CA59DA5009769F724C003
:102080006EA57FA588A999A90E944100DC01CB011A
:102090009DA78CA78CA59DA599A788A788A599A57C
:1020A0000197F1F799A788A70FC06FA978AD89ADFF
:1020B0009AAD0E944100DC01CB018EAB8EA98FA3AB
:1020C0008FA18A95F1F78FA38FE00E94A91180E07C
:1020D00090E0A0E2B2E48BA39CA3ADA3BEA36BA14E
:1020E0007CA18DA19EA12BEA3AEA4AE250E40E942B
:1020F0001702DC01CB018F8F98A3A9A3BAA36F8D20
:1021000078A189A19AA120E030E040E85FE30E9435
:102110001D0488231CF481E08E8F91C06F8D78A1FF
:1021200089A19AA120E030E04FE753E40E94BD036B
:1021300018160CF07BC06BA17CA18DA19EA120E0A4
:1021400030E04AE754E40E941103DC01CB018A8F9E
:102150009B8FAC8FBD8F6A8D7B8D8C8D9D8D20E08C
:1021600030E04AEF54E40E941702DC01CB018E8B71
:102170009F8BA88FB98F6E897F89888D998D20E07C
:1021800030E040E85FE30E941D0488232CF481E0E6
:1021900090E09D8B8C8B3FC06E897F89888D998D57
:1021A00020E03FEF4FE757E40E94BD0318164CF5BF
:1021B0006A8D7B8D8C8D9D8D20E030E040E251E476
:1021C0000E941702DC01CB01BC01CD010E9441003D
:1021D000DC01CB019D8B8C8B0FC088EC90E09B8B3E
:1021E0008A8B8A899B890197F1F79B8B8A8B8C89D3
:1021F0009D8901979D8B8C8B8C899D89009769F7B0
:1022000024C06E897F89888D998D0E944100DC01F0
:10221000CB019D8B8C8B8C899D89998B888B888930
:1022200099890197F1F7998B888B0FC06F8D78A1F1
:1022300089A19AA10E944100DC01CB018E8F8E8D75
:102240008F878F858A95F1F78F8781E00E94A9118A
:1022500080E090E0A0E0B0E48B879C87AD87BE87EC
:102260006B857C858D859E8520E030E04AEF54E4C7
:102270000E941702DC01CB018F839887A987BA8758
:102280006F81788589859A8520E030E040E85FE3BA
:102290000E941D0488232CF481E090E09E838D83AE
:1022A0003FC06F81788589859A8520E03FEF4FE7B1
:1022B00057E40E94BD0318164CF56B857C858D850F
:1022C0009E8520E030E040E251E40E941702DC01EC
:1022D000CB01BC01CD010E944100DC01CB019E83FA
:1022E0008D830FC088EC90E09C838B838B819C81D5
:1022F0000197F1F79C838B838D819E8101979E834B
:102300008D838D819E81009769F714C06F817885D8
:1023100089859A850E944100DC01CB019E838D83D3
:102320008D819E819A83898389819A810197F1F7B2
:102330009A83898386E00E94A911C45BDF4F0FB6A0
:10234000F894DEBF0FBECDBFCF91DF911F910F91EB
:102350000895DF93CF93CDB7DEB7E2970FB6F89429
:10236000DEBF0FBECDBF8AAB19AA80E060E040E0BF
:102370000E94600880E061E040E00E94600883E025
:102380006AA90E94430B80E062E041E00E9460087D
:1023900080E090E0A0E8BFE38DA79EA7AFA7B8AB11
:1023A0006DA57EA58FA598A92BEA3AEA4AE250E4EA
:1023B0000E941702DC01CB0189A79AA7ABA7BCA793
:1023C00069A57AA58BA59CA520E030E040E85FE3F5
:1023D0000E941D0488231CF481E088A791C069A590
:1023E0007AA58BA59CA520E030E04FE753E40E943E
:1023F000BD0318160CF07BC06DA57EA58FA598A90E
:1024000020E030E04AE754E40E941103DC01CB01F4
:102410008CA39DA3AEA3BFA36CA17DA18EA19FA100
:1024200020E030E04AEF54E40E941702DC01CB01C7
:1024300088A399A3AAA3BBA368A179A18AA19BA100
:1024400020E030E040E85FE30E941D0488232CF484
:1024500081E090E09F8F8E8F3FC068A179A18AA113
:102460009BA120E03FEF4FE757E40E94BD03181601
:102470004CF56CA17DA18EA19FA120E030E040E24F
:1024800051E40E941702DC01CB01BC01CD010E9486
:102490004100DC01CB019F8F8E8F0FC088EC90E054
:1024A0009D8F8C8F8C8D9D8D0197F1F79D8F8C8FDB
:1024B0008E8D9F8D01979F8F8E8F8E8D9F8D009714
:1024C00069F724C068A179A18AA19BA10E9441005B
:1024D000DC01CB019F8F8E8F8E8D9F8D9B8F8A8F7E
:1024E0008A8D9B8D0197F1F79B8F8A8F0FC069A50D
:1024F0007AA58BA59CA50E944100DC01CB0188A791
:1025000088A5898F898D8A95F1F7898F80E062E0AF
:1025100040E00E94600880E090E0A0E8BFE38D8B7F
:102520009E8BAF8BB88F6D897E898F89988D2BEAB2
:102530003AEA4AE250E40E941702DC01CB01898B9F
:102540009A8BAB8BBC8B69897A898B899C8920E0BB
:1025500030E040E85FE30E941D0488231CF481E022
:10256000888B91C069897A898B899C8920E030E0C9
:102570004FE753E40E94BD0318160CF07BC06D8931
:102580007E898F89988D20E030E04AE754E40E94EC
:102590001103DC01CB018C879D87AE87BF876C85DB
:1025A0007D858E859F8520E030E04AEF54E40E94CF
:1025B0001702DC01CB0188879987AA87BB876885CA
:1025C00079858A859B8520E030E040E85FE30E94C2
:1025D0001D0488232CF481E090E09F838E833FC00C
:1025E000688579858A859B8520E03FEF4FE757E432
:1025F0000E94BD0318164CF56C857D858E859F85E0
:1026000020E030E040E251E40E941702DC01CB01FF
:10261000BC01CD010E944100DC01CB019F838E8370
:102620000FC088EC90E09D838C838C819D81019705
:10263000F1F79D838C838E819F8101979F838E8389
:102640008E819F81009769F724C0688579858A8586
:102650009B850E944100DC01CB019F838E838E818C
:102660009F819B838A838A819B810197F1F79B835A
:102670008A830FC069897A898B899C890E9441006D
:10268000DC01CB01888B8889898389818A95F1F760
:10269000898389A9E2960FB6F894DEBF0FBECDBF3D
:1026A000CF91DF910895DF93CF93CDB7DEB7E29757
:1026B0000FB6F894DEBF0FBECDBF8AAB19AA80E07B
:1026C00060E041E00E94600880E061E040E00E943C
:1026D000600883E06AA90E94430B80E062E041E069
:1026E0000E94600880E090E0A0E8BFE38DA79EA76D
:1026F000AFA7B8AB6DA57EA58FA598A92BEA3AEA3E
:102700004AE250E40E941702DC01CB0189A79AA794
:10271000ABA7BCA769A57AA58BA59CA520E030E056
:1027200040E85FE30E941D0488231CF481E088A731
:1027300091C069A57AA58BA59CA520E030E04FE764
:1027400053E40E94BD0318160CF07BC06DA57EA556
:102750008FA598A920E030E04AE754E40E941103D5
:10276000DC01CB018CA39DA3AEA3BFA36CA17DA173
:102770008EA19FA120E030E04AEF54E40E941702AE
:10278000DC01CB0188A399A3AAA3BBA368A179A16B
:102790008AA19BA120E030E040E85FE30E941D0495
:1027A00088232CF481E090E09F8F8E8F3FC068A13A
:1027B00079A18AA19BA120E03FEF4FE757E40E9457
:1027C000BD0318164CF56CA17DA18EA19FA120E040
:1027D00030E040E251E40E941702DC01CB01BC0171
:1027E000CD010E944100DC01CB019F8F8E8F0FC075
:1027F00088EC90E09D8F8C8F8C8D9D8D0197F1F7EB
:102800009D8F8C8F8E8D9F8D01979F8F8E8F8E8D3C
:102810009F8D009769F724C068A179A18AA19BA127
:102820000E944100DC01CB019F8F8E8F8E8D9F8D8A
:102830009B8F8A8F8A8D9B8D0197F1F79B8F8A8F53
:102840000FC069A57AA58BA59CA50E944100DC015B
:10285000CB0188A788A5898F898D8A95F1F7898F03
:1028600080E062E040E00E94600880E090E0A0E844
:10287000BFE38D8B9E8BAF8BB88F6D897E898F89DF
:10288000988D2BEA3AEA4AE250E40E941702DC01F2
:10289000CB01898B9A8BAB8BBC8B69897A898B89AD
:1028A0009C8920E030E040E85FE30E941D0488231B
:1028B0001CF481E0888B91C069897A898B899C8915
:1028C00020E030E04FE753E40E94BD0318160CF0FF
:1028D0007BC06D897E898F89988D20E030E04AE742
:1028E00054E40E941103DC01CB018C879D87AE87E5
:1028F000BF876C857D858E859F8520E030E04AEF1F
:1029000054E40E941702DC01CB0188879987AA87CB
:10291000BB87688579858A859B8520E030E040E823
:102920005FE30E941D0488232CF481E090E09F83E4
:102930008E833FC0688579858A859B8520E03FEF3F
:102940004FE757E40E94BD0318164CF56C857D8552
:102950008E859F8520E030E040E251E40E9417021E
:10296000DC01CB01BC01CD010E944100DC01CB01A7
:102970009F838E830FC088EC90E09D838C838C8135
:102980009D810197F1F79D838C838E819F810197B3
:102990009F838E838E819F81009769F724C068850D
:1029A00079858A859B850E944100DC01CB019F834C
:1029B0008E838E819F819B838A838A819B810197ED
:1029C000F1F79B838A830FC069897A898B899C89F7
:1029D0000E944100DC01CB01888B88898983898131
:1029E0008A95F1F7898389A9E2960FB6F894DEBF3C
:1029F0000FBECDBFCF91DF910895DF93CF9300D06D
:102A000000D00F92CDB7DEB79C838B831A821982D8
:102A10008B819C810097F1F019820EC08981282F4B
:102A200030E08B819C81FC01E20FF31F80810E94CA
:102A3000531389818F5F89838981282F30E08B81AF
:102A40009C81FC01E20FF31F8081882339F78A8182
:102A50008D8304C081E08A838A818D838D810F906C
:102A60000F900F900F900F90CF91DF910895DF930B
:102A7000CF9300D000D000D0CDB7DEB78A836B8370
:102A800019828A818230F0F48B818832D8F48A816D
:102A9000282F30E03E832D838D819E81009731F079
:102AA0002D813E812130310531F009C08B81805864
:102AB0000E94A91104C08B8180540E94A911398100
:102AC0003C8304C081E0898389818C838C81269634
:102AD0000FB6F894DEBF0FBECDBFCF91DF91089542
:102AE000DF93CF93CDB7DEB72E970FB6F894DEBF46
:102AF0000FBECDBF81E00E94A91180E090E0A0E070
:102B0000B0E48B879C87AD87BE876B857C858D8580
:102B10009E8520E030E04AEF54E40E941702DC0179
:102B2000CB018F839887A987BA876F81788589853C
:102B30009A8520E030E040E85FE30E941D0488238E
:102B40002CF481E090E09E838D833FC06F81788577
:102B500089859A8520E03FEF4FE757E40E94BD0347
:102B600018164CF56B857C858D859E8520E030E0C0
:102B700040E251E40E941702DC01CB01BC01CD010F
:102B80000E944100DC01CB019E838D830FC088EC45
:102B900090E09C838B838B819C810197F1F79C83D0
:102BA0008B838D819E8101979E838D838D819E81F4
:102BB000009769F714C06F81788589859A850E948E
:102BC0004100DC01CB019E838D838D819E819A83A0
:102BD000898389819A810197F1F79A8389832E9657
:102BE0000FB6F894DEBF0FBECDBFCF91DF91089531
:102BF000DF93CF93CDB7DEB72D970FB6F894DEBF36
:102C00000FBECDBF688779878A879B871F821E8208
:102C10001D8219821A821B821C8240C089819A817E
:102C2000AB81BC812AE030E040E050E0BC01CD0146
:102C30000E94EC19DC01CB0189839A83AB83BC83AE
:102C400088859985AA85BB852AE030E040E050E080
:102C5000BC01CD010E940B1ADC01CB019C01AD012E
:102C600089819A81AB81BC81820F931FA41FB51FFC
:102C700089839A83AB83BC8388859985AA85BB8524
:102C80002AE030E040E050E0BC01CD010E940B1A88
:102C9000DA01C90188879987AA87BB8788859985C2
:102CA000AA85BB850097A105B10509F0B7CF1D82A4
:102CB00095C089819A81AB81BC812AE030E040E0F7
:102CC00050E0BC01CD010E940B1ADC01CB018E83C8
:102CD00089819A81AB81BC812AE030E040E050E0FC
:102CE000BC01CD010E940B1ADA01C90189839A83C4
:102CF000AB83BC838E81282F30E03D872C878C8569
:102D00009D858430910509F44FC02C853D85253083
:102D10003105D4F48C859D8581309105C9F12C85D0
:102D20003D85223031052CF48C859D85009761F11D
:102D300052C02C853D852230310571F18C859D85F1
:102D40008330910569F147C02C853D8527303105D9
:102D5000B9F18C859D85883091055CF42C853D8585
:102D60002530310529F18C859D858630910521F12D
:102D700032C02C853D852830310531F18C859D850B
:102D80008930910529F127C080E30E94531323C0A5
:102D900081E30E9453131FC082E30E9453131BC0A0
:102DA00083E30E94531317C084E30E94531313C09C
:102DB00085E30E9453130FC086E30E9453130BC098
:102DC00087E30E94531307C088E30E94531303C094
:102DD00089E30E9453138D818F5F8D8389819A814E
:102DE000AB81BC810097A105B10509F062CF8F814D
:102DF0002D960FB6F894DEBF0FBECDBFCF91DF91F9
:102E00000895DF93CF93CDB7DEB727970FB6F89429
:102E1000DEBF0FBECDBF8B836C834D831A821982B8
:102E20008B81893008F00BC18D81883208F007C191
:102E30008B81282F30E03F832E838E819F818430C9
:102E4000910509F47BC02E813F812530310594F432
:102E50008E819F818230910509F43EC02E813F8191
:102E6000233031050CF051C08E819F818130910556
:102E7000D1F0E0C02E813F812630310509F490C0A9
:102E80008E819F81863091050CF471C02E813F8127
:102E90002730310509F49DC08E819F8188309105CE
:102EA00009F4B0C0C7C080E40E94A911198210C003
:102EB0002091C0013091C1018981882F90E0F901F2
:102EC000E80FF91F80810E94531389818F5F8983E6
:102ED0008981883068F3AEC088E40E94A911198204
:102EE00010C02091C2013091C3018981882F90E0E8
:102EF000F901E80FF91F80810E94531389818F5FC8
:102F000089838981883068F395C080E50E94A91182
:102F1000198210C02091C4013091C5018981882F88
:102F200090E0F901E80FF91F80810E945313898115
:102F30008F5F89838981883068F37CC088E50E942F
:102F4000A911198210C02091C6013091C701898151
:102F5000882F90E0F901E80FF91F80810E94531338
:102F600089818F5F89838981883068F363C080E6B7
:102F70000E94A911198210C02091C8013091C90185
:102F80008981882F90E0F901E80FF91F80810E9464
:102F9000531389818F5F89838981883068F34AC0A0
:102FA00088E60E94A911198210C02091CA013091AF
:102FB000CB018981882F90E0F901E80FF91F80810A
:102FC0000E94531389818F5F89838981883068F3D8
:102FD00031C080E70E94A911198210C02091CC0154
:102FE0003091CD018981882F90E0F901E80FF91F18
:102FF00080810E94531389818F5F89838981883002
:1030000068F318C088E70E94A911198210C02091A6
:10301000CE013091CF018981882F90E0F901E80F2E
:10302000F91F80810E94531389818F5F8983898171
:10303000883068F38C816D810E94371502C081E071
:103040008A838A8127960FB6F894DEBF0FBECDBF64
:10305000CF91DF910895DF93CF93CDB7DEB764971B
:103060000FB6F894DEBF0FBECDBF888B498B5A8B4D
:103070006B8B7C8B1F867CC08CE10E94A9116989B7
:103080007A898B899C890E94A104DC01CB018B8702
:103090009C87AD87BE876B857C858D859E8520E06E
:1030A00030E04AEF54E40E941702DC01CB018F8329
:1030B0009887A987BA876F81788589859A8520E066
:1030C00030E040E85FE30E941D0488232CF481E097
:1030D00090E09E838D833FC06F81788589859A8536
:1030E00020E03FEF4FE757E40E94BD0318164CF570
:1030F0006B857C858D859E8520E030E040E251E443
:103100000E941702DC01CB01BC01CD010E944100ED
:10311000DC01CB019E838D830FC088EC90E09C8303
:103120008B838B819C810197F1F79C838B838D81AD
:103130009E8101979E838D838D819E81009769F783
:1031400014C06F81788589859A850E944100DC01D1
:10315000CB019E838D838D819E819A838983898112
:103160009A810197F1F79A8389838F858F5F8F8783
:103170009F858889981708F47FCF64960FB6F894D6
:10318000DEBF0FBECDBFCF91DF910895DF93CF9308
:1031900000D000D00F92CDB7DEB76A837B838C83DB
:1031A0009D83198289810F900F900F900F900F903F
:1031B000CF91DF910895DF93CF93CDB7DEB76497BA
:1031C0000FB6F894DEBF0FBECDBF888B498B5A8BEC
:1031D0006B8B7C8B1F867CC088E10E94A91169895A
:1031E0007A898B899C890E94A104DC01CB018B87A1
:1031F0009C87AD87BE876B857C858D859E8520E00D
:1032000030E04AEF54E40E941702DC01CB018F83C7
:103210009887A987BA876F81788589859A8520E004
:1032200030E040E85FE30E941D0488232CF481E035
:1032300090E09E838D833FC06F81788589859A85D4
:1032400020E03FEF4FE757E40E94BD0318164CF50E
:103250006B857C858D859E8520E030E040E251E4E1
:103260000E941702DC01CB01BC01CD010E9441008C
:10327000DC01CB019E838D830FC088EC90E09C83A2
:103280008B838B819C810197F1F79C838B838D814C
:103290009E8101979E838D838D819E81009769F722
:1032A00014C06F81788589859A850E944100DC0170
:1032B000CB019E838D838D819E819A8389838981B1
:1032C0009A810197F1F79A8389838F858F5F8F8722
:1032D0009F858889981708F47FCF64960FB6F89475
:1032E000DEBF0FBECDBFCF91DF910895DF93CF93A7
:1032F00000D000D0CDB7DEB78A8319828A818930A9
:1033000008F054C08A81282F30E03C832B838B81C6
:103310009C8184309105B1F12B813C8125303105B0
:1033200084F48B819C818230910521F12B813C8139
:10333000233031051CF58B819C8181309105B1F0E2
:1033400037C02B813C812630310521F18B819C8156
:1033500086309105DCF02B813C8127303105F1F07E
:103360008B819C8188309105E9F022C080E00E9429
:1033700053131EC081E00E9453131AC082E00E94C2
:10338000531316C083E00E94531312C084E00E94BE
:1033900053130EC085E00E9453130AC086E00E94BA
:1033A000531306C087E00E94531302C081E0898353
:1033B00089810F900F900F900F90CF91DF9108951A
:1033C000DF93CF93CDB7DEB70E940F070E94E60EC2
:1033D00081E40E945313FFCF629FD001739FF001DD
:1033E000829FE00DF11D649FE00DF11D929FF00D95
:1033F000839FF00D749FF00D659FF00D9927729FCC
:10340000B00DE11DF91F639FB00DE11DF91FBD0156
:10341000CF0111240895A1E21A2EAA1BBB1BFD01A6
:103420000DC0AA1FBB1FEE1FFF1FA217B307E407A3
:10343000F50720F0A21BB30BE40BF50B661F771FFB
:10344000881F991F1A9469F76095709580959095DB
:103450009B01AC01BD01CF0108952F923F924F9285
:103460005F926F927F928F929F92AF92BF92CF9214
:10347000DF92EF92FF920F931F93CF93DF93CDB71D
:10348000DEB7CA1BDB0B0FB6F894DEBF0FBECDBF95
:1034900009942A88398848885F846E847D848C8466
:1034A0009B84AA84B984C884DF80EE80FD800C816F
:1034B0001B81AA81B981CE0FD11D0FB6F894DEBF52
:0C34C0000FBECDBFED010895F894FFCFC2
:1034CC0000000000000000000001020203030303DF
:1034DC000404040404040404050505050505050598
:1034EC000505050505050505060606060606060678
:1034FC000606060606060606060606060606060660
:10350C000606060606060606070707070707070747
:10351C00070707070707070707070707070707072F
:10352C00070707070707070707070707070707071F
:10353C00070707070707070707070707070707070F
:10354C0007070707070707070808080808080808F7
:10355C0008080808080808080808080808080808DF
:10356C0008080808080808080808080808080808CF
:10357C0008080808080808080808080808080808BF
:10358C0008080808080808080808080808080808AF
:10359C00080808080808080808080808080808089F
:1035AC00080808080808080808080808080808088F
:1035BC00080808080808080808080808080808087F
:1035CC000808080808080808030201000706050493
:1035DC0053205520434C44525220202020202020A0
:1035EC000E0E041F040E0A0A0E0E041F040E090907
:1035FC000000000000001818030509111111111129
:10360C0000000000060600000E0E150E040E1B0036
:10361C000E0E141F051C14140E0E051F14070505A1
:10362C008001880190019801A001A801B001B801A6
:02363C0000008C
:00000001FF
