:100000000C942A000C9434000C9434000C943400AA
:100010000C9434000C9434000C9434000C94340090
:100020000C9434000C9434000C9434000C94340080
:100030000C9434000C9434000C9434000C94340070
:100040000C9434000C9434000C9434000C94340060
:100050000C94340011241FBECFE5D8E0DEBFCDBF25
:100060000E9436000C9454000C940000DF93CF9350
:10007000CDB7DEB7EAE3F0E081E08083E7E3F0E0CC
:100080001082E6E3F0E08081882329F4EBE3F0E0DE
:1000900081E08083F6CFE6E3F0E08081882389F376
:0C00A000EBE3F0E01082EDCFF894FFCF0E
:00000001FF
