:100000000C942A000C943F000C943F000C943F0089
:100010000C943F000C943F000C943F000C943F0064
:100020000C943F000C943F000C943F000C943F0054
:100030000C943F000C943F000C943F000C943F0044
:100040000C943F000C943F000C943F000C943F0034
:100050000C943F0011241FBECFE5D8E0DEBFCDBF1A
:1000600010E0A0E6B0E0EEE7FCE002C005900D92E3
:10007000A836B107D9F70E941A060C943D060C94D5
:100080000000DF93CF93CDB7DEB7EAE3F0E081E085
:100090008083E7E3F0E01082E4E3F0E01082E1E344
:1000A000F0E082E08083EBE3F0E01082E8E3F0E050
:1000B0001082E5E3F0E01082E2E3F0E01082CF91FD
:1000C000DF910895DF93CF93CDB7DEB72F970FB6AB
:1000D000F894DEBF0FBECDBF8A836B834C83198239
:1000E0008A81843008F00EC18B81883008F00AC103
:1000F0008C81813021F08C81882309F003C18A81B1
:10010000282F30E03F872E878E859F85813091058F
:1001100009F44FC02E853F85223031052CF48E85A1
:100120009F85009771F0EBC02E853F852230310509
:1001300009F477C08E859F858330910509F4A9C0A5
:10014000DEC08C81282F30E03D872C878C859D85F3
:100150000097D1F02C853D852130310509F0CFC0C5
:10016000AAE3B0E0EAE3F0E08081482F8B81282FFA
:1001700030E081E090E0022E02C0880F991F0A94BF
:10018000E2F7842B8C93BBC0AAE3B0E0EAE3F0E093
:100190008081482F8B81282F30E081E090E0022E73
:1001A00002C0880F991F0A94E2F7809584238C93EC
:1001B000A6C08C81282F30E03B872A878A859B85C3
:1001C0000097D1F02A853B852130310509F097C091
:1001D000A7E3B0E0E7E3F0E08081482F8B81282F90
:1001E00030E081E090E0022E02C0880F991F0A944F
:1001F000E2F7842B8C9383C0A7E3B0E0E7E3F0E061
:100200008081482F8B81282F30E081E090E0022E02
:1002100002C0880F991F0A94E2F7809584238C937B
:100220006EC08C81282F30E0398728878885998592
:100230000097D1F0288539852130310509F05FC05C
:10024000A4E3B0E0E4E3F0E08081482F8B81282F25
:1002500030E081E090E0022E02C0880F991F0A94DE
:10026000E2F7842B8C934BC0A4E3B0E0E4E3F0E02E
:100270008081482F8B81282F30E081E090E0022E92
:1002800002C0880F991F0A94E2F7809584238C930B
:1002900036C08C81282F30E03F832E838E819F8152
:1002A0000097C9F02E813F812130310541F5A1E34E
:1002B000B0E0E1E3F0E08081482F8B81282F30E02F
:1002C00081E090E0022E02C0880F991F0A94E2F7A5
:1002D000842B8C9314C0A1E3B0E0E1E3F0E08081D3
:1002E000482F8B81282F30E081E090E0022E02C061
:1002F000880F991F0A94E2F7809584238C933981A3
:100300003D8304C081E0898389818D838D812F960F
:100310000FB6F894DEBF0FBECDBFCF91DF91089529
:10032000DF93CF93CDB7DEB72F970FB6F894DEBF2C
:100330000FBECDBF8A836B834C8319828A81843040
:1003400008F00EC18B81883008F00AC18C818130A1
:1003500021F08C81882309F003C18A81282F30E0A5
:100360003F872E878E859F858130910509F44FC088
:100370002E853F85223031052CF48E859F85009790
:1003800071F0EBC02E853F852230310509F477C02E
:100390008E859F858330910509F4A9C0DEC08C81CC
:1003A000282F30E03D872C878C859D850097D1F0E4
:1003B0002C853D852130310509F0CFC0ABE3B0E09D
:1003C000EBE3F0E08081482F8B81282F30E081E043
:1003D00090E0022E02C0880F991F0A94E2F7842B46
:1003E0008C93BBC0ABE3B0E0EBE3F0E08081482F3F
:1003F0008B81282F30E081E090E0022E02C0880F30
:10040000991F0A94E2F7809584238C93A6C08C816F
:10041000282F30E03B872A878A859B850097D1F07B
:100420002A853B852130310509F097C0A8E3B0E06B
:10043000E8E3F0E08081482F8B81282F30E081E0D5
:1004400090E0022E02C0880F991F0A94E2F7842BD5
:100450008C9383C0A8E3B0E0E8E3F0E08081482F0C
:100460008B81282F30E081E090E0022E02C0880FBF
:10047000991F0A94E2F7809584238C936EC08C8137
:10048000282F30E039872887888599850097D1F013
:10049000288539852130310509F05FC0A5E3B0E03A
:1004A000E5E3F0E08081482F8B81282F30E081E068
:1004B00090E0022E02C0880F991F0A94E2F7842B65
:1004C0008C934BC0A5E3B0E0E5E3F0E08081482FDA
:1004D0008B81282F30E081E090E0022E02C0880F4F
:1004E000991F0A94E2F7809584238C9336C08C81FF
:1004F000282F30E03F832E838E819F810097C9F0A3
:100500002E813F812130310541F5A2E3B0E0E2E3E5
:10051000F0E08081482F8B81282F30E081E090E04F
:10052000022E02C0880F991F0A94E2F7842B8C9345
:1005300014C0A2E3B0E0E2E3F0E08081482F8B81B9
:10054000282F30E081E090E0022E02C0880F991F32
:100550000A94E2F7809584238C9339813D8304C00B
:1005600081E0898389818D838D812F960FB6F894E0
:10057000DEBF0FBECDBFCF91DF910895DF93CF9344
:10058000CDB7DEB728970FB6F894DEBF0FBECDBF4C
:100590008A836B835D834C8319828A81843008F05F
:1005A000ECC08B81883008F0E8C08C819D81009779
:1005B00009F4E3C08A81282F30E038872F834F81E8
:1005C00058854130510509F448C08F8198858230A3
:1005D000910534F42F8138852115310571F0CAC099
:1005E0004F8158854230510509F467C08F81988545
:1005F0008330910509F490C0BDC0E9E3F0E080814B
:10060000282F30E08B81882F90E0A90102C05595FA
:1006100047958A95E2F7CA0181709070009721F49E
:10062000EC81FD811082A6C0E9E3F0E08081282FF3
:1006300030E08B81882F90E0A90102C05595479545
:100640008A95E2F7CA0181709070882309F492C0FC
:10065000EC81FD8181E080838DC0E6E3F0E0808164
:10066000282F30E08B81882F90E0A90102C055959A
:1006700047958A95E2F7CA0181709070009721F43E
:10068000EC81FD81108276C0E6E3F0E08081282FC6
:1006900030E08B81882F90E0A90102C055954795E5
:1006A0008A95E2F7CA0181709070882309F462C0CC
:1006B000EC81FD8181E080835DC0E3E3F0E0808137
:1006C000282F30E08B81882F90E0A90102C055953A
:1006D00047958A95E2F7CA0181709070009721F4DE
:1006E000EC81FD81108246C0E3E3F0E08081282F99
:1006F00030E08B81882F90E0A90102C05595479585
:100700008A95E2F7CA0181709070882399F1EC8193
:10071000FD8181E080832EC0E0E3F0E08081282F1E
:1007200030E08B81882F90E0A90102C05595479554
:100730008A95E2F7CA0181709070009721F4EC81EC
:10074000FD81108217C0E0E3F0E08081282F30E0C7
:100750008B81882F90E0A90102C0559547958A9515
:10076000E2F7CA0181709070882321F0EC81FD814D
:1007700081E0808359815E8304C081E0898389811F
:100780008E838E8128960FB6F894DEBF0FBECDBF44
:10079000CF91DF910895DF93CF93CDB7DEB72E973A
:1007A0000FB6F894DEBF0FBECDBF8A836B8319826C
:1007B0008A81843008F089C08B81813021F08B815F
:1007C000882309F082C08A81282F30E03E872D8758
:1007D0008D859E858130910571F12D853E85223074
:1007E00031052CF48D859E85009769F06BC02D85B1
:1007F0003E8522303105B9F18D859E858330910586
:1008000009F449C05FC08B81282F30E03C872B87DB
:100810008B859C85009731F02B853C8521303105F7
:1008200029F050C0EBE3F0E010824CC0EBE3F0E0C5
:100830008FEF808347C08B81282F30E03A8729874C
:1008400089859A85009731F029853A8521303105CF
:1008500029F038C0E8E3F0E0108234C0E8E3F0E0CB
:100860008FEF80832FC08B81282F30E038872F8334
:100870008F819885009731F02F813885213031059F
:1008800029F020C0E5E3F0E010821CC0E5E3F0E0D1
:100890008FEF808317C08B81282F30E03E832D831C
:1008A0008D819E81009731F02D813E81213031056F
:1008B00029F008C0E2E3F0E0108204C0E2E3F0E0D7
:1008C0008FEF808339813C8304C081E089838981F3
:1008D0008C838C812E960FB6F894DEBF0FBECDBFF1
:1008E000CF91DF910895DF93CF9300D000D000D057
:1008F000CDB7DEB78A836B8319828A818430A8F5ED
:100900008A81282F30E03E832D838D819E81813026
:100910009105D1F02D813E81223031052CF48D815D
:100920009E81009761F01EC02D813E8122303105ED
:1009300081F08D819E818330910581F013C0EBE3BE
:10094000F0E08B8180830EC0E8E3F0E08B81808350
:1009500009C0E5E3F0E08B81808304C0E2E3F0E0CE
:100960008B81808399819C8304C081E08983298164
:100970002C838C8126960FB6F894DEBF0FBECDBFB8
:10098000CF91DF910895DF93CF93CDB7DEB727974F
:100990000FB6F894DEBF0FBECDBF8A837C836B8316
:1009A00019828B819C810097E9F18A81282F30E0A0
:1009B0003F832E838E819F8181309105E1F02E81CE
:1009C0003F81223031052CF48E819F81009761F0A8
:1009D00026C02E813F8122303105A1F08E819F817A
:1009E00083309105B1F01BC0E9E3F0E08081EB8139
:1009F000FC81808314C0E6E3F0E08081EB81FC8120
:100A000080830DC0E3E3F0E08081EB81FC81808393
:100A100006C0E0E3F0E08081EB81FC818083998176
:100A20009D8304C081E0898329812D838D81279650
:100A30000FB6F894DEBF0FBECDBFCF91DF91089502
:100A4000DF93CF9300D00F92CDB7DEB780E88B83D2
:100A500083E390E09A838983E9E2F0E089818083EF
:100A6000E0E4F0E089819A81892F99278083AAE2C6
:100A7000B0E0EAE2F0E0808188608C93AAE2B0E026
:100A8000EAE2F0E0808180618C93AAE2B0E0EAE2E1
:100A9000F0E080818B7F8C938B8184608B838B8152
:100AA00082608B838B818F7B8B838B818F7D8B830C
:100AB0008B818F7E8B838B8188608B83E0E4F0E079
:100AC0008B8180830F900F900F90CF91DF910895CD
:100AD000DF93CF930F92CDB7DEB78983EBE2F0E0DF
:100AE0008081829586958770882F90E081709070C4
:100AF0000097A1F3ECE2F0E0898180830F90CF9121
:100B0000DF910895DF93CF9300D00F92CDB7DEB77A
:100B10009B838A8319828A819B81009761F0EBE233
:100B2000F0E080818823DCF7ECE2F0E08081EA816C
:100B3000FB81808302C081E0898389810F900F90BF
:100B40000F90CF91DF910895DF93CF9300D000D025
:100B5000CDB7DEB79C838B8381E08A8319820FC077
:100B60008981282F30E08B819C81FC01E20FF31FEB
:100B700080810E94680589818F5F89831A828981BB
:100B8000282F30E08B819C81FC01E20FF31F8081D4
:100B9000882331F78A810F900F900F900F90CF919B
:100BA000DF910895DF93CF9300D000D0CDB7DEB7AB
:100BB0009C838B8381E08A83198211C08981282FCD
:100BC00030E08B819C81FC01E20FF31F8081882F34
:100BD00090E00E94820589818F5F89831A828981D2
:100BE000282F30E08B819C81FC01E20FF31F808174
:100BF000882321F78A810F900F900F900F90CF914B
:100C0000DF910895DF93CF9300D0CDB7DEB79A83FD
:100C100089830F900F90CF91DF910895DF93CF9349
:100C200000D0CDB7DEB79A8389830F900F90CF9114
:100C3000DF910895DF93CF930F92CDB7DEB70E9477
:100C400041000E942005CE0101960E948205898103
:100C5000813651F480E060E041E00E94900180E63E
:100C600090E00E94A405EFCF8981823661F780E091
:0E0C700060E040E00E949001E6CFF894FFCFD4
:080C7E00454C41424241530084
:00000001FF
