:100000000C942A000C9447000C9447000C94470071
:100010000C9447000C9447000C9447000C94470044
:100020000C9447000C9447000C94CA0A0C946D0A77
:100030000C9447000C9447000C9447000C94470024
:100040000C9447000C9447000C9447000C94470014
:100050000C94470011241FBECFE5D8E0DEBFCDBF12
:1000600010E0A8E6B0E001C01D92A637B107E1F7A5
:1000700010E0A0E6B0E0E6E6F9E102C005900D92DE
:10008000A836B107D9F70E94E90B0C94B10C0C9477
:100090000000EF92FF920F931F937B018C0120E0F1
:1000A00030E040E05FE40E941F0288238CF0C8012A
:1000B000B70120E030E040E05FE40E94C1010E940F
:1000C0004F029B01AC01205030404040504806C0D8
:1000D000C801B7010E944F029B01AC01B901CA01DE
:1000E0001F910F91FF90EF900895A0E0B0E0EBE733
:1000F000F0E00C947A0CDC012B01FA019C91923017
:1001000008F439C1EB018881823008F433C194309E
:1001100069F4843009F02FC111969C91119789815F
:10012000981709F428C1A0E6B0E025C1843009F48D
:1001300021C18230A9F4923009F01DC19A01AD01AC
:1001400088E0EA010990AE01E90109929E0181501F
:10015000C1F7E201898111969C918923818308C1AD
:10016000923009F407C112962D903C901397EB0141
:100170008A819B811496AD90BD90CD90DC901797AD
:10018000EC80FD800E811F819101281B390BB90184
:1001900037FF04C066277727621B730B6032710537
:1001A0000CF061C0121613066CF537014801062EDB
:1001B00004C096948794779467940A94D2F721E0C8
:1001C00030E040E050E004C0220F331F441F551FB1
:1001D0006A95D2F721503040404050402E213F21B7
:1001E00040235123211531054105510521F021E01E
:1001F00030E040E050E079018A01E628F72808293C
:1002000019293CC0232BD1F1260E371E350146019A
:10021000062E04C096948794779467940A94D2F734
:1002200021E030E040E050E004C0220F331F441FC3
:10023000551F6A95D2F721503040404050402A2146
:100240003B214C215D21211531054105510521F04E
:1002500021E030E040E050E059016A01A628B728CB
:10026000C828D9280BC0821593052CF01C01AA249C
:10027000BB24650103C0EE24FF24870111969C91E5
:10028000D20111968C91981709F445C0992339F041
:10029000A80197012A193B094C095D0906C0A6016E
:1002A00095012E193F09400B510B57FD08C01182D3
:1002B0003382228224833583468357831DC081E0A5
:1002C00081833382228288279927DC01821B930B4A
:1002D000A40BB50B84839583A683B7830DC0220F2F
:1002E000331F441F551F24833583468357838281E0
:1002F000938101979383828324813581468157813D
:10030000DA01C9010197A109B1098F5F9F4FAF4F72
:10031000BF4328F30BC0918333822282EA0CFB1C7B
:100320000C1D1D1DE482F5820683178383E0808304
:10033000248135814681578157FF1AC0C901AA27F8
:1003400097FDA095BA2F81709070A070B0705695EF
:10035000479537952795822B932BA42BB52B848318
:100360009583A683B7838281938101969383828349
:10037000DF0101C0D201CD01CDB7DEB7E2E10C94BF
:10038000960CA0E2B0E0E7ECF1E00C94860C6983F7
:100390007A838B839C832D833E834F835887E9E048
:1003A000EE2EF12CEC0EFD1ECE010196B7010E943F
:1003B00078038E010F5E1F4FCE010596B8010E9493
:1003C00078038A8991E089278A8BC701B801AE0139
:1003D000475E5F4F0E9475000E94A302A096E6E070
:1003E0000C94A20CA0E2B0E0E8EFF1E00C94860CD3
:1003F00069837A838B839C832D833E834F835887C5
:10040000F9E0EF2EF12CEC0EFD1ECE010196B701A6
:100410000E9478038E010F5E1F4FCE010596B80132
:100420000E947803C701B801AE01475E5F4F0E948A
:1004300075000E94A302A096E6E00C94A20CA8E12D
:10044000B0E0E5E2F2E00C94860C69837A838B835A
:100450009C832D833E834F83588789E0E82EF12CBF
:10046000EC0EFD1ECE010196B7010E9478038E01AD
:100470000F5E1F4FCE010596B8010E947803898553
:10048000823040F08989823028F0C701B8010E948B
:10049000F00301C08FEF6896E6E00C94A20CACE08C
:1004A000B0E0E5E5F2E00C948A0C69837A838B83F3
:1004B0009C83CE010196BE016B5F7F4F0E94780343
:1004C0008D81823061F1823050F1843021F48E814F
:1004D000882351F12EC02F81388537FD20C06E81D1
:1004E0002F3131051CF06623F9F023C08EE190E036
:1004F000821B930B29853A854B855C8504C05695F4
:100500004795379527958A95D2F76623B1F0509590
:100510004095309521953F4F4F4F5F4F0EC020E0E3
:1005200030E040E050E009C02FEF3FEF4FEF5FE7D2
:1005300004C020E030E040E050E8B901CA012C9648
:10054000E2E00C94A60CDF92EF92FF920F931F93C0
:10055000FC01E480F58006811781D18080818230A2
:1005600048F480E090E0A0E1B0E0E82AF92A0A2B04
:100570001B2BA5C0843009F49FC0823021F4EE24E7
:10058000FF24870105C0E114F1040105110519F4E8
:10059000E0E0F0E096C0628173819FEF62387907F6
:1005A0000CF05BC022E83FEF261B370B2A313105E8
:1005B0002CF020E030E040E050E02AC0B801A70174
:1005C000022E04C076956795579547950A94D2F701
:1005D00081E090E0A0E0B0E004C0880F991FAA1F5E
:1005E000BB1F2A95D2F70197A109B1098E219F213E
:1005F000A023B1230097A105B10521F081E090E08F
:10060000A0E0B0E09A01AB01282B392B4A2B5B2BE1
:10061000DA01C9018F779070A070B07080349105B5
:10062000A105B10539F427FF09C0205C3F4F4F4FAA
:100630005F4F04C0215C3F4F4F4F5F4FE0E0F0E061
:100640002030A0E03A07A0E04A07A0E45A0710F0E3
:10065000E1E0F0E079018A0127C06038710564F5B6
:10066000FB01E158FF4FD801C7018F779070A07050
:10067000B07080349105A105B10539F4E7FE0DC0D5
:1006800080E490E0A0E0B0E004C08FE390E0A0E060
:10069000B0E0E80EF91E0A1F1B1F17FF05C01695D4
:1006A0000795F794E794319687E016950795F794A8
:1006B000E7948A95D1F705C0EE24FF248701EFEF78
:1006C000F0E06E2F679566276795902F9F77D794F8
:1006D000DD24D7948E2F8695492F462B582F5D29E0
:1006E000B701CA011F910F91FF90EF90DF9008951D
:1006F000FC01DB01408151812281622F6F7770E024
:10070000221F2227221F9381892F880F822B282FB7
:1007100030E0991F9927991F11969C9311972115E5
:100720003105A9F5411551056105710511F482E006
:1007300037C082E89FEF13969C938E9312979A018D
:10074000AB0167E0220F331F441F551F6A95D1F795
:1007500083E08C930DC0220F331F441F551F129648
:100760008D919C911397019713969C938E9312975A
:10077000203080E0380780E0480780E4580758F3CD
:1007800014962D933D934D935C93179708952F3FA7
:10079000310579F4411551056105710519F484E0BD
:1007A0008C93089564FF03C081E08C9312C01C9267
:1007B00010C02F57304013963C932E93129783E02E
:1007C0008C9387E0440F551F661F771F8A95D1F7DA
:1007D000706414964D935D936D937C931797089571
:1007E0001F93DC01FB019C91923008F447C080818B
:1007F000823008F443C0943051F411961C91843037
:1008000099F58181682F70E0611B71093FC08430C8
:1008100021F0923031F48230B9F18181882389F15D
:100820002DC011961C9111978230F1F0818118171B
:10083000D9F412962D913C9113978281938182175E
:10084000930794F028173907BCF014968D919D9169
:100850000D90BC91A02D24813581468157812817A8
:1008600039074A075B0718F4112341F00AC08217C1
:100870009307A407B50740F4112319F061E070E075
:1008800005C06FEF7FEF02C060E070E0CB011F9109
:100890000895DF93CF93CDB7DEB7A6E2B0E0E6E2EE
:1008A000F0E080818F778C93CF91DF910895DF9373
:1008B000CF93CDB7DEB7A7E2B0E0E7E2F0E080810A
:1008C00080648C93A7E2B0E0E7E2F0E080818F7D66
:1008D0008C93A6E2B0E0E6E2F0E080818F7D8C931D
:1008E000A6E2B0E0E6E2F0E0808184608C93A6E2CC
:1008F000B0E0E6E2F0E0808182608C93A6E2B0E0B6
:10090000E6E2F0E080818E7F8C93A6E2B0E0E6E242
:10091000F0E0808180688C93CF91DF910895DF9320
:10092000CF93CDB7DEB728970FB6F894DEBF0FBED2
:10093000CDBF8E8378876F831D8219821A821B82B6
:100940001C828E81803208F068C08F819885009764
:1009500009F463C0A7E2B0E0E7E2F0E08081807EC6
:100960008C93A7E2B0E0E7E2F0E090818E81892BE2
:100970008C93A6E2B0E0E6E2F0E0808180648C93A4
:100980000BC089819A81AB81BC810196A11DB11DEB
:1009900089839A83AB83BC83E6E2F0E08081829511
:1009A0008F70882F90E081709070009761F489813A
:1009B0009A81AB81BC81803523EC920720E0A207AD
:1009C00020E0B207F0F289819A81AB81BC81803549
:1009D00023EC920720E0A20720E0B20758F4E6E2F9
:1009E000F0E0808182958F70882F90E08170907008
:1009F000009719F481E08D8312C0E4E2F0E0808179
:100A00009181EF81F88591838083A6E2B0E0E6E2F0
:100A1000F0E0808180618C9302C081E08D838D81C4
:100A200028960FB6F894DEBF0FBECDBFCF91DF91F1
:100A30000895DF93CF93CDB7DEB7EAE3F0E08EEF12
:100A40008083E7E3F0E08CE08083E4E3F0E0108271
:100A5000E1E3F0E08FEF8083EBE3F0E01082E8E386
:100A6000F0E01082E5E3F0E01082E2E3F0E01082D3
:100A7000CF91DF910895DF93CF93CDB7DEB72F9756
:100A80000FB6F894DEBF0FBECDBF8A836B834C8355
:100A900019828A81843008F00EC18B81883008F079
:100AA0000AC18C81813021F08C81882309F003C137
:100AB0008A81282F30E03F872E878E859F85813061
:100AC000910509F44FC02E853F85223031052CF465
:100AD0008E859F85009771F0EBC02E853F85223073
:100AE000310509F477C08E859F858330910509F41F
:100AF000A9C0DEC08C81282F30E03D872C878C85F3
:100B00009D850097D1F02C853D852130310509F078
:100B1000CFC0AAE3B0E0EAE3F0E08081482F8B8108
:100B2000282F30E081E090E0022E02C0880F991F4C
:100B30000A94E2F7842B8C93BBC0AAE3B0E0EAE30B
:100B4000F0E08081482F8B81282F30E081E090E019
:100B5000022E02C0880F991F0A94E2F78095842321
:100B60008C93A6C08C81282F30E03B872A878A850A
:100B70009B850097D1F02A853B852130310509F00E
:100B800097C0A7E3B0E0E7E3F0E08081482F8B81D6
:100B9000282F30E081E090E0022E02C0880F991FDC
:100BA0000A94E2F7842B8C9383C0A7E3B0E0E7E3D9
:100BB000F0E08081482F8B81282F30E081E090E0A9
:100BC000022E02C0880F991F0A94E2F780958423B1
:100BD0008C936EC08C81282F30E0398728878885D8
:100BE00099850097D1F0288539852130310509F0A4
:100BF0005FC0A4E3B0E0E4E3F0E08081482F8B81A4
:100C0000282F30E081E090E0022E02C0880F991F6B
:100C10000A94E2F7842B8C934BC0A4E3B0E0E4E3A6
:100C2000F0E08081482F8B81282F30E081E090E038
:100C3000022E02C0880F991F0A94E2F78095842340
:100C40008C9336C08C81282F30E03F832E838E8199
:100C50009F810097C9F02E813F812130310541F5F8
:100C6000A1E3B0E0E1E3F0E08081482F8B81282F01
:100C700030E081E090E0022E02C0880F991F0A94B4
:100C8000E2F7842B8C9314C0A1E3B0E0E1E3F0E041
:100C90008081482F8B81282F30E081E090E0022E68
:100CA00002C0880F991F0A94E2F7809584238C93E1
:100CB00039813D8304C081E0898389818D838D8161
:100CC0002F960FB6F894DEBF0FBECDBFCF91DF9148
:100CD0000895DF93CF93CDB7DEB72F970FB6F89473
:100CE000DEBF0FBECDBF8A836B834C8319828A819E
:100CF000843008F00EC18B81883008F00AC18C81E5
:100D0000813021F08C81882309F003C18A81282F4A
:100D100030E03F872E878E859F858130910509F4CD
:100D20004FC02E853F85223031052CF48E859F855E
:100D3000009771F0EBC02E853F852230310509F414
:100D400077C08E859F858330910509F4A9C0DEC0E8
:100D50008C81282F30E03D872C878C859D850097DE
:100D6000D1F02C853D852130310509F0CFC0ABE3B2
:100D7000B0E0EBE3F0E08081482F8B81282F30E05A
:100D800081E090E0022E02C0880F991F0A94E2F7DA
:100D9000842B8C93BBC0ABE3B0E0EBE3F0E080814D
:100DA000482F8B81282F30E081E090E0022E02C096
:100DB000880F991F0A94E2F7809584238C93A6C02C
:100DC0008C81282F30E03B872A878A859B85009776
:100DD000D1F02A853B852130310509F097C0A8E381
:100DE000B0E0E8E3F0E08081482F8B81282F30E0ED
:100DF00081E090E0022E02C0880F991F0A94E2F76A
:100E0000842B8C9383C0A8E3B0E0E8E3F0E080811A
:100E1000482F8B81282F30E081E090E0022E02C025
:100E2000880F991F0A94E2F7809584238C936EC0F3
:100E30008C81282F30E0398728878885998500970D
:100E4000D1F0288539852130310509F05FC0A5E34F
:100E5000B0E0E5E3F0E08081482F8B81282F30E07F
:100E600081E090E0022E02C0880F991F0A94E2F7F9
:100E7000842B8C934BC0A5E3B0E0E5E3F0E08081E8
:100E8000482F8B81282F30E081E090E0022E02C0B5
:100E9000880F991F0A94E2F7809584238C9336C0BB
:100EA0008C81282F30E03F832E838E819F81009795
:100EB000C9F02E813F812130310541F5A2E3B0E038
:100EC000E2E3F0E08081482F8B81282F30E081E041
:100ED00090E0022E02C0880F991F0A94E2F7842B3B
:100EE0008C9314C0A2E3B0E0E2E3F0E08081482FED
:100EF0008B81282F30E081E090E0022E02C0880F25
:100F0000991F0A94E2F7809584238C9339813D835D
:100F100004C081E0898389818D838D812F960FB6EE
:100F2000F894DEBF0FBECDBFCF91DF910895DF9360
:100F3000CF93CDB7DEB728970FB6F894DEBF0FBEBC
:100F4000CDBF8A836B835D834C8319828A81843011
:100F500008F0ECC08B81883008F0E8C08C819D815E
:100F6000009709F4E3C08A81282F30E038872F8367
:100F70004F8158854130510509F448C08F819885CB
:100F80008230910534F42F8138852115310571F0B7
:100F9000CAC04F8158854230510509F467C08F811E
:100FA00098858330910509F490C0BDC0E9E3F0E075
:100FB0008081282F30E08B81882F90E0A90102C02A
:100FC000559547958A95E2F7CA0181709070009710
:100FD00021F4EC81FD811082A6C0E9E3F0E080817C
:100FE000282F30E08B81882F90E0A90102C0559511
:100FF00047958A95E2F7CA0181709070882309F4B9
:1010000092C0EC81FD8181E080838DC0E6E3F0E059
:101010008081282F30E08B81882F90E0A90102C0C9
:10102000559547958A95E2F7CA01817090700097AF
:1010300021F4EC81FD81108276C0E6E3F0E080814E
:10104000282F30E08B81882F90E0A90102C05595B0
:1010500047958A95E2F7CA0181709070882309F458
:1010600062C0EC81FD8181E080835DC0E3E3F0E05C
:101070008081282F30E08B81882F90E0A90102C069
:10108000559547958A95E2F7CA018170907000974F
:1010900021F4EC81FD81108246C0E3E3F0E0808121
:1010A000282F30E08B81882F90E0A90102C0559550
:1010B00047958A95E2F7CA0181709070882399F16B
:1010C000EC81FD8181E080832EC0E0E3F0E080814F
:1010D000282F30E08B81882F90E0A90102C0559520
:1010E00047958A95E2F7CA0181709070009721F4C4
:1010F000EC81FD81108217C0E0E3F0E08081282FB1
:1011000030E08B81882F90E0A90102C0559547956A
:101110008A95E2F7CA0181709070882321F0EC81F2
:10112000FD8181E0808359815E8304C081E08983F1
:1011300089818E838E8128960FB6F894DEBF0FBE0C
:10114000CDBFCF91DF910895DF93CF93CDB7DEB7B9
:101150002E970FB6F894DEBF0FBECDBF8A836B8388
:1011600019828A81843008F089C08B81813021F016
:101170008B81882309F082C08A81282F30E03E8746
:101180002D878D859E858130910571F12D853E8558
:10119000223031052CF48D859E85009769F06BC057
:1011A0002D853E8522303105B9F18D859E858330B0
:1011B000910509F449C05FC08B81282F30E03C873E
:1011C0002B878B859C85009731F02B853C852130C2
:1011D000310529F050C0EBE3F0E010824CC0EBE3A6
:1011E000F0E08FEF808347C08B81282F30E03A8773
:1011F000298789859A85009731F029853A8521309C
:10120000310529F038C0E8E3F0E0108234C0E8E3AB
:10121000F0E08FEF80832FC08B81282F30E038875C
:101220002F838F819885009731F02F813885213069
:10123000310529F020C0E5E3F0E010821CC0E5E3B1
:10124000F0E08FEF808317C08B81282F30E03E8342
:101250002D838D819E81009731F02D813E8121303B
:10126000310529F008C0E2E3F0E0108204C0E2E3B7
:10127000F0E08FEF808339813C8304C081E0898373
:1012800089818C838C812E960FB6F894DEBF0FBEB9
:10129000CDBFCF91DF910895DF93CF9300D000D0E1
:1012A00000D0CDB7DEB78A836B8319828A81843000
:1012B000A8F58A81282F30E03E832D838D819E8181
:1012C00081309105D1F02D813E81223031052CF401
:1012D0008D819E81009761F01EC02D813E8122305C
:1012E000310581F08D819E818330910581F013C09D
:1012F000EBE3F0E08B8180830EC0E8E3F0E08B81CC
:10130000808309C0E5E3F0E08B81808304C0E2E3E1
:10131000F0E08B81808399819C8304C081E0898384
:1013200029812C838C8126960FB6F894DEBF0FBEE0
:10133000CDBFCF91DF910895DF93CF93CDB7DEB7C7
:1013400027970FB6F894DEBF0FBECDBF8A837C838C
:101350006B8319828B819C810097E9F18A81282F08
:1013600030E03F832E838E819F8181309105E1F0B3
:101370002E813F81223031052CF48E819F81009790
:1013800061F026C02E813F8122303105A1F08E818F
:101390009F8183309105B1F01BC0E9E3F0E08081CB
:1013A000EB81FC81808314C0E6E3F0E08081EB8177
:1013B000FC8180830DC0E3E3F0E08081EB81FC8160
:1013C000808306C0E0E3F0E08081EB81FC818083D4
:1013D00099819D8304C081E0898329812D838D813A
:1013E00027960FB6F894DEBF0FBECDBFCF91DF9129
:1013F0000895DF93CF93CDB7DEB7AFE5B0E0EFE56B
:10140000F0E0808180688C93CF91DF910895DF9325
:10141000CF93CDB7DEB7AFE5B0E0EFE5F0E0808188
:101420008F778C93CF91DF910895DF93CF93CDB7D2
:10143000DEB72F970FB6F894DEBF0FBECDBF9F87E4
:101440008E871D8619861A861B861C861D821E8223
:101450001F82188680E090E0A0E0B0E089839A8344
:10146000AB83BC83A3E5B0E0E3E5F0E0808180647A
:101470008C93A3E5B0E0E3E5F0E0808188608C9395
:10148000A3E5B0E0E3E5F0E0808180628C93A3E522
:10149000B0E0E3E5F0E080818F7E8C93A3E5B0E0DF
:1014A000E3E5F0E080818B7F8C93A3E5B0E0E3E59A
:1014B000F0E0808182608C93A3E5B0E0E3E5F0E0AA
:1014C00080818E7F8C938D852F960FB6F894DEBF2A
:1014D0000FBECDBFCF91DF9108951F920F920FB62F
:1014E0000F9211242F933F934F935F936F937F93AA
:1014F0008F939F93AF93BF93EF93FF93DF93CF931C
:10150000CDB7DEB780916D0090916E0001969093FB
:101510006E0080936D008091680090916900A091A9
:101520006A00B0916B00BC01CD010E944900DC0152
:10153000CB019C012F5F3F4F80916D0090916E0019
:1015400028173907A1F4E2E5F0E080916C00808370
:1015500010926E0010926D00809171009091720057
:10156000009729F0E0917100F09172000995CF91F8
:10157000DF91FF91EF91BF91AF919F918F917F91FB
:101580006F915F914F913F912F910F900FBE0F90F0
:101590001F9018951F920F920FB60F9211242F9340
:1015A0003F934F935F936F937F938F939F93AF93EB
:1015B000BF93EF93FF93DF93CF93CDB7DEB78091C7
:1015C0006F009091700001969093700080936F006F
:1015D00080916F009091700027E28031920779F43A
:1015E0001092700010926F008091730090917400BF
:1015F000009729F0E0917300F09174000995CF9164
:10160000DF91FF91EF91BF91AF919F918F917F916A
:101610006F915F914F913F912F910F900FBE0F905F
:101620001F901895DF93CF9300D00F92CDB7DEB700
:101630009B838A8319828A819B81009739F08A81F2
:101640009B81909372008093710002C081E0898336
:1016500089810F900F900F90CF91DF910895DF93C4
:10166000CF9300D00F92CDB7DEB79B838A831982C8
:101670008A819B81009739F08A819B8190937400C5
:101680008093730002C081E0898389810F900F905D
:101690000F90CF91DF910895DF93CF930F92CDB745
:1016A000DEB78983ECE5F0E0898180830F90CF91EC
:1016B000DF910895DF93CF93CDB7DEB7AFE4B0E00D
:1016C000EFE4F0E0808182608C93AFE4B0E0EFE47F
:1016D000F0E080818E7F8C93AEE4B0E0EEE4F0E049
:1016E000808180618C93AEE4B0E0EEE4F0E0808134
:1016F00088608C93AFE4B0E0EFE4F0E08081806834
:101700008C93AFE4B0E0EFE4F0E080818F7B8C93CA
:10171000E6E4F0E08FE19EE491838083AEE4B0E004
:10172000EEE4F0E080818B7F8C93AEE4B0E0EEE4F9
:10173000F0E0808182608C93AEE4B0E0EEE4F0E013
:1017400080818E7F8C93CF91DF910895DF93CF932B
:1017500000D0CDB7DEB79A838983EAE4F0E08981CF
:101760009A81918380830F900F90CF91DF9108959C
:10177000DF93CF93CDB7DEB7A1E4B0E0E1E4F0E0D2
:10178000808188608C93A1E4B0E0E1E4F0E08081A6
:101790008E7F8C93A1E4B0E0E1E4F0E080818D7F66
:1017A0008C93A1E4B0E0E1E4F0E080818B7F8C9346
:1017B000CF91DF910895DF93CF93CDB7DEB7E1E40A
:1017C000F0E088E18083E1E4F0E01082CF91DF91E6
:1017D0000895DF93CF9300D000D0CDB7DEB70E943D
:1017E00019050E9457040E945A0B9E012D5F3F4F1E
:1017F00080E0B9010E948F048B819C81CC01A0E024
:10180000B0E020ED37E040E050E0BC01CD010E94A7
:10181000390CDC01CB012FEF33E040E050E0BC019C
:10182000CD010E94580CDA01C9018C509E4F9A8359
:10183000898389819A810E94A60BD7CFDF93CF93AA
:10184000CDB7DEB780917500882349F480E061E070
:1018500041E00E94690681E08093750007C080E046
:1018600061E040E00E94690610927500CF91DF911F
:101870000895629FD001739FF001829FE00DF11DDA
:10188000649FE00DF11D929FF00D839FF00D749FFA
:10189000F00D659FF00D9927729FB00DE11DF91FA6
:1018A000639FB00DE11DF91FBD01CF011124089503
:1018B000A1E21A2EAA1BBB1BFD010DC0AA1FBB1F54
:1018C000EE1FFF1FA217B307E407F50720F0A21BC6
:1018D000B30BE40BF50B661F771F881F991F1A9433
:1018E00069F760957095809590959B01AC01BD015D
:1018F000CF0108952F923F924F925F926F927F9205
:101900008F929F92AF92BF92CF92DF92EF92FF920F
:101910000F931F93CF93DF93CDB7DEB7CA1BDB0BBB
:101920000FB6F894DEBF0FBECDBF09942A88398860
:1019300048885F846E847D848C849B84AA84B98467
:10194000C884DF80EE80FD800C811B81AA81B98173
:10195000CE0FD11D0FB6F894DEBF0FBECDBFED0187
:061960000895F894FFCF8A
:08196600000000000000000079
:00000001FF
