:100000000C942A000C9447000C9447000C94470071
:100010000C9447000C9447000C9447000C940A2A57
:100020000C9447000C9447000C9447000C94470034
:100030000C9447000C9447000C9447000C94470024
:100040000C9447000C9447000C9447000C94470014
:100050000C94470011241FBECFE5D8E0DEBFCDBF12
:1000600011E0A0E6B0E0E4E2FCE602C005900D92EB
:10007000AE3CB107D9F716E0AEECB1E001C01D927D
:10008000AF35B107E1F70E9493260C9410360C941B
:100090000000EF92FF920F931F937B018C0120E0F1
:1000A00030E040E05FE40E94F50388238CF0C80153
:1000B000B70120E030E040E05FE40E94C1010E940F
:1000C00055049B01AC01205030404040504806C0D0
:1000D000C801B7010E9455049B01AC01B901CA01D6
:1000E0001F910F91FF90EF900895A0E0B0E0EBE733
:1000F000F0E00C94BA35DC012B01FA019C919230AE
:1001000008F439C1EB018881823008F433C194309E
:1001100069F4843009F02FC111969C91119789815F
:10012000981709F428C1ABE7B0E025C1843009F481
:1001300021C18230A9F4923009F01DC19A01AD01AC
:1001400088E0EA010990AE01E90109929E0181501F
:10015000C1F7E201898111969C918923818308C1AD
:10016000923009F407C112962D903C901397EB0141
:100170008A819B811496AD90BD90CD90DC901797AD
:10018000EC80FD800E811F819101281B390BB90184
:1001900037FF04C066277727621B730B6032710537
:1001A0000CF061C0121613066CF537014801062EDB
:1001B00004C096948794779467940A94D2F721E0C8
:1001C00030E040E050E004C0220F331F441F551FB1
:1001D0006A95D2F721503040404050402E213F21B7
:1001E00040235123211531054105510521F021E01E
:1001F00030E040E050E079018A01E628F72808293C
:1002000019293CC0232BD1F1260E371E350146019A
:10021000062E04C096948794779467940A94D2F734
:1002200021E030E040E050E004C0220F331F441FC3
:10023000551F6A95D2F721503040404050402A2146
:100240003B214C215D21211531054105510521F04E
:1002500021E030E040E050E059016A01A628B728CB
:10026000C828D9280BC0821593052CF01C01AA249C
:10027000BB24650103C0EE24FF24870111969C91E5
:10028000D20111968C91981709F445C0992339F041
:10029000A80197012A193B094C095D0906C0A6016E
:1002A00095012E193F09400B510B57FD08C01182D3
:1002B0003382228224833583468357831DC081E0A5
:1002C00081833382228288279927DC01821B930B4A
:1002D000A40BB50B84839583A683B7830DC0220F2F
:1002E000331F441F551F24833583468357838281E0
:1002F000938101979383828324813581468157813D
:10030000DA01C9010197A109B1098F5F9F4FAF4F72
:10031000BF4328F30BC0918333822282EA0CFB1C7B
:100320000C1D1D1DE482F5820683178383E0808304
:10033000248135814681578157FF1AC0C901AA27F8
:1003400097FDA095BA2F81709070A070B0705695EF
:10035000479537952795822B932BA42BB52B848318
:100360009583A683B7838281938101969383828349
:10037000DF0101C0D201CD01CDB7DEB7E2E10C94BF
:10038000D635A0E2B0E0E7ECF1E00C94C635698325
:100390007A838B839C832D833E834F835887E9E048
:1003A000EE2EF12CEC0EFD1ECE010196B7010E943F
:1003B00046068E010F5E1F4FCE010596B8010E94C2
:1003C00046068A8991E089278A8BC701B801AE0168
:1003D000475E5F4F0E9475000E947105A096E6E09F
:1003E0000C94E235A0E2B0E0E8EFF1E00C94C63501
:1003F00069837A838B839C832D833E834F835887C5
:10040000F9E0EF2EF12CEC0EFD1ECE010196B701A6
:100410000E9446068E010F5E1F4FCE010596B80161
:100420000E944606C701B801AE01475E5F4F0E94B9
:1004300075000E947105A096E6E00C94E235A0E2FA
:10044000B0E0E5E2F2E00C94BA3569837A838B83FD
:100450009C832D833E834F835887CE010196BE0136
:10046000675F7F4F0E944606CE010596BE016F5E14
:100470007F4F0E9446069985923088F089898230A4
:10048000C8F0943019F4823051F404C0843029F457
:10049000923081F48BE790E0C6C0923049F420E0BE
:1004A0009A858A89981321E02A87CE010996BBC0D4
:1004B000823049F420E09A858A89981321E02A8BBA
:1004C000CE014196B0C02D843E844F8458886D88FB
:1004D0007E888F88988CEE24FF248701AA24BB2471
:1004E000650140E050E060E070E0E0E0F0E0C10174
:1004F00081709070892BE9F0E60CF71C081D191D1E
:100500009A01AB012A0D3B1D4C1D5D1D80E090E062
:10051000A0E0B0E0E614F7040805190520F481E036
:1005200090E0A0E0B0E0BA01A901480F591F6A1F8E
:100530007B1FAA0CBB1CCC1CDD1C97FE08C081E0F5
:1005400090E0A0E0B0E0A82AB92ACA2ADB2A3196B6
:10055000E032F10549F0660C771C881C991C569412
:10056000479437942794C3CFFA85EA892B893C892D
:100570008B859C85280F391F2E5F3F4F17C0CA01FE
:1005800081709070892B61F016950795F794E79428
:1005900080E090E0A0E0B0E8E82AF92A0A2B1B2BC3
:1005A00076956795579547952F5F3F4F77FDE7CF36
:1005B0000CC0440F551F661F771F17FD4160EE0CDE
:1005C000FF1C001F111F21503040403090E05907A0
:1005D00090E0690790E4790760F32B8F3C8FDB0193
:1005E000CA018F779070A070B07080349105A1051A
:1005F000B10561F447FD0AC0E114F10401051105DC
:1006000029F0405C5F4F6F4F7F4F40781A8EFE1786
:1006100011F081E08A8F4D8F5E8F6F8F78A383E01A
:10062000898FCE0149960E947105A096E2E10C9453
:10063000D635A8E1B0E0EFE1F3E00C94C235698370
:100640007A838B839C832D833E834F835887B9E0C5
:10065000EB2EF12CEC0EFD1ECE010196B7010E948F
:1006600046068E010F5E1F4FCE010596B8010E940F
:1006700046062985223008F47EC03989323010F4CC
:10068000B8017CC08A859A8989278A87243011F02D
:10069000223031F4231709F06EC06BE770E06EC0B2
:1006A000343039F41D861E861F86188A1C861B86E8
:1006B00004C0323021F484E08987B7015FC02B8504
:1006C0003C858B899C89281B390B3C872B87ED84C3
:1006D000FE840F851889AD88BE88CF88D88CEA142F
:1006E000FB040C051D0540F4EE0CFF1C001F111F40
:1006F000215030403C872B8720E030E040E050E044
:1007000080E090E0A0E0B0E460E070E0EA14FB0478
:100710000C051D0540F0282B392B4A2B5B2BEA18C2
:10072000FB080C091D09B695A79597958795EE0CC2
:10073000FF1C001F111F6F5F7F4F6F31710531F775
:10074000DA01C9018F779070A070B0708034910584
:10075000A105B10561F427FD0AC0E114F10401050A
:10076000110529F0205C3F4F4F4F5F4F20782D87B8
:100770003E874F87588BBE01675F7F4FCB010E943A
:1007800071056896EAE00C94DE35A8E1B0E0EBEC88
:10079000F3E00C94C63569837A838B839C832D8325
:1007A0003E834F83588789E0E82EF12CEC0EFD1E26
:1007B000CE010196B7010E9446068E010F5E1F4FC3
:1007C000CE010596B8010E9446068985823040F028
:1007D0008989823028F0C701B8010E94BE0601C095
:1007E0008FEF6896E6E00C94E235A8E1B0E0EBEF1D
:1007F000F3E00C94C63569837A838B839C832D83C5
:100800003E834F83588789E0E82EF12CEC0EFD1EC5
:10081000CE010196B7010E9446068E010F5E1F4F62
:10082000CE010596B8010E9446068985823040F0C7
:100830008989823028F0C701B8010E94BE0601C034
:100840008FEF6896E6E00C94E235A8E1B0E0EBE2C9
:10085000F4E00C94C63569837A838B839C832D8363
:100860003E834F83588789E0E82EF12CEC0EFD1E65
:10087000CE010196B7010E9446068E010F5E1F4F02
:10088000CE010596B8010E9446068985823040F067
:100890008989823028F0C701B8010E94BE0601C0D4
:1008A00081E06896E6E00C94E235ACE0B0E0EBE580
:1008B000F4E00C94CA3569837A838B839C83CE01E0
:1008C0000196BE016B5F7F4F0E9446068D8182308C
:1008D00061F1823050F1843021F48E81882351F10E
:1008E0002EC02F81388537FD20C06E812F31310514
:1008F0001CF06623F9F023C08EE190E0821B930B7D
:1009000029853A854B855C8504C056954795379572
:1009100027958A95D2F76623B1F05095409530958A
:1009200021953F4F4F4F5F4F0EC020E030E040E039
:1009300050E009C02FEF3FEF4FEF5FE704C020E02A
:1009400030E040E050E8B901CA012C96E2E00C9496
:10095000E635A8E0B0E0EFEAF4E00C94C2357B01A4
:100960008C01611571058105910519F482E0898377
:1009700060C083E089838EE1C82ED12CDC82CB82DB
:10098000ED82FE820F831887C801B7010E942205FD
:10099000FC013197F7FF3BC0222733272E1B3F0B6B
:1009A00057016801022E04C0D694C794B794A79447
:1009B0000A94D2F740E050E060E070E081E090E01F
:1009C000A0E0B0E004C0880F991FAA1FBB1F2A95A2
:1009D000D2F70197A109B1098E219F21A023B1234C
:1009E0000097A105B10521F041E050E060E070E022
:1009F0004A295B296C297D294D835E836F83788723
:100A00008EE190E08E1B9F0B9C838B8312C03097EE
:100A100081F00E2E04C0EE0CFF1C001F111F0A9463
:100A2000D2F7ED82FE820F831887CE1ADF0ADC82AE
:100A3000CB821A82CE0101960E9471052896EAE0C7
:100A40000C94DE35EF92FF920F931F937B018C0184
:100A500080E0E81680E0F80681E0080780E01807EB
:100A600088F48FEFE816F1040105110531F028F044
:100A700088E090E0A0E0B0E017C080E090E0A0E067
:100A8000B0E012C080E0E81680E0F80680E00807D9
:100A900081E0180728F088E190E0A0E0B0E004C011
:100AA00080E190E0A0E0B0E020E230E040E050E003
:100AB000281B390B4A0B5B0B04C016950795F7945E
:100AC000E7948A95D2F7F701ED57FF4F8081281BF5
:100AD000310941095109C9011F910F91FF90EF9010
:100AE0000895DF92EF92FF920F931F93FC01E48031
:100AF000F58006811781D1808081823048F480E0C2
:100B000090E0A0E1B0E0E82AF92A0A2B1B2BA5C04F
:100B1000843009F49FC0823021F4EE24FF24870141
:100B200005C0E114F1040105110519F4E0E0F0E05D
:100B300096C0628173819FEF623879070CF05BC0C9
:100B400022E83FEF261B370B2A3131052CF020E03D
:100B500030E040E050E02AC0B801A701022E04C0F6
:100B600076956795579547950A94D2F781E090E07E
:100B7000A0E0B0E004C0880F991FAA1FBB1F2A95F0
:100B8000D2F70197A109B1098E219F21A023B1239A
:100B90000097A105B10521F081E090E0A0E0B0E070
:100BA0009A01AB01282B392B4A2B5B2BDA01C901A7
:100BB0008F779070A070B07080349105A105B10559
:100BC00039F427FF09C0205C3F4F4F4F5F4F04C0EF
:100BD000215C3F4F4F4F5F4FE0E0F0E02030A0E05E
:100BE0003A07A0E04A07A0E45A0710F0E1E0F0E07D
:100BF00079018A0127C06038710564F5FB01E1586D
:100C0000FF4FD801C7018F779070A070B07080340B
:100C10009105A105B10539F4E7FE0DC080E490E02F
:100C2000A0E0B0E004C08FE390E0A0E0B0E0E80E08
:100C3000F91E0A1F1B1F17FF05C016950795F7948D
:100C4000E794319687E016950795F794E7948A958F
:100C5000D1F705C0EE24FF248701EFEFF0E06E2FFF
:100C6000679566276795902F9F77D794DD24D79453
:100C70008E2F8695492F462B582F5D29B701CA0123
:100C80001F910F91FF90EF90DF900895FC01DB0121
:100C9000408151812281622F6F7770E0221F2227CD
:100CA000221F9381892F880F822B282F30E0991FD4
:100CB0009927991F11969C93119721153105A9F534
:100CC000411551056105710511F482E037C082E8D4
:100CD0009FEF13969C938E9312979A01AB0167E056
:100CE000220F331F441F551F6A95D1F783E08C9361
:100CF0000DC0220F331F441F551F12968D919C91DA
:100D00001397019713969C938E931297203080E04F
:100D1000380780E0480780E4580758F314962D936D
:100D20003D934D935C93179708952F3F310579F4C8
:100D3000411551056105710519F484E08C930895FE
:100D400064FF03C081E08C9312C01C9210C02F5727
:100D5000304013963C932E93129783E08C9387E058
:100D6000440F551F661F771F8A95D1F7706414963C
:100D70004D935D936D937C93179708951F93DC01BA
:100D8000FB019C91923008F447C08081823008F4C6
:100D900043C0943051F411961C91843099F58181AF
:100DA000682F70E0611B71093FC0843021F09230E0
:100DB00031F48230B9F18181882389F12DC01196F7
:100DC0001C9111978230F1F081811817D9F4129695
:100DD0002D913C911397828193818217930794F010
:100DE00028173907BCF014968D919D910D90BC91F8
:100DF000A02D2481358146815781281739074A075C
:100E00005B0718F4112341F00AC082179307A40767
:100E1000B50740F4112319F061E070E005C06FEFF1
:100E20007FEF02C060E070E0CB011F910895DF9377
:100E3000CF93CDB7DEB7EAE3F0E08FE08083E7E35E
:100E4000F0E01082E4E3F0E080EF8083E1E3F0E0A3
:100E500087E08083EBE3F0E01082E8E3F0E01082CB
:100E6000E5E3F0E01082E2E3F0E01082CF91DF9161
:100E70000895DF93CF93CDB7DEB72F970FB6F894D1
:100E8000DEBF0FBECDBF8A836B834C8319828A81FC
:100E9000843008F00EC18B81883008F00AC18C8143
:100EA000813021F08C81882309F003C18A81282FA9
:100EB00030E03F872E878E859F858130910509F42C
:100EC0004FC02E853F85223031052CF48E859F85BD
:100ED000009771F0EBC02E853F852230310509F473
:100EE00077C08E859F858330910509F4A9C0DEC047
:100EF0008C81282F30E03D872C878C859D8500973D
:100F0000D1F02C853D852130310509F0CFC0AAE311
:100F1000B0E0EAE3F0E08081482F8B81282F30E0B9
:100F200081E090E0022E02C0880F991F0A94E2F738
:100F3000842B8C93BBC0AAE3B0E0EAE3F0E08081AD
:100F4000482F8B81282F30E081E090E0022E02C0F4
:100F5000880F991F0A94E2F7809584238C93A6C08A
:100F60008C81282F30E03B872A878A859B850097D4
:100F7000D1F02A853B852130310509F097C0A7E3E0
:100F8000B0E0E7E3F0E08081482F8B81282F30E04C
:100F900081E090E0022E02C0880F991F0A94E2F7C8
:100FA000842B8C9383C0A7E3B0E0E7E3F0E080817B
:100FB000482F8B81282F30E081E090E0022E02C084
:100FC000880F991F0A94E2F7809584238C936EC052
:100FD0008C81282F30E0398728878885998500976C
:100FE000D1F0288539852130310509F05FC0A4E3AF
:100FF000B0E0E4E3F0E08081482F8B81282F30E0DF
:1010000081E090E0022E02C0880F991F0A94E2F757
:10101000842B8C934BC0A4E3B0E0E4E3F0E0808148
:10102000482F8B81282F30E081E090E0022E02C013
:10103000880F991F0A94E2F7809584238C9336C019
:101040008C81282F30E03F832E838E819F810097F3
:10105000C9F02E813F812130310541F5A1E3B0E097
:10106000E1E3F0E08081482F8B81282F30E081E0A0
:1010700090E0022E02C0880F991F0A94E2F7842B99
:101080008C9314C0A1E3B0E0E1E3F0E08081482F4D
:101090008B81282F30E081E090E0022E02C0880F83
:1010A000991F0A94E2F7809584238C9339813D83BC
:1010B00004C081E0898389818D838D812F960FB64D
:1010C000F894DEBF0FBECDBFCF91DF910895DF93BF
:1010D000CF93CDB7DEB72F970FB6F894DEBF0FBE14
:1010E000CDBF8A836B834C8319828A81843008F058
:1010F0000EC18B81883008F00AC18C81813021F0CB
:101100008C81882309F003C18A81282F30E03F8732
:101110002E878E859F858130910509F44FC02E85DD
:101120003F85223031052CF48E859F85009771F024
:10113000EBC02E853F852230310509F477C08E85BE
:101140009F858330910509F4A9C0DEC08C81282FCA
:1011500030E03D872C878C859D850097D1F02C85CC
:101160003D852130310509F0CFC0ABE3B0E0EBE3C2
:10117000F0E08081482F8B81282F30E081E090E0E3
:10118000022E02C0880F991F0A94E2F7842B8C93D9
:10119000BBC0ABE3B0E0EBE3F0E08081482F8B8194
:1011A000282F30E081E090E0022E02C0880F991FC6
:1011B0000A94E2F7809584238C93A6C08C81282F13
:1011C00030E03B872A878A859B850097D1F02A8566
:1011D0003B852130310509F097C0A8E3B0E0E8E392
:1011E000F0E08081482F8B81282F30E081E090E073
:1011F000022E02C0880F991F0A94E2F7842B8C9369
:1012000083C0A8E3B0E0E8E3F0E08081482F8B8161
:10121000282F30E081E090E0022E02C0880F991F55
:101220000A94E2F7809584238C936EC08C81282FDA
:1012300030E039872887888599850097D1F02885FF
:1012400039852130310509F05FC0A5E3B0E0E5E361
:10125000F0E08081482F8B81282F30E081E090E002
:10126000022E02C0880F991F0A94E2F7842B8C93F8
:101270004BC0A5E3B0E0E5E3F0E08081482F8B812F
:10128000282F30E081E090E0022E02C0880F991FE5
:101290000A94E2F7809584238C9336C08C81282FA2
:1012A00030E03F832E838E819F810097C9F02E818D
:1012B0003F812130310541F5A2E3B0E0E2E3F0E007
:1012C0008081482F8B81282F30E081E090E0022E32
:1012D00002C0880F991F0A94E2F7842B8C9314C0E4
:1012E000A2E3B0E0E2E3F0E08081482F8B81282F79
:1012F00030E081E090E0022E02C0880F991F0A942E
:10130000E2F7809584238C9339813D8304C081E08A
:10131000898389818D838D812F960FB6F894DEBFE6
:101320000FBECDBFCF91DF910895DF93CF93CDB79F
:10133000DEB728970FB6F894DEBF0FBECDBF8A8305
:101340006B835D834C8319828A81843008F0ECC002
:101350008B81883008F0E8C08C819D81009709F46A
:10136000E3C08A81282F30E038872F834F8158854A
:101370004130510509F448C08F819885823091052C
:1013800034F42F8138852115310571F0CAC04F81A1
:1013900058854230510509F467C08F8198858330A4
:1013A000910509F490C0BDC0E9E3F0E08081282FE9
:1013B00030E08B81882F90E0A90102C055954795B8
:1013C0008A95E2F7CA0181709070009721F4EC8150
:1013D000FD811082A6C0E9E3F0E08081282F30E093
:1013E0008B81882F90E0A90102C0559547958A9579
:1013F000E2F7CA0181709070882309F492C0EC81F1
:10140000FD8181E080838DC0E6E3F0E08081282FBC
:1014100030E08B81882F90E0A90102C05595479557
:101420008A95E2F7CA0181709070009721F4EC81EF
:10143000FD81108276C0E6E3F0E08081282F30E065
:101440008B81882F90E0A90102C0559547958A9518
:10145000E2F7CA0181709070882309F462C0EC81C0
:10146000FD8181E080835DC0E3E3F0E08081282F8F
:1014700030E08B81882F90E0A90102C055954795F7
:101480008A95E2F7CA0181709070009721F4EC818F
:10149000FD81108246C0E3E3F0E08081282F30E038
:1014A0008B81882F90E0A90102C0559547958A95B8
:1014B000E2F7CA0181709070882399F1EC81FD8177
:1014C00081E080832EC0E0E3F0E08081282F30E0CF
:1014D0008B81882F90E0A90102C0559547958A9588
:1014E000E2F7CA0181709070009721F4EC81FD81D0
:1014F000108217C0E0E3F0E08081282F30E08B817C
:10150000882F90E0A90102C0559547958A95E2F78A
:10151000CA0181709070882321F0EC81FD8181E007
:10152000808359815E8304C081E0898389818E83B1
:101530008E8128960FB6F894DEBF0FBECDBFCF9137
:10154000DF910895DF93CF93CDB7DEB72E970FB617
:10155000F894DEBF0FBECDBF8A836B8319828A8168
:10156000843008F089C08B81813021F08B81882301
:1015700009F082C08A81282F30E03E872D878D8533
:101580009E858130910571F12D853E852230310592
:101590002CF48D859E85009769F06BC02D853E8566
:1015A00022303105B9F18D859E858330910509F48E
:1015B00049C05FC08B81282F30E03C872B878B850B
:1015C0009C85009731F02B853C852130310529F031
:1015D00050C0EBE3F0E010824CC0EBE3F0E08FEFA3
:1015E000808347C08B81282F30E03A8729878985FF
:1015F0009A85009731F029853A852130310529F007
:1016000038C0E8E3F0E0108234C0E8E3F0E08FEFA8
:1016100080832FC08B81282F30E038872F838F81E4
:101620009885009731F02F8138852130310529F0D8
:1016300020C0E5E3F0E010821CC0E5E3F0E08FEFAE
:10164000808317C08B81282F30E03E832D838D81CE
:101650009E81009731F02D813E812130310529F0A6
:1016600008C0E2E3F0E0108204C0E2E3F0E08FEFB4
:10167000808339813C8304C081E0898389818C83A4
:101680008C812E960FB6F894DEBF0FBECDBFCF91E2
:10169000DF910895DF93CF9300D000D000D0CDB775
:1016A000DEB78A836B8319828A818430A8F58A81A8
:1016B000282F30E03E832D838D819E8181309105DE
:1016C000D1F02D813E81223031052CF48D819E8117
:1016D000009761F01EC02D813E812230310581F0DE
:1016E0008D819E818330910581F013C0EBE3F0E0A2
:1016F0008B8180830EC0E8E3F0E08B81808309C09A
:10170000E5E3F0E08B81808304C0E2E3F0E08B81CD
:10171000808399819C8304C081E0898329812C8303
:101720008C8126960FB6F894DEBF0FBECDBFCF9149
:10173000DF910895DF93CF93CDB7DEB727970FB62C
:10174000F894DEBF0FBECDBF8A837C836B83198282
:101750008B819C810097E9F18A81282F30E03F83BB
:101760002E838E819F8181309105E1F02E813F8112
:10177000223031052CF48E819F81009761F026C0C4
:101780002E813F8122303105A1F08E819F818330EF
:101790009105B1F01BC0E9E3F0E08081EB81FC81B1
:1017A000808314C0E6E3F0E08081EB81FC818083DC
:1017B0000DC0E3E3F0E08081EB81FC81808306C013
:1017C000E0E3F0E08081EB81FC81808399819D835F
:1017D00004C081E0898329812D838D8127960FB6EE
:1017E000F894DEBF0FBECDBFCF91DF9108950F9368
:1017F0001F93DF93CF93CDB7DEB7CC54D0400FB655
:10180000F894DEBF0FBECDBFFE01E75BFF4F80E067
:1018100090E0ACE0B2E480839183A283B3838E0135
:101820000B5B1F4FFE01E75BFF4F6081718182817F
:10183000938120E030E04AEF54E40E941F02DC0173
:10184000CB01F80180839183A283B383FE01EB5B1C
:10185000FF4F608171818281938120E030E040E818
:101860005FE30E942504882344F4FE01ED5BFF4FF3
:1018700081E090E09183808364C0FE01EB5BFF4FC9
:10188000608171818281938120E03FEF4FE757E4CF
:101890000E94C50318160CF043C0FE01E75BFF4F22
:1018A000608171818281938120E030E040E251E4E7
:1018B0000E941F02DC01CB018E010D5B1F4FBC019A
:1018C000CD010E944900DC01CB01F80191838083A6
:1018D0001FC0FE01EF5BFF4F88EC90E09183808397
:1018E000FE01EF5BFF4F808191810197F1F7FE01CF
:1018F000EF5BFF4F91838083DE01AD5BBF4FFE0145
:10190000ED5BFF4F80819181019711969C938E939F
:10191000FE01ED5BFF4F808191810097D1F624C0DD
:101920008E010D5B1F4FFE01EB5BFF4F60817181EC
:10193000828193810E944900DC01CB01F8019183EF
:101940008083FE01ED5BFF4F80819181FE01FF9658
:1019500091838083FE01FF96808191810197F1F749
:10196000FE01FF969183808388E30E94BA0E80E097
:1019700090E0A0E2B2E48BAF9CAFADAFBEAF6BAD79
:101980007CAD8DAD9EAD2BEA3AEA4AE250E40E946E
:101990001F02DC01CB018FAB98AFA9AFBAAF6FA923
:1019A00078AD89AD9AAD20E030E040E85FE30E9479
:1019B000250488231CF481E08EAB91C06FA978AD1B
:1019C00089AD9AAD20E030E04FE753E40E94C503B3
:1019D00018160CF07BC06BAD7CAD8DAD9EAD20E0DC
:1019E00030E04AE754E40E941903DC01CB018AABE2
:1019F0009BABACABBDAB6AA97BA98CA99DA920E030
:101A000030E04AEF54E40E941F02DC01CB018EA7B4
:101A10009FA7A8ABB9AB6EA57FA588A999A920E01F
:101A200030E040E85FE30E94250488232CF481E045
:101A300090E09DA78CA73FC06EA57FA588A999A916
:101A400020E03FEF4FE757E40E94C50318164CF51E
:101A50006AA97BA98CA99DA920E030E040E251E46D
:101A60000E941F02DC01CB01BC01CD010E94490094
:101A7000DC01CB019DA78CA70FC088EC90E09BA751
:101A80008AA78AA59BA50197F1F79BA78AA78CA592
:101A90009DA501979DA78CA78CA59DA5009769F78B
:101AA00024C06EA57FA588A999A90E944900DC01E0
:101AB000CB019DA78CA78CA59DA599A788A788A5D4
:101AC00099A50197F1F799A788A70FC06FA978ADDD
:101AD00089AD9AAD0E944900DC01CB018EAB8EA985
:101AE0008FA38FA18A95F1F78FA38FE00E94BA0E82
:101AF00080E090E0A0E2B2E48BA39CA3ADA3BEA3E0
:101B00006BA17CA18DA19EA12BEA3AEA4AE250E4A6
:101B10000E941F02DC01CB018F8F98A3A9A3BAA357
:101B20006F8D78A189A19AA120E030E040E85FE3C1
:101B30000E94250488231CF481E08E8F91C06F8D54
:101B400078A189A19AA120E030E04FE753E40E94F8
:101B5000C50318160CF07BC06BA17CA18DA19EA1C2
:101B600020E030E04AE754E40E941903DC01CB0195
:101B70008A8F9B8FAC8FBD8F6A8D7B8D8C8D9D8D59
:101B800020E030E04AEF54E40E941F02DC01CB0168
:101B90008E8B9F8BA88FB98F6E897F89888D998D49
:101BA00020E030E040E85FE30E94250488232CF425
:101BB00081E090E09D8B8C8B3FC06E897F89888D02
:101BC000998D20E03FEF4FE757E40E94C5031816B8
:101BD0004CF56A8D7B8D8C8D9D8D20E030E040E250
:101BE00051E40E941F02DC01CB01BC01CD010E9427
:101BF0004900DC01CB019D8B8C8B0FC088EC90E001
:101C00009B8B8A8B8A899B890197F1F79B8B8A8BA7
:101C10008C899D8901979D8B8C8B8C899D890097E0
:101C200069F724C06E897F89888D998D0E9449004B
:101C3000DC01CB019D8B8C8B8C899D89998B888B4A
:101C4000888999890197F1F7998B888B0FC06F8DDF
:101C500078A189A19AA10E944900DC01CB018E8F55
:101C60008E8D8F878F858A95F1F78F8781E00E940F
:101C7000BA0E80E090E0A0E0B0E48B879C87AD874F
:101C8000BE876B857C858D859E8520E030E04AEFA0
:101C900054E40E941F02DC01CB018F839887A9873F
:101CA000BA876F81788589859A8520E030E040E8A1
:101CB0005FE30E94250488232CF481E090E09E835A
:101CC0008D833FC06F81788589859A8520E03FEFBD
:101CD0004FE757E40E94C50318164CF56B857C85C9
:101CE0008D859E8520E030E040E251E40E941F0295
:101CF000DC01CB01BC01CD010E944900DC01CB011C
:101D00009E838D830FC088EC90E09C838B838B81B6
:101D10009C810197F1F79C838B838D819E81019734
:101D20009E838D838D819E81009769F714C06F819A
:101D3000788589859A850E944900DC01CB019E83C4
:101D40008D838D819E819A83898389819A81019770
:101D5000F1F79A83898386E00E94BA0EC45BDF4F55
:101D60000FB6F894DEBF0FBECDBFCF91DF911F91AC
:101D70000F910895DF93CF93CDB7DEB7E2970FB6FB
:101D8000F894DEBF0FBECDBF8AAB19AA83E060E036
:101D900040E00E94670883E061E040E00E9467083D
:101DA00082E06AA90E944A0B83E062E041E00E945F
:101DB000670880E090E0A0E8BFE38DA79EA7AFA7EB
:101DC000B8AB6DA57EA58FA598A92BEA3AEA4AE2A1
:101DD00050E40E941F02DC01CB0189A79AA7ABA7A0
:101DE000BCA769A57AA58BA59CA520E030E040E8BA
:101DF0005FE30E94250488231CF481E088A791C03A
:101E000069A57AA58BA59CA520E030E04FE753E4B7
:101E10000E94C50318160CF07BC06DA57EA58FA58A
:101E200098A920E030E04AE754E40E941903DC015D
:101E3000CB018CA39DA3AEA3BFA36CA17DA18EA15A
:101E40009FA120E030E04AEF54E40E941F02DC0131
:101E5000CB0188A399A3AAA3BBA368A179A18AA156
:101E60009BA120E030E040E85FE30E942504882346
:101E70002CF481E090E09F8F8E8F3FC068A179A104
:101E80008AA19BA120E03FEF4FE757E40E94C503E2
:101E900018164CF56CA17DA18EA19FA120E030E029
:101EA00040E251E40E941F02DC01CB01BC01CD01E4
:101EB0000E944900DC01CB019F8F8E8F0FC088EC00
:101EC00090E09D8F8C8F8C8D9D8D0197F1F79D8F6C
:101ED0008C8F8E8D9F8D01979F8F8E8F8E8D9F8D76
:101EE000009769F724C068A179A18AA19BA10E94EB
:101EF0004900DC01CB019F8F8E8F8E8D9F8D9B8F34
:101F00008A8F8A8D9B8D0197F1F79B8F8A8F0FC0E7
:101F100069A57AA58BA59CA50E944900DC01CB018F
:101F200088A788A5898F898D8A95F1F7898F83E0A5
:101F300062E040E00E94670880E090E0A0E8BFE334
:101F40008D8B9E8BAF8BB88F6D897E898F89988D95
:101F50002BEA3AEA4AE250E40E941F02DC01CB017C
:101F6000898B9A8BAB8BBC8B69897A898B899C898D
:101F700020E030E040E85FE30E94250488231CF461
:101F800081E0888B91C069897A898B899C8920E05E
:101F900030E04FE753E40E94C50318160CF07BC0F5
:101FA0006D897E898F89988D20E030E04AE754E47E
:101FB0000E941903DC01CB018C879D87AE87BF8708
:101FC0006C857D858E859F8520E030E04AEF54E466
:101FD0000E941F02DC01CB0188879987AA87BB87F3
:101FE000688579858A859B8520E030E040E85FE35D
:101FF0000E94250488232CF481E090E09F838E8347
:102000003FC0688579858A859B8520E03FEF4FE753
:1020100057E40E94C50318164CF56C857D858E85A6
:102020009F8520E030E040E251E40E941F02DC0185
:10203000CB01BC01CD010E944900DC01CB019F8393
:102040008E830FC088EC90E09D838C838C819D8172
:102050000197F1F79D838C838E819F8101979F83E8
:102060008E838E819F81009769F724C0688579856A
:102070008A859B850E944900DC01CB019F838E836A
:102080008E819F819B838A838A819B810197F1F74F
:102090009B838A830FC069897A898B899C890E9476
:1020A0004900DC01CB01888B8889898389818A95E5
:1020B000F1F7898389A9E2960FB6F894DEBF0FBEC7
:1020C000CDBFCF91DF910895DF93CF93CDB7DEB72A
:1020D000E2970FB6F894DEBF0FBECDBF8AAB19AA48
:1020E00083E060E041E00E94670883E061E040E057
:1020F0000E94670882E06AA90E944A0B83E062E0BE
:1021000041E00E94670880E090E0A0E8BFE38DA76F
:102110009EA7AFA7B8AB6DA57EA58FA598A92BEA02
:102120003AEA4AE250E40E941F02DC01CB0189A78F
:102130009AA7ABA7BCA769A57AA58BA59CA520E00B
:1021400030E040E85FE30E94250488231CF481E02E
:1021500088A791C069A57AA58BA59CA520E030E051
:102160004FE753E40E94C50318160CF07BC06DA521
:102170007EA58FA598A920E030E04AE754E40E94AC
:102180001903DC01CB018CA39DA3AEA3BFA36CA15B
:102190007DA18EA19FA120E030E04AEF54E40E948F
:1021A0001F02DC01CB0188A399A3AAA3BBA368A14A
:1021B00079A18AA19BA120E030E040E85FE30E9482
:1021C000250488232CF481E090E09F8F8E8F3FC000
:1021D00068A179A18AA19BA120E03FEF4FE757E4D6
:1021E0000E94C50318164CF56CA17DA18EA19FA17C
:1021F00020E030E040E251E40E941F02DC01CB010C
:10220000BC01CD010E944900DC01CB019F8F8E8F64
:102210000FC088EC90E09D8F8C8F8C8D9D8D0197E9
:10222000F1F79D8F8C8F8E8D9F8D01979F8F8E8F55
:102230008E8D9F8D009769F724C068A179A18AA12E
:102240009BA10E944900DC01CB019F8F8E8F8E8D58
:102250009F8D9B8F8A8F8A8D9B8D0197F1F79B8F26
:102260008A8F0FC069A57AA58BA59CA50E944900FD
:10227000DC01CB0188A788A5898F898D8A95F1F724
:10228000898F83E062E040E00E94670880E090E090
:10229000A0E8BFE38D8B9E8BAF8BB88F6D897E8955
:1022A0008F89988D2BEA3AEA4AE250E40E941F0295
:1022B000DC01CB01898B9A8BAB8BBC8B69897A89CA
:1022C0008B899C8920E030E040E85FE30E94250490
:1022D00088231CF481E0888B91C069897A898B8975
:1022E0009C8920E030E04FE753E40E94C5031816B4
:1022F0000CF07BC06D897E898F89988D20E030E05D
:102300004AE754E40E941903DC01CB018C879D87C6
:10231000AE87BF876C857D858E859F8520E030E008
:102320004AEF54E40E941F02DC01CB0188879987A1
:10233000AA87BB87688579858A859B8520E030E000
:1023400040E85FE30E94250488232CF481E090E0BC
:102350009F838E833FC0688579858A859B8520E031
:102360003FEF4FE757E40E94C50318164CF56C8504
:102370007D858E859F8520E030E040E251E40E941B
:102380001F02DC01CB01BC01CD010E944900DC0130
:10239000CB019F838E830FC088EC90E09D838C835C
:1023A0008C819D810197F1F79D838C838E819F8124
:1023B00001979F838E838E819F81009769F724C048
:1023C000688579858A859B850E944900DC01CB015F
:1023D0009F838E838E819F819B838A838A819B8149
:1023E0000197F1F79B838A830FC069897A898B896A
:1023F0009C890E944900DC01CB01888B88898983F4
:1024000089818A95F1F7898389A9E2960FB6F894B4
:10241000DEBF0FBECDBFCF91DF910895DF93CF9385
:1024200000D000D00F92CDB7DEB79C838B831A8289
:1024300019828B819C810097F1F019820EC08981ED
:10244000282F30E08B819C81FC01E20FF31F8081FB
:102450000E94401A89818F5F89838981282F30E00B
:102460008B819C81FC01E20FF31F8081882339F767
:102470008A818D8304C081E08A838A818D838D81E6
:102480000F900F900F900F900F90CF91DF910895C4
:10249000DF93CF9300D000D000D0CDB7DEB78A83D2
:1024A0006B8319828A818230F0F48B818832D8F470
:1024B0008A81282F30E03E832D838D819E81009775
:1024C00031F02D813E812130310531F009C08B8101
:1024D00080580E942A1E04C08B8180540E942A1EAC
:1024E00039813C8304C081E0898389818C838C811C
:1024F00026960FB6F894DEBF0FBECDBFCF91DF9109
:102500000895DF93CF93CDB7DEB72E970FB6F8942B
:10251000DEBF0FBECDBF81E00E942A1E80E090E0AA
:10252000A0E0B0E48B879C87AD87BE876B857C85F8
:102530008D859E8520E030E04AEF54E40E941F0222
:10254000DC01CB018F839887A987BA876F81788553
:1025500089859A8520E030E040E85FE30E94250409
:1025600088232CF481E090E09E838D833FC06F81AF
:10257000788589859A8520E03FEF4FE757E40E94F0
:10258000C50318164CF56B857C858D859E8520E0EE
:1025900030E040E251E40E941F02DC01CB01BC01AB
:1025A000CD010E944900DC01CB019E838D830FC0C9
:1025B00088EC90E09C838B838B819C810197F1F761
:1025C0009C838B838D819E8101979E838D838D81DA
:1025D0009E81009769F714C06F81788589859A85F7
:1025E0000E944900DC01CB019E838D838D819E81F9
:1025F0009A83898389819A810197F1F79A838983E4
:102600002E960FB6F894DEBF0FBECDBFCF91DF91EF
:102610000895DF93CF93CDB7DEB72D970FB6F8941B
:10262000DEBF0FBECDBF688779878A879B871F82F1
:102630001E821D8219821A821B821C8240C08981DF
:102640009A81AB81BC812AE030E040E050E0BC01DF
:10265000CD010E947935DC01CB0189839A83AB835C
:10266000BC8388859985AA85BB852AE030E040E057
:1026700050E0BC01CD010E949835DC01CB019C01EA
:10268000AD0189819A81AB81BC81820F931FA41F08
:10269000B51F89839A83AB83BC8388859985AA8576
:1026A000BB852AE030E040E050E0BC01CD010E9453
:1026B0009835DA01C90188879987AA87BB878885F9
:1026C0009985AA85BB850097A105B10509F0B7CF0B
:1026D0001D8295C089819A81AB81BC812AE030E05E
:1026E00040E050E0BC01CD010E949835DC01CB01F7
:1026F0008E8389819A81AB81BC812AE030E040E001
:1027000050E0BC01CD010E949835DA01C9018983EE
:102710009A83AB83BC838E81282F30E03D872C8742
:102720008C859D858430910509F44FC02C853D85AD
:1027300025303105D4F48C859D8581309105C9F112
:102740002C853D85223031052CF48C859D850097A4
:1027500061F152C02C853D852230310571F18C85A7
:102760009D858330910569F147C02C853D852730D3
:102770003105B9F18C859D85883091055CF42C85F7
:102780003D852530310529F18C859D858630910563
:1027900021F132C02C853D852830310531F18C8501
:1027A0009D858930910529F127C080E30E94401A58
:1027B00023C081E30E94401A1FC082E30E94401A96
:1027C0001BC083E30E94401A17C084E30E94401A92
:1027D00013C085E30E94401A0FC086E30E94401A8E
:1027E0000BC087E30E94401A07C088E30E94401A8A
:1027F00003C089E30E94401A8D818F5F8D83898198
:102800009A81AB81BC810097A105B10509F062CF27
:102810008F812D960FB6F894DEBF0FBECDBFCF913E
:10282000DF910895DF93CF93CDB7DEB727970FB62B
:10283000F894DEBF0FBECDBF8B836C834D831A82AD
:1028400019828B81883008F00BC18D81883208F0A5
:1028500007C18B81282F30E03F832E838E819F819B
:102860008430910509F47BC02E813F8125303105EC
:1028700094F48E819F818230910509F43EC02E81AF
:102880003F81233031050CF051C08E819F81813012
:102890009105D1F0E0C02E813F812630310509F449
:1028A00090C08E819F81863091050CF471C02E817D
:1028B0003F812730310509F49DC08E819F8188308A
:1028C000910509F4B0C0C7C080E40E942A1E198295
:1028D00010C02091BB013091BC018981882F90E00C
:1028E000F901E80FF91F80810E94401A89818F5FEA
:1028F00089838981883068F3AEC088E40E942A1EEB
:10290000198210C02091BD013091BE018981882FAC
:1029100090E0F901E80FF91F80810E94401A898137
:102920008F5F89838981883068F395C080E50E9434
:102930002A1E198210C02091BF013091C0018981E7
:10294000882F90E0F901E80FF91F80810E94401A5A
:1029500089818F5F89838981883068F37CC088E5AD
:102960000E942A1E198210C02091C1013091C2011B
:102970008981882F90E0F901E80FF91F80810E947A
:10298000401A89818F5F89838981883068F363C0A9
:1029900080E60E942A1E198210C02091C301309146
:1029A000C4018981882F90E0F901E80FF91F808127
:1029B0000E94401A89818F5F89838981883068F3FA
:1029C0004AC088E60E942A1E198210C02091C501C3
:1029D0003091C6018981882F90E0F901E80FF91F35
:1029E00080810E94401A89818F5F89838981883024
:1029F00068F331C080E70E942A1E198210C020911E
:102A0000C7013091C8018981882F90E0F901E80F52
:102A1000F91F80810E94401A89818F5F8983898193
:102A2000883068F318C088E70E942A1E198210C0F7
:102A30002091CB013091CC018981882F90E0F90160
:102A4000E80FF91F80810E94401A89818F5F898376
:102A50008981883068F38C816D810E94481202C0A0
:102A600081E08A838A8127960FB6F894DEBF0FBE75
:102A7000CDBFCF91DF910895DF93CF93CDB7DEB770
:102A800064970FB6F894DEBF0FBECDBF888B498B1D
:102A90005A8B6B8B7C8B1F867CC08CE10E942A1E1C
:102AA00069897A898B899C890E94A904DC01CB0100
:102AB0008B879C87AD87BE876B857C858D859E8542
:102AC00020E030E04AEF54E40E941F02DC01CB0119
:102AD0008F839887A987BA876F81788589859A853A
:102AE00020E030E040E85FE30E94250488232CF4D6
:102AF00081E090E09E838D833FC06F8178858985DA
:102B00009A8520E03FEF4FE757E40E94C50318166F
:102B10004CF56B857C858D859E8520E030E040E21C
:102B200051E40E941F02DC01CB01BC01CD010E94D7
:102B30004900DC01CB019E838D830FC088EC90E0BF
:102B40009C838B838B819C810197F1F79C838B8382
:102B50008D819E8101979E838D838D819E810097BB
:102B600069F714C06F81788589859A850E9449002C
:102B7000DC01CB019E838D838D819E819A83898325
:102B800089819A810197F1F79A8389838F858F5F75
:102B90008F879F858889981708F47FCF64960FB632
:102BA000F894DEBF0FBECDBFCF91DF910895DF93C4
:102BB000CF93CDB7DEB763970FB6F894DEBF0FBEE5
:102BC000CDBF688B798B8A8B9B8B1F868CE10E9493
:102BD0002A1E688979898A899B890E94A904DC0157
:102BE000CB018B879C87AD87BE876B857C858D8568
:102BF0009E8520E030E04AEF54E40E941F02DC0191
:102C0000CB018F839887A987BA876F81788589855B
:102C10009A8520E030E040E85FE30E9425048823A5
:102C20002CF481E090E09E838D833FC06F81788596
:102C300089859A8520E03FEF4FE757E40E94C5035E
:102C400018164CF56B857C858D859E8520E030E0DF
:102C500040E251E40E941F02DC01CB01BC01CD0126
:102C60000E944900DC01CB019E838D830FC088EC5C
:102C700090E09C838B838B819C810197F1F79C83EF
:102C80008B838D819E8101979E838D838D819E8113
:102C9000009769F714C06F81788589859A850E94AD
:102CA0004900DC01CB019E838D838D819E819A83B7
:102CB000898389819A810197F1F79A8389838F8526
:102CC00063960FB6F894DEBF0FBECDBFCF91DF91F4
:102CD0000895DF93CF93CDB7DEB764970FB6F8941E
:102CE000DEBF0FBECDBF888B498B5A8B6B8B7C8B25
:102CF0001F867CC088E10E942A1E69897A898B8997
:102D00009C890E94A904DC01CB018B879C87AD873D
:102D1000BE876B857C858D859E8520E030E04AEFFF
:102D200054E40E941F02DC01CB018F839887A9879E
:102D3000BA876F81788589859A8520E030E040E800
:102D40005FE30E94250488232CF481E090E09E83B9
:102D50008D833FC06F81788589859A8520E03FEF1C
:102D60004FE757E40E94C50318164CF56B857C8528
:102D70008D859E8520E030E040E251E40E941F02F4
:102D8000DC01CB01BC01CD010E944900DC01CB017B
:102D90009E838D830FC088EC90E09C838B838B8116
:102DA0009C810197F1F79C838B838D819E81019794
:102DB0009E838D838D819E81009769F714C06F81FA
:102DC000788589859A850E944900DC01CB019E8324
:102DD0008D838D819E819A83898389819A810197D0
:102DE000F1F79A8389838F858F5F8F879F85888985
:102DF000981708F47FCF64960FB6F894DEBF0FBE25
:102E0000CDBFCF91DF910895DF93CF9300D000D055
:102E1000CDB7DEB78A8319828A81893008F054C021
:102E20008A81282F30E03C832B838B819C818430E6
:102E30009105B1F12B813C812530310584F48B81E2
:102E40009C818230910521F12B813C812330310519
:102E50001CF58B819C8181309105B1F037C02B81AD
:102E60003C812630310521F18B819C818630910592
:102E7000DCF02B813C8127303105F1F08B819C8186
:102E800088309105E9F022C080E00E94401A1EC0FF
:102E900081E00E94401A1AC082E00E94401A16C0C7
:102EA00083E00E94401A12C084E00E94401A0EC0C3
:102EB00085E00E94401A0AC086E00E94401A06C0BF
:102EC00087E00E94401A02C081E0898389810F90C7
:102ED0000F900F900F90CF91DF9108950F931F9354
:102EE000DF93CF93CDB7DEB7CC54D0400FB6F89474
:102EF000DEBF0FBECDBFFE01E75BFF4F80E090E07D
:102F0000ACE0B2E480839183A283B3838E010B5B38
:102F10001F4FFE01E75BFF4F6081718182819381CA
:102F200020E030E04AEF54E40E941F02DC01CB01B4
:102F3000F80180839183A283B383FE01EB5BFF4F93
:102F4000608171818281938120E030E040E85FE31D
:102F50000E942504882344F4FE01ED5BFF4F81E0CD
:102F600090E09183808364C0FE01EB5BFF4F608142
:102F700071818281938120E03FEF4FE757E40E9407
:102F8000C50318160CF043C0FE01E75BFF4F6081DC
:102F900071818281938120E030E040E251E40E941F
:102FA0001F02DC01CB018E010D5B1F4FBC01CD0167
:102FB0000E944900DC01CB01F801918380831FC08E
:102FC000FE01EF5BFF4F88EC90E091838083FE0170
:102FD000EF5BFF4F808191810197F1F7FE01EF5B7D
:102FE000FF4F91838083DE01AD5BBF4FFE01ED5B40
:102FF000FF4F80819181019711969C938E93FE01E2
:10300000ED5BFF4F808191810097D1F624C08E0146
:103010000D5B1F4FFE01EB5BFF4F60817181828171
:1030200093810E944900DC01CB01F80191838083E8
:10303000FE01ED5BFF4F80819181FE01FF96918340
:103040008083FE01FF96808191810197F1F7FE0157
:10305000FF969183808380E20E94BA0E80E20E94F4
:10306000BA0E80EC0E94BA0E80E090E0A0E2B2E4DA
:103070008BAF9CAFADAFBEAF6BAD7CAD8DAD9EAD3C
:103080002BEA3AEA4AE250E40E941F02DC01CB013B
:103090008FAB98AFA9AFBAAF6FA978AD89AD9AAD34
:1030A00020E030E040E85FE30E94250488231CF420
:1030B00081E08EAB91C06FA978AD89AD9AAD20E06B
:1030C00030E04FE753E40E94C50318160CF07BC0B4
:1030D0006BAD7CAD8DAD9EAD20E030E04AE754E4B1
:1030E0000E941903DC01CB018AAB9BABACABBDAB3F
:1030F0006AA97BA98CA99DA920E030E04AEF54E49D
:103100000E941F02DC01CB018EA79FA7A8ABB9AB21
:103110006EA57FA588A999A920E030E040E85FE38B
:103120000E94250488232CF481E090E09DA78CA7C1
:103130003FC06EA57FA588A999A920E03FEF4FE782
:1031400057E40E94C50318164CF56AA97BA98CA9FF
:103150009DA920E030E040E251E40E941F02DC0122
:10316000CB01BC01CD010E944900DC01CB019DA730
:103170008CA70FC088EC90E09BA78AA78AA59BA587
:103180000197F1F79BA78AA78CA59DA501979DA7FD
:103190008CA78CA59DA5009769F724C06EA57FA577
:1031A00088A999A90E944900DC01CB019DA78CA7A1
:1031B0008CA59DA599A788A788A599A50197F1F742
:1031C00099A788A70FC06FA978AD89AD9AAD0E9465
:1031D0004900DC01CB018EAB8EA98FA38FA18A950C
:1031E000F1F78FA380E00E94BA0E80EF0E94BA0E22
:1031F00080E090E0A0E2B2E48BA39CA3ADA3BEA3C9
:103200006BA17CA18DA19EA12BEA3AEA4AE250E48F
:103210000E941F02DC01CB018F8F98A3A9A3BAA340
:103220006F8D78A189A19AA120E030E040E85FE3AA
:103230000E94250488231CF481E08E8F91C06F8D3D
:1032400078A189A19AA120E030E04FE753E40E94E1
:10325000C50318160CF07BC06BA17CA18DA19EA1AB
:1032600020E030E04AE754E40E941903DC01CB017E
:103270008A8F9B8FAC8FBD8F6A8D7B8D8C8D9D8D42
:1032800020E030E04AEF54E40E941F02DC01CB0151
:103290008E8B9F8BA88FB98F6E897F89888D998D32
:1032A00020E030E040E85FE30E94250488232CF40E
:1032B00081E090E09D8B8C8B3FC06E897F89888DEB
:1032C000998D20E03FEF4FE757E40E94C5031816A1
:1032D0004CF56A8D7B8D8C8D9D8D20E030E040E239
:1032E00051E40E941F02DC01CB01BC01CD010E9410
:1032F0004900DC01CB019D8B8C8B0FC088EC90E0EA
:103300009B8B8A8B8A899B890197F1F79B8B8A8B90
:103310008C899D8901979D8B8C8B8C899D890097C9
:1033200069F724C06E897F89888D998D0E94490034
:10333000DC01CB019D8B8C8B8C899D89998B888B33
:10334000888999890197F1F7998B888B0FC06F8DC8
:1033500078A189A19AA10E944900DC01CB018E8F3E
:103360008E8D8F878F858A95F1F78F8780E00E94F9
:10337000BA0E80E10E94BA0E80E090E0A0E0B0E4D6
:103380008B879C87AD87BE876B857C858D859E8569
:1033900020E030E04AEF54E40E941F02DC01CB0140
:1033A0008F839887A987BA876F81788589859A8561
:1033B00020E030E040E85FE30E94250488232CF4FD
:1033C00081E090E09E838D833FC06F817885898501
:1033D0009A8520E03FEF4FE757E40E94C503181697
:1033E0004CF56B857C858D859E8520E030E040E244
:1033F00051E40E941F02DC01CB01BC01CD010E94FF
:103400004900DC01CB019E838D830FC088EC90E0E6
:103410009C838B838B819C810197F1F79C838B83A9
:103420008D819E8101979E838D838D819E810097E2
:1034300069F714C06F81788589859A850E94490053
:10344000DC01CB019E838D838D819E819A8389834C
:1034500089819A810197F1F79A83898380E00E949C
:10346000BA0E80E60E94BA0EC45BDF4F0FB6F89426
:10347000DEBF0FBECDBFCF91DF911F910F91089599
:103480000F931F93DF93CF93CDB7DEB7C256D040D3
:103490000FB6F894DEBF0FBECDBFFE01EE59FF4F51
:1034A0008083FE01EF59FF4F108283E060E041E02E
:1034B0000E94670883E061E040E00E946708FE0127
:1034C000EE59FF4F8081982F907F82E0692F0E94F4
:1034D0004A0B83E062E041E00E946708FE01E35A84
:1034E000FF4F80E090E0A0E8BFE380839183A28358
:1034F000B3838E01075A1F4FFE01E35AFF4F6081CD
:103500007181828193812BEA3AEA4AE250E40E9477
:103510001F02DC01CB01F80180839183A283B38376
:10352000FE01E75AFF4F608171818281938120E023
:1035300030E040E85FE30E942504882334F4FE0174
:10354000E85AFF4F81E08083E0C0FE01E75AFF4F59
:10355000608171818281938120E030E04FE753E404
:103560000E94C50318160CF0C0C0FE01E35AFF4FBD
:10357000608171818281938120E030E04AE754E4E8
:103580000E941903DC01CB01FE01EC5AFF4F80833E
:103590009183A283B3838E01005B1F4FFE01EC5A1F
:1035A000FF4F608171818281938120E030E04AEF9A
:1035B00054E40E941F02DC01CB01F8018083918357
:1035C000A283B383FE01E05BFF4F60817181828142
:1035D000938120E030E040E85FE30E9425048823E7
:1035E00044F4FE01E25BFF4F81E090E09183808331
:1035F00064C0FE01E05BFF4F608171818281938135
:1036000020E03FEF4FE757E40E94C50318160CF087
:1036100043C0FE01EC5AFF4F60817181828193812A
:1036200020E030E040E251E40E941F02DC01CB01C7
:103630008E01025B1F4FBC01CD010E944900DC01DD
:10364000CB01F801918380831FC0FE01E45BFF4F33
:1036500088EC90E091838083FE01E45BFF4F8081E2
:1036600091810197F1F7FE01E45BFF4F9183808325
:10367000DE01A25BBF4FFE01E25BFF4F80819181C3
:10368000019711969C938E93FE01E25BFF4F808120
:1036900091810097D1F64BC08E01025B1F4FFE0156
:1036A000E05BFF4F60817181828193810E944900BC
:1036B000DC01CB01F80191838083DE01A65BBF4F63
:1036C000FE01E25BFF4F8081918111969C938E9366
:1036D000FE01E65BFF4F808191810197F1F7FE01CA
:1036E000E65BFF4F9183808322C08E01085A1F4FF3
:1036F000FE01E75AFF4F60817181828193810E94B0
:103700004900DC01CB01F8018083DE01A75BBF4FDC
:10371000FE01E85AFF4F80818C93FE01E75BFF4F6B
:1037200080818A95F1F7FE01E75BFF4F808383E09C
:1037300062E040E00E946708FE01EB5BFF4F80E023
:1037400090E0A0E8BFE380839183A283B3838E01DE
:103750000F5B1F4FFE01EB5BFF4F60817181828128
:1037600093812BEA3AEA4AE250E40E941F02DC010C
:10377000CB01F80180839183A283B383FE01EF5BC9
:10378000FF4F608171818281938120E030E040E8C9
:103790005FE30E942504882334F481E0FE01E05CAD
:1037A000FF4F80839DC0FE01EF5BFF4F6081718101
:1037B0008281938120E030E04FE753E40E94C5030B
:1037C00018160CF07EC0FE01EB5BFF4F608171812B
:1037D0008281938120E030E04AE754E40E9419039B
:1037E000DC01CB018CAF9DAFAEAFBFAF6CAD7DAD9B
:1037F0008EAD9FAD20E030E04AEF54E40E941F02FE
:10380000DC01CB0188AF99AFAAAFBBAF68AD79AD92
:103810008AAD9BAD20E030E040E85FE30E942504E4
:1038200088232CF481E090E09FAB8EAB3FC068AD65
:1038300079AD8AAD9BAD20E03FEF4FE757E40E94A2
:10384000C50318164CF56CAD7DAD8EAD9FAD20E077
:1038500030E040E251E40E941F02DC01CB01BC01D8
:10386000CD010E944900DC01CB019FAB8EAB0FC0A4
:1038700088EC90E09DAB8CAB8CA99DA90197F1F7EA
:103880009DAB8CAB8EA99FA901979FAB8EAB8EA9E8
:103890009FA9009769F72DC068AD79AD8AAD9BAD42
:1038A0000E944900DC01CB019FAB8EAB8EA99FA982
:1038B0009BAB8AAB8AA99BA90197F1F79BAB8AAB1B
:1038C00018C0FE01EF5BFF4F60817181828193819F
:1038D0000E944900DC01CB01FE01E05CFF4F8083C8
:1038E000FE01E05CFF4F808189AB89A98A95F1F7E1
:1038F00089AB83E060E041E00E94670883E061E01B
:1039000040E00E946708FE01EE59FF4F8081882F3A
:1039100090E082959295907F9827807F9827982FA6
:1039200082E0692F0E944A0B83E062E041E00E943E
:10393000670880E090E0A0E8BFE38DA79EA7AFA74F
:10394000B8AB6DA57EA58FA598A92BEA3AEA4AE205
:1039500050E40E941F02DC01CB0189A79AA7ABA704
:10396000BCA769A57AA58BA59CA520E030E040E81E
:103970005FE30E94250488231CF481E088A791C09E
:1039800069A57AA58BA59CA520E030E04FE753E41C
:103990000E94C50318160CF07BC06DA57EA58FA5EF
:1039A00098A920E030E04AE754E40E941903DC01C2
:1039B000CB018CA39DA3AEA3BFA36CA17DA18EA1BF
:1039C0009FA120E030E04AEF54E40E941F02DC0196
:1039D000CB0188A399A3AAA3BBA368A179A18AA1BB
:1039E0009BA120E030E040E85FE30E9425048823AB
:1039F0002CF481E090E09F8F8E8F3FC068A179A169
:103A00008AA19BA120E03FEF4FE757E40E94C50346
:103A100018164CF56CA17DA18EA19FA120E030E08D
:103A200040E251E40E941F02DC01CB01BC01CD0148
:103A30000E944900DC01CB019F8F8E8F0FC088EC64
:103A400090E09D8F8C8F8C8D9D8D0197F1F79D8FD0
:103A50008C8F8E8D9F8D01979F8F8E8F8E8D9F8DDA
:103A6000009769F724C068A179A18AA19BA10E944F
:103A70004900DC01CB019F8F8E8F8E8D9F8D9B8F98
:103A80008A8F8A8D9B8D0197F1F79B8F8A8F0FC04C
:103A900069A57AA58BA59CA50E944900DC01CB01F4
:103AA00088A788A5898F898D8A95F1F7898F83E00A
:103AB00062E040E00E94670880E090E0A0E8BFE399
:103AC0008D8B9E8BAF8BB88F6D897E898F89988DFA
:103AD0002BEA3AEA4AE250E40E941F02DC01CB01E1
:103AE000898B9A8BAB8BBC8B69897A898B899C89F2
:103AF00020E030E040E85FE30E94250488231CF4C6
:103B000081E0888B91C069897A898B899C8920E0C2
:103B100030E04FE753E40E94C50318160CF07BC059
:103B20006D897E898F89988D20E030E04AE754E4E2
:103B30000E941903DC01CB018C879D87AE87BF876C
:103B40006C857D858E859F8520E030E04AEF54E4CA
:103B50000E941F02DC01CB0188879987AA87BB8757
:103B6000688579858A859B8520E030E040E85FE3C1
:103B70000E94250488232CF481E090E09F838E83AB
:103B80003FC0688579858A859B8520E03FEF4FE7B8
:103B900057E40E94C50318164CF56C857D858E850B
:103BA0009F8520E030E040E251E40E941F02DC01EA
:103BB000CB01BC01CD010E944900DC01CB019F83F8
:103BC0008E830FC088EC90E09D838C838C819D81D7
:103BD0000197F1F79D838C838E819F8101979F834D
:103BE0008E838E819F81009769F724C068857985CF
:103BF0008A859B850E944900DC01CB019F838E83CF
:103C00008E819F819B838A838A819B810197F1F7B3
:103C10009B838A830FC069897A898B899C890E94DA
:103C20004900DC01CB01888B8889898389818A9549
:103C3000F1F78983FE01EF59FF4F8081CE59DF4FA5
:103C40000FB6F894DEBF0FBECDBFCF91DF911F91AD
:103C50000F9108950F931F93DF93CF93CDB7DEB7E6
:103C6000C256D0400FB6F894DEBF0FBECDBFFE01E6
:103C7000EE59FF4F8083FE01EF59FF4F108283E022
:103C800060E040E00E94670883E061E040E00E945D
:103C90006708FE01EE59FF4F8081982F907F82E0E8
:103CA000692F0E944A0B83E062E041E00E946708AE
:103CB000FE01E35AFF4F80E090E0A0E8BFE380837D
:103CC0009183A283B3838E01075A1F4FFE01E35AEB
:103CD000FF4F60817181828193812BEA3AEA4AE247
:103CE00050E40E941F02DC01CB01F8018083918324
:103CF000A283B383FE01E75AFF4F60817181828105
:103D0000938120E030E040E85FE30E9425048823AF
:103D100034F4FE01E85AFF4F81E08083E0C0FE01E9
:103D2000E75AFF4F608171818281938120E030E00A
:103D30004FE753E40E94C50318160CF0C0C0FE0103
:103D4000E35AFF4F608171818281938120E030E0EE
:103D50004AE754E40E941903DC01CB01FE01EC5A4E
:103D6000FF4F80839183A283B3838E01005B1F4F3B
:103D7000FE01EC5AFF4F608171818281938120E0C6
:103D800030E04AEF54E40E941F02DC01CB01F8014D
:103D900080839183A283B383FE01E05BFF4F608148
:103DA00071818281938120E030E040E85FE30E94EE
:103DB0002504882344F4FE01E25BFF4F81E090E09C
:103DC0009183808364C0FE01E05BFF4F608171815D
:103DD0008281938120E03FEF4FE757E40E94C503C3
:103DE00018160CF043C0FE01EC5AFF4F6081718140
:103DF0008281938120E030E040E251E40E941F0282
:103E0000DC01CB018E01025B1F4FBC01CD010E9482
:103E10004900DC01CB01F801918380831FC0FE01C2
:103E2000E45BFF4F88EC90E091838083FE01E45BCC
:103E3000FF4F808191810197F1F7FE01E45BFF4F15
:103E400091838083DE01A25BBF4FFE01E25BFF4FE7
:103E500080819181019711969C938E93FE01E25B84
:103E6000FF4F808191810097D1F64BC08E01025B9C
:103E70001F4FFE01E05BFF4F608171818281938162
:103E80000E944900DC01CB01F80191838083DE01AF
:103E9000A65BBF4FFE01E25BFF4F808191811196CF
:103EA0009C938E93FE01E65BFF4F80819181019789
:103EB000F1F7FE01E65BFF4F9183808322C08E0104
:103EC000085A1F4FFE01E75AFF4F608171818281BE
:103ED00093810E944900DC01CB01F8018083DE015F
:103EE000A75BBF4FFE01E85AFF4F80818C93FE0114
:103EF000E75BFF4F80818A95F1F7FE01E75BFF4F9B
:103F0000808383E062E040E00E946708FE01EB5B93
:103F1000FF4F80E090E0A0E8BFE380839183A2831D
:103F2000B3838E010F5B1F4FFE01EB5BFF4F608180
:103F30007181828193812BEA3AEA4AE250E40E943D
:103F40001F02DC01CB01F80180839183A283B3833C
:103F5000FE01EF5BFF4F608171818281938120E0E0
:103F600030E040E85FE30E942504882334F481E0D8
:103F7000FE01E05CFF4F80839DC0FE01EF5BFF4FC1
:103F8000608171818281938120E030E04FE753E4CA
:103F90000E94C50318160CF07EC0FE01EB5BFF4FBC
:103FA000608171818281938120E030E04AE754E4AE
:103FB0000E941903DC01CB018CAF9DAFAEAFBFAF48
:103FC0006CAD7DAD8EAD9FAD20E030E04AEF54E4A6
:103FD0000E941F02DC01CB0188AF99AFAAAFBBAF33
:103FE00068AD79AD8AAD9BAD20E030E040E85FE39D
:103FF0000E94250488232CF481E090E09FAB8EABD7
:104000003FC068AD79AD8AAD9BAD20E03FEF4FE793
:1040100057E40E94C50318164CF56CAD7DAD8EAD0E
:104020009FAD20E030E040E251E40E941F02DC013D
:10403000CB01BC01CD010E944900DC01CB019FAB4B
:104040008EAB0FC088EC90E09DAB8CAB8CA99DA98A
:104050000197F1F79DAB8CAB8EA99FA901979FAB00
:104060008EAB8EA99FA9009769F72DC068AD79AD79
:104070008AAD9BAD0E944900DC01CB019FAB8EABAA
:104080008EA99FA99BAB8AAB8AA99BA90197F1F73F
:104090009BAB8AAB18C0FE01EF5BFF4F6081718163
:1040A000828193810E944900DC01CB01FE01E05C2A
:1040B000FF4F8083FE01E05CFF4F808189AB89A9BF
:1040C0008A95F1F789AB83E060E040E00E946708E1
:1040D00083E061E040E00E946708FE01EE59FF4F77
:1040E0008081882F90E082959295907F9827807F9D
:1040F0009827982F82E0692F0E944A0B83E062E0A4
:1041000041E00E94670880E090E0A0E8BFE38DA74F
:104110009EA7AFA7B8AB6DA57EA58FA598A92BEAE2
:104120003AEA4AE250E40E941F02DC01CB0189A76F
:104130009AA7ABA7BCA769A57AA58BA59CA520E0EB
:1041400030E040E85FE30E94250488231CF481E00E
:1041500088A791C069A57AA58BA59CA520E030E031
:104160004FE753E40E94C50318160CF07BC06DA501
:104170007EA58FA598A920E030E04AE754E40E948C
:104180001903DC01CB018CA39DA3AEA3BFA36CA13B
:104190007DA18EA19FA120E030E04AEF54E40E946F
:1041A0001F02DC01CB0188A399A3AAA3BBA368A12A
:1041B00079A18AA19BA120E030E040E85FE30E9462
:1041C000250488232CF481E090E09F8F8E8F3FC0E0
:1041D00068A179A18AA19BA120E03FEF4FE757E4B6
:1041E0000E94C50318164CF56CA17DA18EA19FA15C
:1041F00020E030E040E251E40E941F02DC01CB01EC
:10420000BC01CD010E944900DC01CB019F8F8E8F44
:104210000FC088EC90E09D8F8C8F8C8D9D8D0197C9
:10422000F1F79D8F8C8F8E8D9F8D01979F8F8E8F35
:104230008E8D9F8D009769F724C068A179A18AA10E
:104240009BA10E944900DC01CB019F8F8E8F8E8D38
:104250009F8D9B8F8A8F8A8D9B8D0197F1F79B8F06
:104260008A8F0FC069A57AA58BA59CA50E944900DD
:10427000DC01CB0188A788A5898F898D8A95F1F704
:10428000898F83E062E040E00E94670880E090E070
:10429000A0E8BFE38D8B9E8BAF8BB88F6D897E8935
:1042A0008F89988D2BEA3AEA4AE250E40E941F0275
:1042B000DC01CB01898B9A8BAB8BBC8B69897A89AA
:1042C0008B899C8920E030E040E85FE30E94250470
:1042D00088231CF481E0888B91C069897A898B8955
:1042E0009C8920E030E04FE753E40E94C503181694
:1042F0000CF07BC06D897E898F89988D20E030E03D
:104300004AE754E40E941903DC01CB018C879D87A6
:10431000AE87BF876C857D858E859F8520E030E0E8
:104320004AEF54E40E941F02DC01CB018887998781
:10433000AA87BB87688579858A859B8520E030E0E0
:1043400040E85FE30E94250488232CF481E090E09C
:104350009F838E833FC0688579858A859B8520E011
:104360003FEF4FE757E40E94C50318164CF56C85E4
:104370007D858E859F8520E030E040E251E40E94FB
:104380001F02DC01CB01BC01CD010E944900DC0110
:10439000CB019F838E830FC088EC90E09D838C833C
:1043A0008C819D810197F1F79D838C838E819F8104
:1043B00001979F838E838E819F81009769F724C028
:1043C000688579858A859B850E944900DC01CB013F
:1043D0009F838E838E819F819B838A838A819B8129
:1043E0000197F1F79B838A830FC069897A898B894A
:1043F0009C890E944900DC01CB01888B88898983D4
:1044000089818A95F1F78983FE01EF59FF4F8081F9
:10441000CE59DF4F0FB6F894DEBF0FBECDBFCF91A0
:10442000DF911F910F910895DF93CF93CDB7DEB742
:1044300027970FB6F894DEBF0FBECDBF9D838C8348
:104440006E834F838AE190E00E94EC249A838983F3
:1044500089819A81009709F46FC08091D60190916B
:10446000D701009741F489819A819093D701809375
:10447000D6010E947B248E81823010F081E08E83F1
:10448000E981FA81118E108EE981FA818E81868B05
:10449000E981FA818F81878BE981FA818C819D8105
:1044A0009183808389819A8102960E9482258981E5
:1044B0009A810C960E948225E981FA8189819A81EC
:1044C00091878087E981FA8189819A81938B828B98
:1044D0008E81282F30E085E090E0821B930BE981EC
:1044E000FA8195878487E981FA8196898091D8013C
:1044F000891728F4E981FA8186898093D801E981B6
:10450000FA818689282F30E0C901880F991F880F0A
:10451000991F880F991F820F931FAC0141525E4F64
:1045200089819A819C012E5F3F4FCA01B9010E9487
:10453000922581E08B8302C08FEF8B838B8127963E
:104540000FB6F894DEBF0FBECDBFCF91DF910895B7
:10455000DF93CF9300D000D000D0CDB7DEB79C83DF
:104560008B837E836D832091D9013091DA018B8119
:104570009C81820F931F9A8389838091D6019091A9
:10458000D70102960E944A26E091D601F091D70108
:1045900089819A81938382832091D9013091DA01B4
:1045A00089819A818217930770F480910502909116
:1045B00006022091D6013091D7012E5F3F4FB901FD
:1045C0000E94DE250DC0809103029091040220918B
:1045D000D6013091D7012E5F3F4FB9010E94DE25F1
:1045E0008D819E81009761F08091D6019091D701D5
:1045F0009C01245F3F4F8D819E81B9010E94DE2581
:1046000026960FB6F894DEBF0FBECDBFCF91DF91D7
:104610000895DF93CF9300D0CDB7DEB73AC0F894BA
:10462000E0910C02F0910D02868197819A83898333
:1046300089819A810C960E944A26789489819A8170
:1046400002960E944A26E981FA8196898091D801D2
:10465000891728F4E981FA8186898093D801E98154
:10466000FA818689282F30E0C901880F991F880FA9
:10467000991F880F991F820F931FAC0141525E4F03
:1046800089819A819C012E5F3F4FCA01B9010E9426
:10469000922580910702882309F0C1CF0F900F90D7
:1046A000CF91DF910895DF93CF9300D000D0CDB7A5
:1046B000DEB70E9460312091DB013091DC01821B6A
:1046C000930B9093DE018093DD0185C08091D90129
:1046D0009091DA0101969093DA018093D90180914B
:1046E000DD019091DE0101979093DE018093DD0161
:1046F0008091D9019091DA01009709F064C080910E
:104700000302909104029A8389838091050290911B
:104710000602909304028093030289819A81909308
:104720000602809305024FC0E0910302F09104025B
:104730000580F681E02D868197819C838B83EB81B8
:10474000FC81228133818091D9019091DA01821715
:10475000930708F440C0F8948B819C8102960E94D4
:104760004A26EB81FC8184899589009729F08B8109
:104770009C810C960E944A267894EB81FC81968954
:104780008091D801891728F4EB81FC818689809378
:10479000D801EB81FC818689282F30E0C901880F80
:1047A000991F880F991F880F991F820F931FAC01C3
:1047B00041525E4F8B819C819C012E5F3F4FCA010D
:1047C000B9010E949225E0910302F09104028081D8
:1047D000882309F0A9CF8091DD019091DE01009737
:1047E00009F074CF8091D9019091DA019093DC01A6
:1047F0008093DB010F900F900F900F90CF91DF917E
:104800000895DF93CF9300D0CDB7DEB70E94092380
:104810000E9453230AC08091D801882309F466C0FE
:104820008091D80181508093D8018091D801282FA0
:1048300030E0C901880F991F880F991F880F991FB1
:10484000820F931FFC01E152FE4F8081882319F3F0
:104850008091D801282F30E0C901880F991F880F57
:10486000991F880F991F820F931F81529E4F9A8321
:104870008983E981FA810180F281E02D828193812F
:10488000E981FA8192838183E981FA8121813281F0
:1048900089819A8103962817390759F4E981FA81A9
:1048A0000180F281E02D82819381E981FA819283F6
:1048B0008183E981FA810180F281E02D86819781EF
:1048C0009093D7018093D601E091D601F091D70162
:1048D000408151818091D6019091D701E091D6011C
:1048E000F091D7012789622FFA0109950F900F9057
:1048F000CF91DF910895DF93CF930F92CDB7DEB7BD
:10490000198213C08981282F30E0C901880F991FAF
:10491000880F991F880F991F820F931F81529E4FF6
:104920000E94582589818F5F89838981823050F365
:1049300081EF91E00E9458258AEF91E00E9458256E
:1049400087E092E00E94582581EF91E09093040265
:10495000809303028AEF91E0909306028093050210
:104960000F90CF91DF910895DF93CF9300D000D0C7
:104970000F92CDB7DEB79D838C83EC81FD810580DE
:10498000F681E02D868197819B838A838A819B8132
:104990000C960E944A268A819B819C01245F3F4F8E
:1049A00087E092E0B9010E949225EA81FB81968915
:1049B000E091D601F091D7018689981718F081E02F
:1049C000898301C0198289810F900F900F900F90F9
:1049D0000F90CF91DF910895DF93CF9300D000D057
:1049E000CDB7DEB79C838B831A8219820E94CA30AE
:1049F00080911002909111022B813C81820F931FB4
:104A000023E0883E920718F52091100230911102A0
:104A10008B819C81280F391F809110029091110287
:104A200082179307A0F480911002909111028E5E7C
:104A30009D4F9A83898320911002309111028B81BE
:104A40009C81820F931F90931102809310020E9409
:104A5000D63089819A810F900F900F900F90CF914F
:104A6000DF910895DF93CF9300D0CDB7DEB79A835F
:104A700089830F900F90CF91DF910895DF93CF93AB
:104A8000CDB7DEB71092110210921002CF91DF91D4
:104A90000895DF93CF93CDB7DEB720911002309108
:104AA000110288EE93E0821B930BCF91DF91089562
:104AB000DF93CF9300D0CDB7DEB79A838983898106
:104AC0009A810396E981FA8192838183E981FA814F
:104AD0008FEF9FEF9483838389819A810396E98185
:104AE000FA819683858389819A810396E981FA8187
:104AF00090878783E981FA8110820F900F90CF9180
:104B0000DF910895DF93CF9300D0CDB7DEB79A83BE
:104B10008983E981FA81118610860F900F90CF91D9
:104B2000DF910895DF93CF9300D000D000D0CDB7B0
:104B3000DEB79C838B837E836D83EB81FC818181D7
:104B400092819A838983E981FA8182819381ED81BF
:104B5000FE8193838283EB81FC8181819281ED814F
:104B6000FE8195838483E981FA810280F381E02DBF
:104B70008D819E81958384838D819E81E981FA81D7
:104B8000938382838D819E81EB81FC8192838183DB
:104B9000ED81FE818B819C8191878087EB81FC81F7
:104BA00080818F5FEB81FC81808326960FB6F8941D
:104BB000DEBF0FBECDBFCF91DF910895DF93CF93BE
:104BC000CDB7DEB728970FB6F894DEBF0FBECDBFC6
:104BD0009E838D8378876F83EF81F88580819181B3
:104BE0009A83898389819A812FEF8F3F920739F4C5
:104BF000ED81FE81878190859C838B8318C08D8198
:104C00009E8103969C838B8306C0EB81FC8182810D
:104C100093819C838B83EB81FC810280F381E02D67
:104C20002081318189819A818217930770F7EB8106
:104C3000FC8182819381EF81F88593838283EF8168
:104C4000F8850280F381E02D8F8198859583848398
:104C5000EF81F8858B819C81958384838F819885F2
:104C6000EB81FC8193838283EF81F8858D819E8126
:104C700091878087ED81FE8180818F5FED81FE814C
:104C8000808328960FB6F894DEBF0FBECDBFCF91BC
:104C9000DF910895DF93CF9300D000D0CDB7DEB77A
:104CA0009C838B83EB81FC81A281B381EB81FC81AE
:104CB0008481958115969C938E931497EB81FC814A
:104CC000A481B581EB81FC818281938113969C93B1
:104CD0008E931297EB81FC81808591859A838983DD
:104CE000E981FA81218132818B819C8128173907E2
:104CF00041F4EB81FC8184819581E981FA81928381
:104D00008183EB81FC8111861086E981FA818081A3
:104D10008150E981FA8180830F900F900F900F905E
:104D2000CF91DF910895AF92BF92CF92DF92EF9231
:104D3000FF920F93DF93CF93CDB7DEB70E94170793
:104D40000E946E1781E060E00E940D2A90935E063B
:104D500080935D0680915D0690915E06009759F004
:104D600080915D0690915E0660E070E040E050E06A
:104D700020E00E94B62A8BEE96E260E070E048ECFC
:104D800050E020E030E001E0EE24FF24CC24DD24DC
:104D9000AA24BB240E948E2E83E197E260E070E09B
:104DA00048EC50E020E030E001E0EE24FF24CC2489
:104DB000DD24AA24BB240E948E2E0E94873080E02E
:104DC00090E0CF91DF910F91FF90EF90DF90CF9027
:104DD000BF90AF900895DF93CF9300D0CDB7DEB7EB
:104DE0009A83898380915D0690915E0660E070E011
:104DF0004FEF5FEF20E00E94A12B813099F780E612
:104E000090E00E940E1280915D0690915E0660E037
:104E100070E040E050E020E00E94B62A88EE93E087
:104E20000E945230DFCFDF93CF9300D0CDB7DEB7F3
:104E30009A83898380915D0690915E0660E070E0C0
:104E40004FEF5FEF20E00E94A12B813099F78BE6B6
:104E500090E00E940E1280915D0690915E0660E0E7
:104E600070E040E050E020E00E94B62A88EE93E037
:104E70000E945230DFCFDF93CF93CDB7DEB72897B4
:104E80000FB6F894DEBF0FBECDBF9C838B837E83AD
:104E90006D8358874F83EB81FC8181E180838B8117
:104EA0009C8101979C838B83EB81FC8182E28083D0
:104EB0008B819C8101979C838B83EB81FC8183E3B5
:104EC00080838B819C8101979C838B838D819E81C4
:104ED0009A8389838981EB81FC8180838B819C818A
:104EE00001979C838B8389819A81892F99279A8343
:104EF00089838981EB81FC8180838B819C810197EF
:104F00009C838B83EB81FC8110828B819C81019738
:104F10009C838B83EB81FC8180E880838B819C81E7
:104F200001979C838B83EB81FC8110828B819C8118
:104F300001979C838B83EB81FC8182E080838B8152
:104F40009C8101979C838B83EB81FC8183E0808330
:104F50008B819C8101979C838B83EB81FC8184E016
:104F600080838B819C8101979C838B83EB81FC8167
:104F700085E080838B819C8101979C838B83EB816F
:104F8000FC8186E080838B819C8101979C838B834D
:104F9000EB81FC8187E080838B819C8101979C83DE
:104FA0008B83EB81FC8188E080838B819C810197DE
:104FB0009C838B83EB81FC8189E080838B819C8146
:104FC00001979C838B83EB81FC8180E180838B81C3
:104FD0009C8101979C838B83EB81FC8181E18083A1
:104FE0008B819C8101979C838B83EB81FC8182E187
:104FF00080838B819C8101979C838B83EB81FC81D7
:1050000083E180838B819C8101979C838B83EB81DF
:10501000FC8184E180838B819C8101979C838B83BD
:10502000EB81FC8185E180838B819C8101979C834E
:105030008B83EB81FC8186E180838B819C8101974E
:105040009C838B83EB81FC8187E180838B819C81B6
:1050500001979C838B83EB81FC8188E180838B812A
:105060009C8101979C838B83EB81FC8189E1808308
:105070008B819C8101979C838B83EB81FC8180E2F7
:1050800080838B819C8101979C838B83EB81FC8146
:1050900081E280838B819C8101979C838B83EB8150
:1050A000FC8182E280838B819C8101979C838B832E
:1050B000EB81FC8183E280838B819C8101979C83BF
:1050C0008B838F8198859A8389838981EB81FC8189
:1050D00080838B819C8101979C838B8389819A81BA
:1050E000892F99279A8389838981EB81FC81808329
:1050F0008B819C8101979C838B83EB81FC8186E271
:1051000080838B819C8101979C838B83EB81FC81C5
:1051100087E280838B819C8101979C838B83EB81C9
:10512000FC8188E280838B819C8101979C838B83A7
:10513000EB81FC8189E280838B819C8101979C8338
:105140008B83EB81FC8180E380838B819C81019741
:105150009C838B83EB81FC8181E380838B819C81A9
:1051600001979C838B838B819C8128960FB6F89442
:10517000DEBF0FBECDBFCF91DF910895DF93CF93F8
:10518000CDB7DEB70E94AE29A091FA05B091FB051C
:10519000CD91CDBFDD91DEBFFF91EF91DF91CF913A
:1051A000BF91AF919F918F917F916F915F914F913F
:1051B0003F912F911F910F91FF90EF90DF90CF9033
:1051C000BF90AF909F908F907F906F905F904F9027
:1051D0003F902F901F900F900FBE0F90089581E089
:1051E000CF91DF910895DF93CF93CDB7DEB7CF9105
:1051F000DF9108950F920FB6F8940F921F92112429
:105200002F923F924F925F926F927F928F929F92D6
:10521000AF92BF92CF92DF92EF92FF920F931F93C4
:105220002F933F934F935F936F937F938F939F93AE
:10523000AF93BF93CF93DF93EF93FF93A091FA05C2
:10524000B091FB050DB60D920EB60D920E946A321A
:10525000A091FA05B091FB05CD91CDBFDD91DEBFE8
:10526000FF91EF91DF91CF91BF91AF919F918F917E
:105270007F916F915F914F913F912F911F910F916E
:10528000FF90EF90DF90CF90BF90AF909F908F9066
:105290007F906F905F904F903F902F901F900F9056
:1052A0000FBE0F9008950F920FB6F8940F921F92B1
:1052B00011242F923F924F925F926F927F928F9222
:1052C0009F92AF92BF92CF92DF92EF92FF920F9395
:1052D0001F932F933F934F935F936F937F938F937E
:1052E0009F93AF93BF93CF93DF93EF93FF93A091DF
:1052F000FA05B091FB050DB60D920EB60D920E9407
:1053000095310E946A32A091FA05B091FB05CD91CA
:10531000CDBFDD91DEBFFF91EF91DF91CF91BF91C6
:10532000AF919F918F917F916F915F914F913F913D
:105330002F911F910F91FF90EF90DF90CF90BF9032
:10534000AF909F908F907F906F905F904F903F9025
:105350002F901F900F900FBE0F900895DF93CF9363
:1053600000D000D000D0CDB7DEB780E898E3A1E050
:10537000B0E08B839C83AD83BE838B819C81AD81A8
:10538000BE81689415F8B695A7959795879516945C
:10539000D1F78B839C83AD83BE838B819C81AD8150
:1053A000BE810197A109B1098B839C83AD83BE8324
:1053B0008B8189838B819C81AD81BE81892F9A2FBE
:1053C000AB2FBB278B839C83AD83BE838B818A836A
:1053D000EBE4F0E08A818083EAE4F0E08981808375
:1053E0008BE08983EEE4F0E089818083E9E5F0E0F9
:1053F00080818983898180618983E9E5F0E0898101
:10540000808326960FB6F894DEBF0FBECDBFCF9136
:10541000DF9108950E9453291895DF93CF93CDB75C
:10542000DEB728970FB6F894DEBF0FBECDBF8F83CF
:1054300068871A8219828F81882309F48CC08FE1D2
:1054400090E00E94EC249E838D838D819E81009745
:1054500009F481C08F81282F30E08885882F90E063
:10546000AC01249FC001259F900D349F900D112405
:1054700001969C838B838B819C810E94EC24ED811F
:10548000FE8191838083ED81FE81808191810097EF
:1054900009F45DC0ED81FE81408151818F81282F0B
:1054A00030E08885882F90E0BC01269FC001279FAF
:1054B000900D369F900D1124840F951FED81FE8174
:1054C00093838283ED81FE81128EED81FE81808146
:1054D0009181ED81FE8195838483ED81FE81408100
:1054E00051818F81882F90E09C0121503040888528
:1054F000882F90E0BC01269FC001279F900D369F0A
:10550000900D1124840F951FED81FE819783868372
:10551000ED81FE818F81838FED81FE818885848F6F
:10552000ED81FE818FEF858FED81FE818FEF868F7C
:105530008D819E8108960E9458258D819E8141967D
:105540000E9458258D819E819A83898304C08D8114
:105550009E810E94322589819A8128960FB6F894FF
:10556000DEBF0FBECDBFCF91DF910895DF93CF9304
:10557000CDB7DEB72C970FB6F894DEBF0FBECDBF08
:105580009E838D8378876F835A8749872B871982FB
:105590000FB6F8940F92ED81FE81928DED81FE8120
:1055A000838D9817D8F48D819E812F813885B9011C
:1055B0004B850E94F12CED81FE818189882349F081
:1055C0008D819E8141960E940633813011F40E94A4
:1055D000FA280F900FBE81E08C875CC089859A8580
:1055E000009721F40F900FBE1C8654C08981882338
:1055F00031F4CE0102960E946E3381E089830F90D0
:105600000FBE0E94CA300FB6F8940F92ED81FE8152
:10561000858D8F3F19F4ED81FE81158EED81FE8120
:10562000868D8F3F19F4ED81FE81168E0F900FBE8F
:10563000CE0102969E01275F3F4FB9010E9487333A
:10564000882309F58D819E810E94552E8823A1F023
:105650008D819E81089629853A85B9010E94D032B4
:105660008D819E810E94CE2D0E94D630882309F024
:105670008FCF0E94FA288CCF8D819E810E94CE2DE3
:105680000E94D63085CF8D819E810E94CE2D0E94B2
:10569000D6301C868C852C960FB6F894DEBF0FBED4
:1056A000CDBFCF91DF910895DF93CF93CDB7DEB714
:1056B00029970FB6F894DEBF0FBECDBF9C838B83B6
:1056C0007E836D8358874F8329871982EB81FC8104
:1056D000928DEB81FC81838D981740F58B819C81A5
:1056E0002D813E81B90149850E94F12CEB81FC811D
:1056F000868D8F3F89F4EB81FC818189882399F025
:105700008B819C8141960E940633882361F0EF8152
:10571000F88581E0808307C0EB81FC81868D8F5FF7
:10572000EB81FC81868F81E08A8301C01A828A81A5
:1057300029960FB6F894DEBF0FBECDBFCF91DF9193
:105740000895DF93CF93CDB7DEB72E970FB6F894B9
:10575000DEBF0FBECDBF98878F837A8769875C874E
:105760004B872D871B820FB6F8940F92EF81F88537
:10577000828D882309F43FC0EF81F8858681978167
:105780009A8389838F81988529853A85B9010E94FA
:10579000862D8D858823B1F4EF81F885828D815027
:1057A000EF81F885828FEF81F88580858823F1F07D
:1057B0008F81988508960E9406338130B9F40E9443
:1057C000FA2814C0EF81F88589819A8197838683AE
:1057D000EF81F8858189882349F08F8198854196EA
:1057E0000E940633882311F00E94FA280F900FBE02
:1057F00081E08E875CC08B859C85009721F40F909B
:105800000FBE1E8654C08B81882331F4CE010496CE
:105810000E946E3381E08B830F900FBE0E94CA30CE
:105820000FB6F8940F92EF81F885858D8F3F19F4AC
:10583000EF81F885158EEF81F885868D8F3F19F4FD
:10584000EF81F885168E0F900FBECE0104969E0153
:10585000255F3F4FB9010E948733882309F58F8167
:1058600098850E94222E8823A1F08F8198854196E9
:105870002B853C85B9010E94D0328F8198850E948A
:10588000CE2D0E94D630882309F06DCF0E94FA28D1
:105890006ACF8F8198850E94CE2D0E94D63063CF2B
:1058A0008F8198850E94CE2D0E94D6301E868E85CF
:1058B0002E960FB6F894DEBF0FBECDBFCF91DF910D
:1058C0000895DF93CF93CDB7DEB728970FB6F8943E
:1058D000DEBF0FBECDBF9C838B837E836D835887D5
:1058E0004F831982EB81FC81828D882371F18B813A
:1058F0009C812D813E81B9010E94862DEB81FC8126
:10590000828D8150EB81FC81828FEB81FC81858DC2
:105910008F3F89F4EB81FC818085882399F08B810E
:105920009C8108960E940633882361F0EF81F885F8
:1059300081E0808307C0EB81FC81858D8F5FEB81E7
:10594000FC81858F81E08A8301C01A828A81289632
:105950000FB6F894DEBF0FBECDBFCF91DF91089593
:10596000DF93CF9300D00F92CDB7DEB79B838A83AE
:105970000FB6F8940F92EA81FB81828D89830F9094
:105980000FBE89810F900F900F90CF91DF910895F6
:10599000DF93CF9300D00F92CDB7DEB79B838A837E
:1059A000EA81FB81828D898389810F900F900F900E
:1059B000CF91DF910895DF93CF9300D0CDB7DEB7BD
:1059C0009A838983E981FA81808191810E943225BD
:1059D00089819A810E9432250F900F90CF91DF919B
:1059E0000895DF93CF9300D000D00F92CDB7DEB7EC
:1059F0009A8389837C836B834D83E981FA81848DCB
:105A0000882309F474C08D81882399F5E981FA818E
:105A100064817581E981FA81848D482F50E02B8162
:105A20003C81CB01B9010E94F135E981FA812481E1
:105A30003581E981FA81848D882F90E0820F931F50
:105A4000E981FA8195838483E981FA812481358112
:105A5000E981FA81828193812817390708F447C0C8
:105A6000E981FA8180819181E981FA81958384833A
:105A70003EC0E981FA8166817781E981FA81848D6E
:105A8000482F50E02B813C81CB01B9010E94F135B8
:105A9000E981FA8126813781E981FA81848D882F15
:105AA00090E0909581959F4F820F931FE981FA8135
:105AB00097838683E981FA8126813781E981FA819A
:105AC000808191812817390790F4E981FA81228138
:105AD0003381E981FA81848D882F90E090958195BA
