:100000000C942A000C9434000C9434000C943400AA
:100010000C9434000C9434000C9434000C94340090
:100020000C9434000C9434000C9434000C94340080
:100030000C9434000C9434000C9434000C94340070
:100040000C9434000C9434000C9434000C94340060
:100050000C94340011241FBECFE5D8E0DEBFCDBF25
:100060000E94C1010C940A020C9400008FEF8ABB1D
:1000700087E087BB14BA11BA1BBA18BA15BA12BAFC
:100080000895843010F081E00895813049F0813086
:1000900028F0823039F0833031F407C06ABB03C0E6
:1000A00067BB01C064BB80E0089561BB80E0089538
:1000B000843010F081E00895813049F0813028F0DB
:1000C000823039F0833031F407C06BBB03C068BBAA
:1000D00001C065BB80E0089562BB80E00895843074
:1000E00008F084C0683008F081C0423008F07EC05B
:1000F000813031F1813038F0823009F43EC08330F4
:1001000009F076C056C0442321F0413009F070C098
:100110000CC02BB381E090E002C0880F991F6A9554
:10012000E2F7809582238BBB5FC02BB381E090E028
:1001300002C0880F991F6A95E2F7282B2BBB54C089
:10014000442321F0413009F053C00CC028B381E0B2
:1001500090E002C0880F991F6A95E2F7809582238C
:1001600088BB42C028B381E090E002C0880F991F8D
:100170006A95E2F7282B28BB37C0442319F0413099
:10018000B9F50CC025B381E090E002C0880F991F3B
:100190006A95E2F78095822385BB26C025B381E06E
:1001A00090E002C0880F991F6A95E2F7282B25BBC3
:1001B0001BC0442319F04130D9F40CC022B381E0B4
:1001C00090E002C0880F991F6A95E2F7809582231C
:1001D00082BB0AC022B381E090E002C0880F991F61
:1001E0006A95E2F7282B22BB80E0089581E008950C
:1001F00080E00895FA018430F0F46830E0F44115AD
:100200005105C9F0882311F489B30BC0813011F472
:1002100086B307C0823011F483B303C0833049F43E
:1002200080B390E002C0959587956A95E2F781705A
:10023000808380E0089581E008958430C0F56830BF
:10024000B0F5813091F0813028F08230C9F08330F0
:1002500061F521C02BB381E090E002C0880F991FA7
:100260006A95E2F728272BBB20C028B381E090E0F5
:1002700002C0880F991F6A95E2F7282728BB15C08E
:1002800025B381E090E002C0880F991F6A95E2F7DC
:10029000282725BB0AC022B381E090E002C0880F66
:1002A000991F6A95E2F7282722BB80E0089581E034
:1002B00008951F93182F81E060E041E00E946F00D5
:1002C00081E061E040E00E946F0080E0612F0E94C9
:1002D000580081E062E041E00E946F0012E0812F4F
:1002E0008A95F1F781E062E040E00E946F001A9584
:1002F000F1F780E01F9108951F93182F81E060E0CF
:1003000040E00E946F0081E061E040E00E946F00E9
:1003100080E0612F0E94580081E062E041E00E948D
:100320006F0012E0812F8A95F1F781E062E040E0F2
:100330000E946F001A95F1F780E01F9108951F93B6
:1003400080E991E028EC30E0F9013197F1F701976D
:10035000D9F788E30E947C0118E7812F8A95F1F78D
:100360008FE00E947C011A95F1F781E00E947C01E8
:1003700080E797E10197F1F786E00E947C011F91E9
:1003800008950E9436000E949F0181E60E94590153
:1003900081E40E94590181E40E94590181E40E9494
:1003A000590181E40E94590181E40E94590181E4CC
:1003B0000E94590181E40E94590181E40E9459017F
:1003C00081E40E94590181E40E94590181E60E9462
:1003D000590181E40E94590181E40E94590181E49C
:1003E0000E94590181E40E94590181E40E9459014F
:1003F00081E40E94590181E40E94590181E40E9434
:10040000590181E40E94590181E40E94590180E070
:0804100090E00895F894FFCF7D
:00000001FF
