:100000000C942A000C9447000C9447000C94470071
:100010000C9447000C9447000C9447000C94470044
:100020000C9447000C9447000C94F80D0C949B0D15
:100030000C9447000C9447000C9447000C94470024
:100040000C9447000C9447000C9447000C94470014
:100050000C94470011241FBECFE5D8E0DEBFCDBF12
:1000600011E0A8E6B1E001C01D92AA38B107E1F79E
:1000700011E0A0E6B0E0ECE9FEE102C005900D92CF
:10008000A836B107D9F70E947A0E0C944C0F0C9445
:100090000000EF92FF920F931F937B018C0120E0F1
:1000A00030E040E05FE40E94C50388238CF0C80183
:1000B000B70120E030E040E05FE40E94C1010E940F
:1000C000F5039B01AC01205030404040504806C031
:1000D000C801B7010E94F5039B01AC01B901CA0137
:1000E0001F910F91FF90EF900895A0E0B0E0EBE733
:1000F000F0E00C94150FDC012B01FA019C91923079
:1001000008F439C1EB018881823008F433C194309E
:1001100069F4843009F02FC111969C91119789815F
:10012000981709F428C1A0E6B0E025C1843009F48D
:1001300021C18230A9F4923009F01DC19A01AD01AC
:1001400088E0EA010990AE01E90109929E0181501F
:10015000C1F7E201898111969C918923818308C1AD
:10016000923009F407C112962D903C901397EB0141
:100170008A819B811496AD90BD90CD90DC901797AD
:10018000EC80FD800E811F819101281B390BB90184
:1001900037FF04C066277727621B730B6032710537
:1001A0000CF061C0121613066CF537014801062EDB
:1001B00004C096948794779467940A94D2F721E0C8
:1001C00030E040E050E004C0220F331F441F551FB1
:1001D0006A95D2F721503040404050402E213F21B7
:1001E00040235123211531054105510521F021E01E
:1001F00030E040E050E079018A01E628F72808293C
:1002000019293CC0232BD1F1260E371E350146019A
:10021000062E04C096948794779467940A94D2F734
:1002200021E030E040E050E004C0220F331F441FC3
:10023000551F6A95D2F721503040404050402A2146
:100240003B214C215D21211531054105510521F04E
:1002500021E030E040E050E059016A01A628B728CB
:10026000C828D9280BC0821593052CF01C01AA249C
:10027000BB24650103C0EE24FF24870111969C91E5
:10028000D20111968C91981709F445C0992339F041
:10029000A80197012A193B094C095D0906C0A6016E
:1002A00095012E193F09400B510B57FD08C01182D3
:1002B0003382228224833583468357831DC081E0A5
:1002C00081833382228288279927DC01821B930B4A
:1002D000A40BB50B84839583A683B7830DC0220F2F
:1002E000331F441F551F24833583468357838281E0
:1002F000938101979383828324813581468157813D
:10030000DA01C9010197A109B1098F5F9F4FAF4F72
:10031000BF4328F30BC0918333822282EA0CFB1C7B
:100320000C1D1D1DE482F5820683178383E0808304
:10033000248135814681578157FF1AC0C901AA27F8
:1003400097FDA095BA2F81709070A070B0705695EF
:10035000479537952795822B932BA42BB52B848318
:100360009583A683B7838281938101969383828349
:10037000DF0101C0D201CD01CDB7DEB7E2E10C94BF
:10038000310FA0E2B0E0E7ECF1E00C94210F6983BB
:100390007A838B839C832D833E834F835887E9E048
:1003A000EE2EF12CEC0EFD1ECE010196B7010E943F
:1003B000E6058E010F5E1F4FCE010596B8010E9423
:1003C000E6058A8991E089278A8BC701B801AE01C9
:1003D000475E5F4F0E9475000E941105A096E6E0FF
:1003E0000C943D0FA0E2B0E0E8EFF1E00C94210F97
:1003F00069837A838B839C832D833E834F835887C5
:10040000F9E0EF2EF12CEC0EFD1ECE010196B701A6
:100410000E94E6058E010F5E1F4FCE010596B801C2
:100420000E94E605C701B801AE01475E5F4F0E941A
:1004300075000E941105A096E6E00C943D0FA0E225
:10044000B0E0E5E2F2E00C94150F69837A838B83C8
:100450009C832D833E834F835887CE010196BE0136
:10046000675F7F4F0E94E605CE010596BE016F5E75
:100470007F4F0E94E6059985923088F08989823005
:10048000C8F0943019F4823051F404C0843029F457
:10049000923081F480E690E0C6C0923049F420E0CA
:1004A0009A858A89981321E02A87CE010996BBC0D4
:1004B000823049F420E09A858A89981321E02A8BBA
:1004C000CE014196B0C02D843E844F8458886D88FB
:1004D0007E888F88988CEE24FF248701AA24BB2471
:1004E000650140E050E060E070E0E0E0F0E0C10174
:1004F00081709070892BE9F0E60CF71C081D191D1E
:100500009A01AB012A0D3B1D4C1D5D1D80E090E062
:10051000A0E0B0E0E614F7040805190520F481E036
:1005200090E0A0E0B0E0BA01A901480F591F6A1F8E
:100530007B1FAA0CBB1CCC1CDD1C97FE08C081E0F5
:1005400090E0A0E0B0E0A82AB92ACA2ADB2A3196B6
:10055000E032F10549F0660C771C881C991C569412
:10056000479437942794C3CFFA85EA892B893C892D
:100570008B859C85280F391F2E5F3F4F17C0CA01FE
:1005800081709070892B61F016950795F794E79428
:1005900080E090E0A0E0B0E8E82AF92A0A2B1B2BC3
:1005A00076956795579547952F5F3F4F77FDE7CF36
:1005B0000CC0440F551F661F771F17FD4160EE0CDE
:1005C000FF1C001F111F21503040403090E05907A0
:1005D00090E0690790E4790760F32B8F3C8FDB0193
:1005E000CA018F779070A070B07080349105A1051A
:1005F000B10561F447FD0AC0E114F10401051105DC
:1006000029F0405C5F4F6F4F7F4F40781A8EFE1786
:1006100011F081E08A8F4D8F5E8F6F8F78A383E01A
:10062000898FCE0149960E941105A096E2E10C94B3
:10063000310FA8E1B0E0EFE1F3E00C941D0F698306
:100640007A838B839C832D833E834F835887B9E0C5
:10065000EB2EF12CEC0EFD1ECE010196B7010E948F
:10066000E6058E010F5E1F4FCE010596B8010E9470
:10067000E6052985223008F47EC03989323010F42D
:10068000B8017CC08A859A8989278A87243011F02D
:10069000223031F4231709F06EC060E670E06EC0BE
:1006A000343039F41D861E861F86188A1C861B86E8
:1006B00004C0323021F484E08987B7015FC02B8504
:1006C0003C858B899C89281B390B3C872B87ED84C3
:1006D000FE840F851889AD88BE88CF88D88CEA142F
:1006E000FB040C051D0540F4EE0CFF1C001F111F40
:1006F000215030403C872B8720E030E040E050E044
:1007000080E090E0A0E0B0E460E070E0EA14FB0478
:100710000C051D0540F0282B392B4A2B5B2BEA18C2
:10072000FB080C091D09B695A79597958795EE0CC2
:10073000FF1C001F111F6F5F7F4F6F31710531F775
:10074000DA01C9018F779070A070B0708034910584
:10075000A105B10561F427FD0AC0E114F10401050A
:10076000110529F0205C3F4F4F4F5F4F20782D87B8
:100770003E874F87588BBE01675F7F4FCB010E943A
:1007800011056896EAE00C94390FA8E1B0E0EBECB3
:10079000F3E00C94210F69837A838B839C832D83F0
:1007A0003E834F83588789E0E82EF12CEC0EFD1E26
:1007B000CE010196B7010E94E6058E010F5E1F4F24
:1007C000CE010596B8010E94E6058985823040F089
:1007D0008989823028F0C701B8010E945E0601C0F5
:1007E0008FEF6896E6E00C943D0FACE0B0E0EBEFE5
:1007F000F3E00C94250F69837A838B839C83CE016D
:100800000196BE016B5F7F4F0E94E6058D818230AD
:1008100061F1823050F1843021F48E81882351F1CE
:100820002EC02F81388537FD20C06E812F313105D4
:100830001CF06623F9F023C08EE190E0821B930B3D
:1008400029853A854B855C8504C056954795379533
:1008500027958A95D2F76623B1F05095409530954B
:1008600021953F4F4F4F5F4F0EC020E030E040E0FA
:1008700050E009C02FEF3FEF4FEF5FE704C020E0EB
:1008800030E040E050E8B901CA012C96E2E00C9457
:10089000410FA8E0B0E0EFE4F4E00C941D0F7B0101
:1008A0008C01611571058105910519F482E0898338
:1008B00060C083E089838EE1C82ED12CDC82CB829C
:1008C000ED82FE820F831887C801B7010E94C2041F
:1008D000FC013197F7FF3BC0222733272E1B3F0B2C
:1008E00057016801022E04C0D694C794B794A79408
:1008F0000A94D2F740E050E060E070E081E090E0E0
:10090000A0E0B0E004C0880F991FAA1FBB1F2A9562
:10091000D2F70197A109B1098E219F21A023B1230C
:100920000097A105B10521F041E050E060E070E0E2
:100930004A295B296C297D294D835E836F837887E3
:100940008EE190E08E1B9F0B9C838B8312C03097AF
:1009500081F00E2E04C0EE0CFF1C001F111F0A9424
:10096000D2F7ED82FE820F831887CE1ADF0ADC826F
:10097000CB821A82CE0101960E9411052896EAE0E8
:100980000C94390FEF92FF920F931F937B018C0110
:1009900080E0E81680E0F80681E0080780E01807AC
:1009A00088F48FEFE816F1040105110531F028F005
:1009B00088E090E0A0E0B0E017C080E090E0A0E028
:1009C000B0E012C080E0E81680E0F80680E008079A
:1009D00081E0180728F088E190E0A0E0B0E004C0D2
:1009E00080E190E0A0E0B0E020E230E040E050E0C4
:1009F000281B390B4A0B5B0B04C016950795F7941F
:100A0000E7948A95D2F7F701E859FF4F8081281BB8
:100A1000310941095109C9011F910F91FF90EF90D0
:100A20000895DF92EF92FF920F931F93FC01E480F1
:100A3000F58006811781D1808081823048F480E082
:100A400090E0A0E1B0E0E82AF92A0A2B1B2BA5C010
:100A5000843009F49FC0823021F4EE24FF24870102
:100A600005C0E114F1040105110519F4E0E0F0E01E
:100A700096C0628173819FEF623879070CF05BC08A
:100A800022E83FEF261B370B2A3131052CF020E0FE
:100A900030E040E050E02AC0B801A701022E04C0B7
:100AA00076956795579547950A94D2F781E090E03F
:100AB000A0E0B0E004C0880F991FAA1FBB1F2A95B1
:100AC000D2F70197A109B1098E219F21A023B1235B
:100AD0000097A105B10521F081E090E0A0E0B0E031
:100AE0009A01AB01282B392B4A2B5B2BDA01C90168
:100AF0008F779070A070B07080349105A105B1051A
:100B000039F427FF09C0205C3F4F4F4F5F4F04C0AF
:100B1000215C3F4F4F4F5F4FE0E0F0E02030A0E01E
:100B20003A07A0E04A07A0E45A0710F0E1E0F0E03D
:100B300079018A0127C06038710564F5FB01E1582D
:100B4000FF4FD801C7018F779070A070B0708034CC
:100B50009105A105B10539F4E7FE0DC080E490E0F0
:100B6000A0E0B0E004C08FE390E0A0E0B0E0E80EC9
:100B7000F91E0A1F1B1F17FF05C016950795F7944E
:100B8000E794319687E016950795F794E7948A9550
:100B9000D1F705C0EE24FF248701EFEFF0E06E2FC0
:100BA000679566276795902F9F77D794DD24D79414
:100BB0008E2F8695492F462B582F5D29B701CA01E4
:100BC0001F910F91FF90EF90DF900895FC01DB01E2
:100BD000408151812281622F6F7770E0221F22278E
:100BE000221F9381892F880F822B282F30E0991F95
:100BF0009927991F11969C93119721153105A9F5F5
:100C0000411551056105710511F482E037C082E894
:100C10009FEF13969C938E9312979A01AB0167E016
:100C2000220F331F441F551F6A95D1F783E08C9321
:100C30000DC0220F331F441F551F12968D919C919A
:100C40001397019713969C938E931297203080E010
:100C5000380780E0480780E4580758F314962D932E
:100C60003D934D935C93179708952F3F310579F489
:100C7000411551056105710519F484E08C930895BF
:100C800064FF03C081E08C9312C01C9210C02F57E8
:100C9000304013963C932E93129783E08C9387E019
:100CA000440F551F661F771F8A95D1F770641496FD
:100CB0004D935D936D937C93179708951F93DC017B
:100CC000FB019C91923008F447C08081823008F487
:100CD00043C0943051F411961C91843099F5818170
:100CE000682F70E0611B71093FC0843021F09230A1
:100CF00031F48230B9F18181882389F12DC01196B8
:100D00001C9111978230F1F081811817D9F4129655
:100D10002D913C911397828193818217930794F0D0
:100D200028173907BCF014968D919D910D90BC91B8
:100D3000A02D2481358146815781281739074A071C
:100D40005B0718F4112341F00AC082179307A40728
:100D5000B50740F4112319F061E070E005C06FEFB2
:100D60007FEF02C060E070E0CB011F910895DF9338
:100D7000CF93CDB7DEB7EAE3F0E08FE08083E7E31F
:100D8000F0E01082E4E3F0E01082E1E3F0E01082B2
:100D9000EBE3F0E01082E8E3F0E01082E5E3F0E05E
:100DA0001082E2E3F0E01082CF91DF910895DF93AB
:100DB000CF93CDB7DEB72F970FB6F894DEBF0FBE37
:100DC000CDBF8A836B834C8319828A81843008F07B
:100DD0000EC18B81883008F00AC18C81813021F0EE
:100DE0008C81882309F003C18A81282F30E03F8756
:100DF0002E878E859F858130910509F44FC02E8501
:100E00003F85223031052CF48E859F85009771F047
:100E1000EBC02E853F852230310509F477C08E85E1
:100E20009F858330910509F4A9C0DEC08C81282FED
:100E300030E03D872C878C859D850097D1F02C85EF
:100E40003D852130310509F0CFC0AAE3B0E0EAE3E7
:100E5000F0E08081482F8B81282F30E081E090E006
:100E6000022E02C0880F991F0A94E2F7842B8C93FC
:100E7000BBC0AAE3B0E0EAE3F0E08081482F8B81B9
:100E8000282F30E081E090E0022E02C0880F991FE9
:100E90000A94E2F7809584238C93A6C08C81282F36
:100EA00030E03B872A878A859B850097D1F02A8589
:100EB0003B852130310509F097C0A7E3B0E0E7E3B7
:100EC000F0E08081482F8B81282F30E081E090E096
:100ED000022E02C0880F991F0A94E2F7842B8C938C
:100EE00083C0A7E3B0E0E7E3F0E08081482F8B8187
:100EF000282F30E081E090E0022E02C0880F991F79
:100F00000A94E2F7809584238C936EC08C81282FFD
:100F100030E039872887888599850097D1F0288522
:100F200039852130310509F05FC0A4E3B0E0E4E386
:100F3000F0E08081482F8B81282F30E081E090E025
:100F4000022E02C0880F991F0A94E2F7842B8C931B
:100F50004BC0A4E3B0E0E4E3F0E08081482F8B8154
:100F6000282F30E081E090E0022E02C0880F991F08
:100F70000A94E2F7809584238C9336C08C81282FC5
:100F800030E03F832E838E819F810097C9F02E81B0
:100F90003F812130310541F5A1E3B0E0E1E3F0E02C
:100FA0008081482F8B81282F30E081E090E0022E55
:100FB00002C0880F991F0A94E2F7842B8C9314C007
:100FC000A1E3B0E0E1E3F0E08081482F8B81282F9E
:100FD00030E081E090E0022E02C0880F991F0A9451
:100FE000E2F7809584238C9339813D8304C081E0AE
:100FF000898389818D838D812F960FB6F894DEBF0A
:101000000FBECDBFCF91DF910895DF93CF93CDB7C2
:10101000DEB72F970FB6F894DEBF0FBECDBF8A8321
:101020006B834C8319828A81843008F00EC18B81D6
:10103000883008F00AC18C81813021F08C818823AE
:1010400009F003C18A81282F30E03F872E878E85E3
:101050009F858130910509F44FC02E853F85223050
:1010600031052CF48E859F85009771F0EBC02E859D
:101070003F852230310509F477C08E859F85833006
:10108000910509F4A9C0DEC08C81282F30E03D878E
:101090002C878C859D850097D1F02C853D8521304E
:1010A000310509F0CFC0ABE3B0E0EBE3F0E08081C5
:1010B000482F8B81282F30E081E090E0022E02C083
:1010C000880F991F0A94E2F7842B8C93BBC0ABE383
:1010D000B0E0EBE3F0E08081482F8B81282F30E0F7
:1010E00081E090E0022E02C0880F991F0A94E2F777
:1010F000809584238C93A6C08C81282F30E03B8779
:101100002A878A859B850097D1F02A853B852130E7
:10111000310509F097C0A8E3B0E0E8E3F0E0808192
:10112000482F8B81282F30E081E090E0022E02C012
:10113000880F991F0A94E2F7842B8C9383C0A8E34D
:10114000B0E0E8E3F0E08081482F8B81282F30E089
:1011500081E090E0022E02C0880F991F0A94E2F706
:10116000809584238C936EC08C81282F30E0398742
:101170002887888599850097D1F028853985213081
:10118000310509F05FC0A5E3B0E0E5E3F0E0808160
:10119000482F8B81282F30E081E090E0022E02C0A2
:1011A000880F991F0A94E2F7842B8C934BC0A5E318
:1011B000B0E0E5E3F0E08081482F8B81282F30E01C
:1011C00081E090E0022E02C0880F991F0A94E2F796
:1011D000809584238C9336C08C81282F30E03F8308
:1011E0002E838E819F810097C9F02E813F8121300F
:1011F000310541F5A2E3B0E0E2E3F0E08081482F61
:101200008B81282F30E081E090E0022E02C0880F11
:10121000991F0A94E2F7842B8C9314C0A2E3B0E0E8
:10122000E2E3F0E08081482F8B81282F30E081E0DD
:1012300090E0022E02C0880F991F0A94E2F7809571
:1012400084238C9339813D8304C081E08983898123
:101250008D838D812F960FB6F894DEBF0FBECDBF64
:10126000CF91DF910895DF93CF93CDB7DEB7289765
:101270000FB6F894DEBF0FBECDBF8A836B835D834C
:101280004C8319828A81843008F0ECC08B818830CD
:1012900008F0E8C08C819D81009709F4E3C08A8141
:1012A000282F30E038872F834F81588541305105F2
:1012B00009F448C08F8198858230910534F42F81DC
:1012C00038852115310571F0CAC04F8158854230EB
:1012D000510509F467C08F8198858330910509F421
:1012E00090C0BDC0E9E3F0E08081282F30E08B8121
:1012F000882F90E0A90102C0559547958A95E2F79D
:10130000CA0181709070009721F4EC81FD811082F8
:10131000A6C0E9E3F0E08081282F30E08B81882FA0
:1013200090E0A90102C0559547958A95E2F7CA0158
:1013300081709070882309F492C0EC81FD8181E076
:1013400080838DC0E6E3F0E08081282F30E08B8140
:10135000882F90E0A90102C0559547958A95E2F73C
:10136000CA0181709070009721F4EC81FD81108298
:1013700076C0E6E3F0E08081282F30E08B81882F73
:1013800090E0A90102C0559547958A95E2F7CA01F8
:1013900081709070882309F462C0EC81FD8181E046
:1013A00080835DC0E3E3F0E08081282F30E08B8113
:1013B000882F90E0A90102C0559547958A95E2F7DC
:1013C000CA0181709070009721F4EC81FD81108238
:1013D00046C0E3E3F0E08081282F30E08B81882F46
:1013E00090E0A90102C0559547958A95E2F7CA0198
:1013F00081709070882399F1EC81FD8181E0808378
:101400002EC0E0E3F0E08081282F30E08B81882F30
:1014100090E0A90102C0559547958A95E2F7CA0167
:1014200081709070009721F4EC81FD81108217C0CB
:10143000E0E3F0E08081282F30E08B81882F90E07E
:10144000A90102C0559547958A95E2F7CA018170B6
:101450009070882321F0EC81FD8181E080835981A7
:101460005E8304C081E0898389818E838E81289682
:101470000FB6F894DEBF0FBECDBFCF91DF910895B8
:10148000DF93CF93CDB7DEB72E970FB6F894DEBFBC
:101490000FBECDBF8A836B8319828A81843008F0A6
:1014A00089C08B81813021F08B81882309F082C033
:1014B0008A81282F30E03E872D878D859E8581305B
:1014C000910571F12D853E85223031052CF48D85F5
:1014D0009E85009769F06BC02D853E8522303105D1
:1014E000B9F18D859E858330910509F449C05FC0AF
:1014F0008B81282F30E03C872B878B859C8500973C
:1015000031F02B853C852130310529F050C0EBE3CB
:10151000F0E010824CC0EBE3F0E08FEF808347C037
:101520008B81282F30E03A87298789859A85009713
:1015300031F029853A852130310529F038C0E8E3BA
:10154000F0E0108234C0E8E3F0E08FEF80832FC03A
:101550008B81282F30E038872F838F8198850097E3
:1015600031F02F8138852130310529F020C0E5E3A5
:10157000F0E010821CC0E5E3F0E08FEF808317C03D
:101580008B81282F30E03E832D838D819E810097B3
:1015900031F02D813E812130310529F008C0E2E390
:1015A000F0E0108204C0E2E3F0E08FEF8083398145
:1015B0003C8304C081E0898389818C838C812E9651
:1015C0000FB6F894DEBF0FBECDBFCF91DF91089567
:1015D000DF93CF9300D000D000D0CDB7DEB78A83A1
:1015E0006B8319828A818430A8F58A81282F30E0A4
:1015F0003E832D838D819E8181309105D1F02D8197
:101600003E81223031052CF48D819E81009761F05E
:101610001EC02D813E812230310581F08D819E8159
:101620008330910581F013C0EBE3F0E08B81808380
:101630000EC0E8E3F0E08B81808309C0E5E3F0E0D1
:101640008B81808304C0E2E3F0E08B818083998109
:101650009C8304C081E0898329812C838C81269618
:101660000FB6F894DEBF0FBECDBFCF91DF910895C6
:10167000DF93CF93CDB7DEB727970FB6F894DEBFD1
:101680000FBECDBF8A837C836B8319828B819C8143
:101690000097E9F18A81282F30E03F832E838E81E5
:1016A0009F8181309105E1F02E813F81223031050B
:1016B0002CF48E819F81009761F026C02E813F819E
:1016C00022303105A1F08E819F8183309105B1F0E8
:1016D0001BC0E9E3F0E08081EB81FC81808314C0D2
:1016E000E6E3F0E08081EB81FC8180830DC0E3E3E1
:1016F000F0E08081EB81FC81808306C0E0E3F0E0D4
:101700008081EB81FC81808399819D8304C081E08D
:10171000898329812D838D8127960FB6F894DEBFAA
:101720000FBECDBFCF91DF910895DF93CF93CDB79B
:10173000DEB7AFE5B0E0EFE5F0E0808180688C9344
:10174000CF91DF910895DF93CF93CDB7DEB7AFE5AB
:10175000B0E0EFE5F0E080818F778C93CF91DF915F
:101760000895DF93CF93CDB7DEB728970FB6F894DF
:10177000DEBF0FBECDBF8A837C836B835E834D83C8
:1017800038872F8381E089838F8198850097C1F105
:101790008A818330A8F58A81282F30E0C901880F1B
:1017A000991F820F931F880F991FFC01E859FE4F64
:1017B0008B819C81918380838A81282F30E0C901AD
:1017C000880F991F820F931F0196880F991FFC01A4
:1017D000E859FE4F8D819E81918380838A81282FD5
:1017E00030E0C901880F991F820F931F880F991F3E
:1017F000FC01E459FE4F8F81988591838083198283
:10180000898128960FB6F894DEBF0FBECDBFCF9169
:10181000DF910895DF93CF930F92CDB7DEB7198292
:10182000198269C08981282F30E0C901880F991F6A
:10183000820F931F0196880F991FFC01E859FE4FF4
:10184000808191810097A1F58981282F30E0C9011D
:10185000880F991F820F931F880F991FFC01E4596D
:10186000FE4F0190F081E02D09958981482F50E0CD
:101870008981282F30E0C901880F991F820F931F9B
:10188000880F991FFC01E859FE4F808191819C01CE
:1018900021503040CA01880F991F840F951F01966F
:1018A000880F991FFC01E859FE4F3183208320C027
:1018B0008981282F30E0C901880F991F820F931F5B
:1018C0000196880F991FFC01E859FE4F8081918194
:1018D000AC0141505040C901880F991F820F931FDE
:1018E0000196880F991FFC01E859FE4F51834083F0
:1018F00089818F5F89838981833008F493CF0F902A
:10190000CF91DF910895DF93CF93CDB7DEB70E94DB
:10191000950B8AE09CE00E94400ECF91DF910895E4
:10192000DF93CF9300D0CDB7DEB79A8389838981C7
:101930009A810E94A00C0F900F90CF91DF91089593
:10194000EF92FF920F931F93DF93CF93CDB7DEB744
:101950002F970FB6F894DEBF0FBECDBF9F878E873F
:101960001D8619861A861B861C861D821E821F8272
:10197000188680E090E0A0E0B0E089839A83AB8392
:10198000BC83A3E5B0E0E3E5F0E080818F7B8C933E
:10199000A3E5B0E0E3E5F0E08081877F8C93A3E5E9
:1019A000B0E0E3E5F0E0808180628C93A3E5B0E0F5
:1019B000E3E5F0E080818F7E8C9380E492E4AFE0F9
:1019C000B0E089879A87AB87BC8780E492E4AFE078
:1019D000B0E029853A854B855C85BC01CD010E942C
:1019E000F30EDA01C901BA2FA92F982F88278D830A
:1019F0009E83AF83B8878E859F85CC01A0E0B0E041
:101A0000BC01CD010E944904DC01CB01BC01CD0128
:101A100020E034E244E759E40E941F02DC01CB01DC
:101A20007C018D016D817E818F8198850E944904A2
:101A30009B01AC01C801B7010E941903DC01CB0175
:101A400080937A0190937B01A0937C01B0937D01F8
:101A5000E0907A01F0907B0100917C0110917D0172
:101A600080917A0190917B01A0917C01B0917D01E0
:101A7000BC01CD010E944900DC01CB01BC01CD01BC
:101A80000E9449049B01AC01C801B7010E94C10139
:101A9000DC01CB0189839A83AB83BC8369817A8122
:101AA0008B819C8120E030E040E853EC0E941F02D3
:101AB000DC01CB01BC01CD0120E030E040E853E483
:101AC0000E94F201DC01CB01BC01CD010E94490062
:101AD000DC01CB0180937E01E2E5F0E080917E01A4
:101AE0008083A9E5B0E0E9E5F0E0808181608C9336
:101AF000A3E5B0E0E3E5F0E080818B7F8C93A3E584
:101B0000B0E0E3E5F0E0808182608C93A3E5B0E093
:101B1000E3E5F0E080818E7F8C938D852F960FB664
:101B2000F894DEBF0FBECDBFCF91DF911F910F9113
:101B3000FF90EF9008951F920F920FB60F9211240D
:101B40002F933F934F935F936F937F938F939F93C5
:101B5000AF93BF93EF93FF93DF93CF93CDB7DEB7F0
:101B600080917F01909180010196909380018093F4
:101B70007F0180917A0190917B01A0917C01B091CD
:101B80007D01BC01CD010E944900DC01CB019C011B
:101B90002F5F3F4F80917F01909180012817390777
:101BA000A1F4E2E5F0E080917E0180831092800153
:101BB00010927F018091830190918401009729F018
:101BC000E0918301F09184010995CF91DF91FF911C
:101BD000EF91BF91AF919F918F917F916F915F91A5
:101BE0004F913F912F910F900FBE0F901F9018951E
:101BF0001F920F920FB60F9211242F933F934F9382
:101C00005F936F937F938F939F93AF93BF93EF9364
:101C1000FF93DF93CF93CDB7DEB780918101909191
:101C200082010196909382018093810180918101CC
:101C30009091820127E28031920779F4109282011B
:101C4000109281018091850190918601009729F081
:101C5000E0918501F09186010995CF91DF91FF9187
:101C6000EF91BF91AF919F918F917F916F915F9114
:101C70004F913F912F910F900FBE0F901F9018958D
:101C8000DF93CF9300D00F92CDB7DEB79B838A83CB
:101C900019828A819B81009739F08A819B81909378
:101CA00084018093830102C081E0898389810F9040
:101CB0000F900F90CF91DF910895DF93CF9300D0D5
:101CC0000F92CDB7DEB79B838A8319828A819B816D
:101CD000009739F08A819B819093860180938501DA
:101CE00002C081E0898389810F900F900F90CF917E
:101CF000DF910895DF93CF93CDB7DEB70E94B7068B
:101D000022EA3EE081E060E177E240E050E00E94BC
:101D1000B10B2DEB3EE082E060ED77E040E050E07B
:101D20000E94B10B28ED3EE080E060E573EC40E0FE
:101D300050E00E94B10B0E94830C81E090E00E9471
:101D4000900CFFCFDF93CF93CDB7DEB780918701A3
:101D5000882349F480E061E041E00E94050881E0C9
:101D60008093870107C080E061E040E00E940508A1
:101D700010928701CF91DF910895DF93CF93CDB774
:101D8000DEB780918801882349F480E062E041E079
:101D90000E94050881E08093880107C080E062E02E
:101DA00040E00E94050810928801CF91DF910895CC
:101DB000DF93CF93CDB7DEB780918901882349F4B3
:101DC00080E063E041E00E94050881E080938901A2
:101DD00007C080E063E040E00E940508109289019E
:101DE000CF91DF910895A1E21A2EAA1BBB1BFD0122
:101DF0000DC0AA1FBB1FEE1FFF1FA217B307E407EA
:101E0000F50720F0A21BB30BE40BF50B661F771F41
:101E1000881F991F1A9469F7609570958095909521
:101E20009B01AC01BD01CF0108952F923F924F92CB
:101E30005F926F927F928F929F92AF92BF92CF925A
:101E4000DF92EF92FF920F931F93CF93DF93CDB763
:101E5000DEB7CA1BDB0B0FB6F894DEBF0FBECDBFDB
:101E600009942A88398848885F846E847D848C84AC
:101E70009B84AA84B984C884DF80EE80FD800C81B5
:101E80001B81AA81B981CE0FD11D0FB6F894DEBF98
:0C1E90000FBECDBFED010895F894FFCF08
:101E9C000000000000000000000102020303030325
:101EAC0004040404040404040505050505050505DE
:101EBC0005050505050505050606060606060606BE
:101ECC0006060606060606060606060606060606A6
:101EDC00060606060606060607070707070707078E
:101EEC000707070707070707070707070707070776
:101EFC000707070707070707070707070707070766
:101F0C000707070707070707070707070707070755
:101F1C00070707070707070708080808080808083D
:101F2C000808080808080808080808080808080825
:101F3C000808080808080808080808080808080815
:101F4C000808080808080808080808080808080805
:101F5C0008080808080808080808080808080808F5
:101F6C0008080808080808080808080808080808E5
:101F7C0008080808080808080808080808080808D5
:101F8C0008080808080808080808080808080808C5
:081F9C000808080808080808FD
:00000001FF
